:020000040800F2
:10000000F80B0020050100083F210008131D00081F
:100010003D210008D10600087128000800000000FA
:100020000000000000000000000000002D23000878
:10003000D3060008000000002B23000885230008D9
:100040001F0100081F0100081F0100081F01000810
:100050001F0100081F0100081F0100081F01000800
:100060001F0100081F0100081F0100081F010008F0
:100070001F0100081F0100081F0100081F010008E0
:100080001F0100081F0100081F0100081F010008D0
:100090001F0100081F0100081F0100081F010008C0
:1000A0001F0100081F0100081F0100081F010008B0
:1000B000E9230008F5230008012400081F010008B7
:1000C0001F0100081F0100081F0100081F01000890
:1000D0001F01000825280008652800081F010008E6
:1000E0001F0100081F0100081F010008DFF810D0E1
:1000F00000F0DCFA00480047F5290008AFF3008063
:10010000F80B00200648804706480047FEE7FEE758
:10011000FEE7FEE7FEE7FEE7FEE7FEE7FEE7FEE7B7
:10012000E5230008ED000008202A04DB203A21FA2C
:1001300002F00021704721FA02F3D040C2F1200200
:10014000914008431946704740EA01039B0703D0DA
:1001500009E008C9121F08C0042AFAD203E011F806
:10016000013B00F8013B521EF9D27047D2B201E0C8
:1001700000F8012B491EFBD270470022F6E710B5AC
:1001800013460A4604461946FFF7F0FF204610BD05
:10019000F0B480EA0102D40F4200B2EB410F02D268
:1001A0000246084611464A0042D0C30DDDB2C1F3F3
:1001B000C752AD1A202D35DAC1F3160141F4000201
:1001C00004B15242C5F1200602FA06F12A41104458
:1001D000B3EBD05F23D0C4B1012DA0EBC35009DC39
:1001E000F0BC4FF0004202EAC352DBB200F500005F
:1001F00000F0D0B9400000F1807000EBC350A0F1D6
:10020000807040EAD170490009E0490841EAC071B4
:10021000A0EBC35000F50000400800EBC350F0BC59
:1002200000F0AFB96142012202EB4101001BF6E789
:10023000F0BC704781F00041AAE780F00040A7E7DA
:1002400080EA010210B502F00043400022D04A00CB
:100250001FD0010E01EB1261C0F35600C2F356022B
:1002600040F4000042F40002A0FB022000047F39A9
:10027000140400D0401C50EA124001D44000491E32
:10028000C2B20C0604EBD010401C4008802A02D0F9
:1002900003E0002010BD20F00100002900DA00205A
:1002A000184310BD420005D0C0F3C75252429142DC
:1002B00001DC0020704700EBC15070472DE9FE4F74
:1002C00081EA030404F0004421F0004100944FF05F
:1002D000000B23F0004350EA01045ED052EA03040D
:1002E0005BD0C3F30A54C1F30A552C44A4F2F3348F
:1002F0000194A0FB0254C1F3130141F48011C3F334
:10030000130343F4801301FB024400FB034E840AF1
:10031000970A44EA815447EA8357A4FB0768029589
:100320008D0A05FB07854FEA932C04FB0C54270527
:10033000029D4FEA065847EA1637B5EB08056EEB03
:10034000070C870E920E47EA811742EA8312A7FB39
:100350000201B6EB0B0164EB00042B0D43EA0C33F6
:100360005E1844EB1C50DA465146E7FB0201C5F328
:1003700013044FEA0B3343EA14534FEA0432019C4F
:1003800043EA0603A4F10C040294009CCDE900B4F6
:1003900000F03DF903B0BDE8F08F00200146F9E719
:1003A0002DE9F04D81EA030404F0004B21F00045F3
:1003B00014464FF0000A23F0004150EA050220D015
:1003C00054EA01021DD0C5F30A570246C5F31303D0
:1003D000C1F31300C1F30A5640F4801543F48013AF
:1003E000A7EB0608101BD64608F2FD3873EB050094
:1003F00002D308F1010801E092185B41B8F1000F47
:1004000003DA00200146BDE8F08D00204FF4801192
:10041000064684460EE0171B73EB050705D3121B37
:1004200063EB050306434CEA010C49084FEA300030
:1004300092185B4150EA0107EDD152EA030012D055
:1004400082EA040083EA0501084305D0101BAB4192
:1004500006D20122002306E000224FF0004302E012
:100460006FF0010253101AEB06004CEB085110EB31
:100470000A0041EB0B01BDE8F04D00F0B9B8C10F27
:1004800080EAE0700844CA079623002100F082B891
:1004900096230022114600F07DB80EB5C10F80EA08
:1004A000E0700844CA07002140F233438DE80E0093
:1004B0000A460B4600F0ABF803B000BD00F0004266
:1004C00020F00040C10DC0F3160040F400007F2969
:1004D00001DA00207047962903DCC1F19601C8407B
:1004E00001E096398840002AF4D04042704770B548
:1004F000C1F30A5201F000450024C1F3130140F298
:10050000FF3341F480119A4201DA002070BD40F2BD
:1005100033439A42A2F2334203DC5242FFF704FE15
:1005200000E090402C43F1D0404270BD01F0004308
:1005300030B421F0004150EA010206D00A0DA2F5C4
:100540006072C1F31301002A02DC30BC0020704746
:10055000440F44EAC104C100E01830BC00EBC250B3
:1005600000F00FB8202A04DB203A00FA02F1002044
:1005700070479140C2F1200320FA03F319439040E1
:1005800070470029A8BF7047401C490008BF20F0F1
:100590000100704710B4B0FA80FC00FA0CF050EA89
:1005A000010404BF10BC704749B1CCF1200421FA0A
:1005B00004F411FA0CF118BF012121430843A3EB05
:1005C0000C01CB1D4FEA00614FEA102042BF002012
:1005D00010BC704700EBC35010440029A4BF10BCEE
:1005E0007047401C490008BF20F0010010BC704754
:1005F00010B5141E73F1000408DA401C41F100012B
:1006000092185B411A4301D120F0010010BD2DE981
:10061000F04D92469B4611B1B1FA81F202E0B0FA78
:1006200080F220329046FFF79DFF04460F4640EAD5
:100630000A0041EA0B0153465A46084313D01146BB
:1006400053EA010019D0C8F140025046FFF76CFD93
:1006500005460E46504659464246FFF783FF08437B
:1006600005D0012004E020463946BDE8F08D002089
:10067000054346EAE0762C4337430A986305E40ACB
:10068000A0EB08000022FD0A44EA47540A3002D5D4
:1006900000200146E9E7010510196941DDE9084537
:1006A00000196941BDE8F04DA2E70000064C074D76
:1006B00006E0E06840F0010394E807009847103432
:1006C000AC42F6D3FFF716FD94300008B4300008B2
:1006D000FEE7704772B6FEE710B590F821100024CF
:1006E000022903D00421816301243DE001680A68E6
:1006F00022F00E020A6001680A6822F001020A6014
:100700001A4A0168914201D1012121E0174A1432AD
:10071000914201D110211BE0144A2832914201D1AB
:10072000891515E0114A3C32914201D189140FE03C
:100730000E4A5032914202D14FF4803108E00B4A08
:100740006432914202D14FF4801101E04FF0807188
:10075000064A083A5160012180F82110002180F8F2
:100760002010416B01B18847204610BD08000240AF
:1007700070B5044600F002F90546601C02D004483A
:100780000078044400F0FAF8401BA042FAD370BD90
:10079000040000202DE9F84FDFF8A491002409F1AE
:1007A000040A0AF1040B23464FF00F080BF1040E64
:1007B000BEE00127A7403A40BA4272D1DFF884C1B7
:1007C0004D68A5EB0C0665452BD00DDC032D34D010
:1007D00005DC35B3012D19D0022D2FD11BE0112DD1
:1007E00016D0122D2AD119E0B6F5881F19D006DCD3
:1007F000B6F5803F15D0B6F5801F1FD111E0B6F5D4
:10080000001F0ED0B6F5041F18D10AE0CB6815E022
:10081000CB681B1D12E0CB6808330FE0CB680C33AC
:100820000CE08B682BB1012B4FF0080303D047611C
:1008300004E0042302E0076100E00023FF2A01D85E
:10084000064601E000F104064FEA840501D9A5F14E
:100850002005376808FA05FC27EA0C0703FA05F5B6
:1008600047EA050737604D68ED0060D5364DAE6943
:1008700046F00106AE61AD6924F0030605F00105FE
:100880000095324D7719BE68A5072D0F08FA05FCB3
:1008900026EA0C06DFF8B8C0604503D14FF0000C23
:1008A00017E044E0DFF8ACC0604502D14FF0010C26
:1008B0000FE0DFF8A4C0604502D14FF0020C08E061
:1008C000DFF898C0604502D14FF0030C01E04FF013
:1008D000040C0CFA05FC4CEA060CC7F808C04D687D
:1008E000D9F80060ED034D4601D5164300E096436C
:1008F0002E604D68DAF80060AD03554601D5164309
:1009000000E096432E604D68DBF80060ED025D4626
:1009100001D5164300E096432E604D68DEF8006076
:10092000AD02754601D5164300E096432E60641C67
:100930000A6832FA04F57FF43CAFBDE8F88F000096
:1009400000040140000011100010024000000140AE
:1009500000080140000C014000100140001401405B
:10096000C26821EA02030A4043EA0241016170477A
:100970000AB1016170470904FBE700000148806883
:10098000704700000400002002488168027811448A
:100990008160704704000020074810B5016841F0ED
:1009A00010010160032000F079F8002000F006F843
:1009B00000F024F8002010BD0020024070B50D4D5D
:1009C00004464FF47A712878B1FBF0F00A490968BF
:1009D000B1FBF0F000F004FB48B9102C07D2002264
:1009E0002146501E00F03AF800206C6070BD0120D6
:1009F00070BD000004000020100000200E4808B563
:100A0000816941F001018161816901F00101009179
:100A1000C16941F08051C161C06900F0805000900F
:100A2000052000F03BF80549486820F0E06040F000
:100A30000070486008BD0000001002400000014046
:100A4000002809DB00F01F020121914040098000CD
:100A500000F1E020C0F8001170470000F0B40E4B28
:100A60001B68C3F30223C3F10704042C00D9042438
:100A70001D1D072D01D2002300E0DB1E012606FA12
:100A800004F56D1E0D409D409E40761E164045EAC1
:100A90000601F0BC01F0EDBE0CED00E0064A00F0EE
:100AA000070110684FF6FF03184040EA0120034990
:100AB00008431060704700000CED00E00000FA05EC
:100AC000BFF34F8F05480168054A01F4E061114307
:100AD0000160BFF34F8F00BFFDE700000CED00E0A9
:100AE0000400FA052DE9F0470D46040067D0DFF851
:100AF0001881D8F8000000F00700A8420CD2D8F8FE
:100B0000001021F007012943C8F80010D8F80000B0
:100B100000F00700A84252D120683C4E810712D550
:100B2000400703D5706840F4E060706020780007EB
:100B300003D5706840F4605070607068A16820F060
:100B4000F000084370602078C00727D06068012853
:100B500010D03168022810D0890700292FDA716877
:100B600021F0030101437160FFF708FF074641F2DE
:100B700088390CE031688903EFE78901EDE7FFF779
:100B8000FDFEC11B494502D90320BDE8F08770680E
:100B9000616800F00C00B0EB810FF0D1D8F80010C4
:100BA000404601F00701A9420BD9016821F0070175
:100BB00029430160006800F00700A84201D001202D
:100BC000E3E72078400705D57068E16820F4E0602D
:100BD000084370602078000706D57068216920F40A
:100BE000605040EAC100706000F038F87168084A4F
:100BF000C1F30311515CC84006490860064800680B
:100C0000FFF7DCFE0020C0E7002002400010024099
:100C10007C3000081000002008000020044805492E
:100C200000684968044AC1F30221515CC84070471A
:100C300010000020001002408C30000804480549D4
:100C400000684968044AC1F3C221515CC84070473A
:100C500010000020001002408C30000812A085B067
:100C60000FC88DE80F0014A0144B00680490596859
:100C7000134801F00C02042A10D0082A0ED1C1F347
:100C80008342C9031DF802000AD5596804AAC1F3BA
:100C90004041515C0A4A5043B0FBF1F005B0704747
:100CA00008494843FAE7000002030405060708095B
:100CB0000A0B0C0D0E0F1010010200000010024074
:100CC00000127A0000093D002DE9F84F04006FD0B2
:100CD0002078BE4DC00747D06868C0F38100012866
:100CE00007D06868C0F38100022809D16868C00392
:100CF00006D52868800337D560680028E7D033E040
:100D00006068B0F5803F0BD010B1B0F5A02F11D0C6
:100D1000286820F480302860286820F4802002E0D1
:100D2000286840F480302860606888B1FFF726FEAC
:100D3000064609E0286840F480202860F0E7FFF7C5
:100D40001DFE801B642873D828688003F7D50BE04C
:100D5000FFF714FE064604E0FFF710FE801B642830
:100D6000F1D828688003F7D42078DFF86482800700
:100D70004FF0010A4FF0000939D5686810F00C0FE8
:100D800007D06868C0F38100022809D16868C003F1
:100D900006D42868800714D52069012808D110E0FE
:100DA0002069B0B1C8F800A0FFF7E8FD064605E0ED
:100DB00007E1FFF7E3FD801B0228C4D828688007FD
:100DC000F7D52868616920F0F80040EAC100286082
:100DD0000DE0C8F80090FFF7D1FD064604E0FFF7EC
:100DE000CDFD801B022823D828688007F7D42078FF
:100DF00000072CD57748A169D9B1C0F800A0FFF74A
:100E0000BDFD064604E0FFF7B9FD801B02280FD8A0
:100E1000686A8007F7D570484FF4FA510068B0FB54
:100E2000F1F0009000BF0098411E0091FAD20EE050
:100E30007CE0C0F80090FFF7A1FD064604E0FFF754
:100E40009DFD801B022871D8686A8007F7D420783E
:100E500040075BD5E8690027C00008D4E86940F086
:100E60008050E861E869012700F0805000905B48FD
:100E70000168C90511D40168834641F4807101609D
:100E8000FFF77CFD064604E0FFF778FD801B642831
:100E90004CD8DBF80000C005F6D5E06801280AD080
:100EA00008B1052813D0286A20F001002862286ABA
:100EB00020F0040002E0286A40F001002862E068A7
:100EC00041F2883B88B1FFF759FD064609E0286AE0
:100ED00040F004002862EEE7FFF750FD811B594502
:100EE0005BD8286A8007F7D50BE0FFF747FD064679
:100EF00004E0FFF743FD811B59454ED8286A80075F
:100F0000F7D41FB1E86920F08050E861E069A8B328
:100F10006968C1F38101022946D00228484606D0FB
:100F2000C8F86000FFF72AFD044639E035E047467F
:100F3000C8F86000FFF722FD064604E0FFF71EFD3B
:100F4000801B022829D828688001F7D4206AB0F5D0
:100F5000803F05D16868A16820F4003008436860CC
:100F6000D4E908010843696821F4741108436860F2
:100F7000C7F860A0FFF702FD044605E023E0FFF795
:100F8000FDFC001B022808D828688001F7D51AE06C
:100F9000FFF7F4FC001B022802D90320BDE8F88FFC
:100FA00028688001F4D40EE00128F7D06868226A2E
:100FB00000F48031914204D1616A00F470108842DB
:100FC00001D00120EAE70020E8E70000001002401D
:100FD00000004242800442421000002000700040A5
:100FE00010B5401EB0F1807F01D3012010BD4FF03D
:100FF000E02460610F21601701F03BFC0020A0613C
:1010000007202061002010BD7047704710B590F890
:101010003C20012A22D0012280F83C20CA688C683A
:1010200022F4407222434C6822F4806222430C680E
:1010300022F4006222430C6922F4805222434C695C
:1010400022F400522243C969002322F480420A4359
:1010500001684A6480F83C30002010BD022010BDB9
:1010600070B590F83C20012A26D0012580F83C502C
:10107000022280F83D2002685368946823F07006CD
:101080000B68334353600D4B02689A4208D0B2F1AB
:10109000804F05D00A4B9A4202D00A4B9A4204D1A3
:1010A000496824F080031943916080F83D50002185
:1010B00080F83C10084670BD022070BD002C014035
:1010C000000400400008004010B5040003D094F86C
:1010D0003D0010B107E0012010BD002084F83C0065
:1010E000204600F01FF8022084F83D00211D2068F2
:1010F00001F08CF9012084F8460084F83E0084F861
:101100003F0084F8400084F8410084F8420084F8ED
:10111000430084F8440084F8450084F83D00002032
:1011200010BD000008B500680B49884212D10B4879
:10113000C16941F00201C161C069002200F00200F2
:10114000009001211D20FFF789FCBDE808401D200B
:10115000FFF776BC08BD000000040040001002400C
:1011600090F83D10012901D001207047022180F83C
:101170003D100168CA6842F00102CA6000680B496C
:10118000884208D0B0F1804F05D00949884202D08A
:101190000849884204D1816801F00701062903D07B
:1011A000016841F00101016000207047002C0140FE
:1011B000000400400008004070B5044690F83C0070
:1011C000012817D0012584F83C50022084F83D0006
:1011D0002068826822F0770222F47F4282600868E9
:1011E000502830D00DDC20284DD005DC98B31028D5
:1011F0003BD148E0022070BD302844D0402834D193
:1012000039E0602828D0702806D0B0F5805F2CD057
:10121000B0F5005F29D10AE0CB68D1E9012120684F
:1012200001F037F92068816841F0770109E0CB6867
:10123000D1E90121206801F02CF92068816841F48E
:101240008041816011E0CA684968206801F0DCF9DA
:101250005021206807E016E0CA684968206801F05C
:10126000E4F96021206801F01EF984F83D50002067
:1012700084F83C0070BDCA684968206801F0C4F970
:1012800040212068EFE7226801461046EBE72DE990
:10129000F0410D46040003D094F83D0018B108E079
:1012A0000120BDE8F081002084F83C00204600F0D9
:1012B00041F8022084F83D002068816844F207026A
:1012C00091438160211D206801F0A0F820688168A9
:1012D0008269066A2B68AF690B4340F203318A4387
:1012E00042EA0722A968EF6911434FF6FC42914395
:1012F000EA6841EA07210A4329692F6A090141EA9C
:10130000073111436A686D6926F0220646EA051521
:101310002A4383602068816154F8460B02620120F1
:1013200004F81F09E0752076E0762077A07500208C
:10133000B7E7000000B585B000210091019102914E
:10134000039101682148B1F1804F22D0204A914297
:101350001DD1C16941F00401C161C16901F00401FD
:101360000491816941F0080181618069694600F05A
:1013700008000490C02000901648FFF70BFA0022E6
:1013800003211E20FFF76AFB1E20FFF759FB05B063
:1013900000BDC16941F00101C161C16901F00101F4
:1013A0000491816941F0040181618069694600F01E
:1013B00004000490032000900748FFF7EBF9002297
:1013C00003211C20FFF74AFB1C20DEE7001002402F
:1013D00000080040000C01400008014070B590F882
:1013E0003E50044690F83F3090F8422090F8430079
:1013F000022621B104290BD0012D16D10FE0012DB9
:1014000013D1012A11D184F83E6084F8426016E0BD
:10141000012B0AD1012808D184F83F600DE0012B8F
:1014200003D1012A01D1012801D0012070BD84F827
:101430003E6084F83F6084F8426084F8436091B174
:10144000042904D001220021206801F015F80122AE
:101450000421206801F010F82068016841F00101C2
:101460000160002070BD012200212068F2E7704772
:1014700070B50446006801694FF00005C94389074B
:1014800015D4C168C943890711D4E91E016101203F
:101490002077206880698007204602D0FFF7E7FFA9
:1014A00004E000F0BFF8204600F062F925772068DC
:1014B0000169C943490717D4C168C943490713D40F
:1014C0006FF004010161022020772068806910F428
:1014D000407F204602D0FFF7CAFF04E000F0A2F8E8
:1014E000204600F045F9257720680169C9430907BE
:1014F00016D4C168C943090712D46FF0080101610D
:10150000042020772068C0698007204602D0FFF7BA
:10151000AEFF04E000F086F8204600F029F92577B8
:1015200020680169C943C90617D4C168C943C906FF
:1015300013D46FF010010161082020772068C06982
:1015400010F4407F204602D0FFF791FF04E000F046
:1015500069F8204600F00CF9257720680169C94335
:10156000C90708D1C168C943C90704D1891E0161EF
:10157000204600F087F920680169C943090609D4AB
:10158000C168C943090605D46FF080010161204696
:10159000FFF73AFD20680169C943490609D4C168CB
:1015A000C943490605D46FF040010161204600F0AF
:1015B000CBF920680169C94389060BD4C168C943C6
:1015C000890607D46FF0200101612046BDE8704014
:1015D000FFF71BBD70BD000000B585B00021009174
:1015E00001910291039100680B49884212D10B4886
:1015F000816941F0040181618069694600F004005D
:1016000004904FF410600090022001900390044871
:10161000FFF7C0F805B000BD002C014000100240EB
:1016200000080140704770B5044690F83C000D4634
:1016300001280AD0012084F83C0042B1042A18D0C5
:10164000082A2AD00C2A4DD139E0022070BD20682A
:1016500000F032FF2068816941F008018161206853
:10166000816921F004018161206881692A6911433F
:1016700011E0206800F04CFF2068816941F40061AE
:1016800081612068816921F48061816120688169BC
:101690002A6941EA0221816124E0206800F066FFA6
:1016A0002068C16941F00801C1612068C16921F069
:1016B0000401C1612068C1692A69114311E02068F1
:1016C00000F080FF2068C16941F40061C1612068B9
:1016D000C16921F48061C1612068C1692A6941EA58
:1016E0000221C161002084F83C0070BD10B50400E7
:1016F00003D094F83D0010B107E0012010BD002098
:1017000084F83C00204600F01FF8022084F83D00D9
:10171000211D206800F07AFE012084F8460084F83C
:101720003E0084F83F0084F8400084F8410084F8CB
:10173000420084F8430084F8440084F8450084F8AB
:101740003D00002010BD000008B500680649884231
:1017500008D10648816941F400618161806900F423
:101760000060009008BD0000002C01400010024005
:101770007047000010B5044649B104290AD0082971
:101780000BD094F8410001280AD0012010BD94F834
:101790003E00F8E794F83F00F5E794F84000F2E7E0
:1017A000022041B3042929D008292AD084F8410015
:1017B0000122206800F060FE13492068884203D1AE
:1017C000426C42F4004242642068884208D0B0F182
:1017D000804F05D00D49884202D00D49884204D17E
:1017E000816801F00701062903D0016841F0010179
:1017F0000160002010BD84F83E00D9E784F83F0066
:10180000D6E784F84000D3E7002C014000040040F4
:101810000008004030B504460D460068002200F084
:101820002BFE174A41F2111120688B10904209D10A
:10183000026A0A4206D1026A1A4203D1426C22F4B9
:10184000004242642068026A0A4206D1016A1942D3
:1018500003D1016821F00101016001203DB1042D97
:1018600008D0082D09D084F84100002030BD84F84C
:101870003E00FAE784F83F00F7E784F84000F4E719
:10188000002C01402DE9F041274988424AD12748E0
:1018900001F070FA264C2081264801F06BFA404294
:1018A00001B26181B4F90820E0684FF4DD661044AC
:1018B000E06090FBF6F0226955182561FEF7EDFD1A
:1018C0001D4FDFF878803A464346FEF7F7FCFEF7F7
:1018D0002DFE606195FBF6F0FEF7DFFD3A464346CC
:1018E000FEF7ECFCFEF722FEA06115480078012807
:1018F00004D101F033FBFEF7E1FDE063114800780D
:10190000012804D101F058FBFEF7D8FD20640849F6
:101910004031081F01F01AF8D4E90F01BDE8F04189
:1019200001F02AB8BDE8F08100010020B8000020D5
:101930001800002048010020083D9B559F6B344053
:1019400014000020150000207047704770B5026831
:1019500004461068D168536910F00F0F52D003F09D
:10196000010501F490762E435FD0C20705D0CA0569
:1019700003D5E26B42F00102E263420705D5DA07C4
:1019800003D0E26B42F00202E263820705D5DA0778
:1019900003D0E26B42F00402E263020707D501F0D4
:1019A00020022A4303D0E26B42F00802E263E26BBA
:1019B000002A33D0800604D5880602D5204600F0E0
:1019C0005CFE20684069E16BC0F38010090700D419
:1019D00028B3204600F043FE2068416949061AD525
:1019E000416921F040014161606BA0B12D49416323
:1019F000606BFEF771FE002810D0606B416BBDE894
:101A000070400847830610D58B060ED52046BDE8EA
:101A1000704000F032BE2046FFF797FF70BD2046B1
:101A2000FFF793FF0020E06370BD03062BD50B0684
:101A300029D594F839002128F6D1A068B0F5805F47
:101A400001D12069B0B1206A411C2162216800786F
:101A50004860E08C401E0004000CE084E4D1206863
:101A6000C16821F08001C1602068C16841F0400177
:101A7000C16070BD206A0088C0F308005060206A11
:101A8000801C2062E5E74006F3D54806F1D5D16811
:101A9000204621F04001D160202184F8391000F067
:101AA00037F970BD4F26000870B5040004D094F8D3
:101AB0003900002510B106E0012070BD84F83850CF
:101AC000204600F023F8242084F839002068C168FB
:101AD00021F40051C160204600F016FE2068016923
:101AE00021F4904101612068416921F02A0141619E
:101AF0002068C16841F40051C160E563202084F88A
:101B0000390084F83A00002070BD000070B586B03E
:101B10000024009401940294039400682D4E2E49F1
:101B2000022203232D4DB04226D1886940F4804023
:101B30008861886900F480400490886940F004005E
:101B400088618869039300F0040004904815CDE98A
:101B5000000269462846FEF71DFE2815CDE900045F
:101B6000694628460294FEF715FE00220221252030
:101B7000FEF774FF252028E0194EB04227D1C8692E
:101B800040F40030C861C86900F4003004908869EE
:101B900040F0040088618869694600F00400049000
:101BA0000420CDE9000203932846FEF7F3FD082048
:101BB000CDE90004694628460294FEF7EBFD0022B9
:101BC00001212620FEF74AFF2620FEF739FF06B046
:101BD00070BD0000003801400010024000080140C4
:101BE0000044004090F83A30202B22D1F9B1F2B1F4
:101BF00090F83830012B1CD081628285C28500218B
:101C0000C163222280F83A2080F838100168CA683F
:101C100042F48072CA6001684A6942F001024A6176
:101C20000068C16841F02001C160002070470120B8
:101C30007047022070470000074910B588420AD15A
:101C40000648007800F042FEBDE81040012203493A
:101C50000148FFF7C7BF10BDD001002000000020E1
:101C60002DE9F843044690F839001F4615460E4604
:101C700020284BD1C6B1BDB194F83800012845D019
:101C8000012084F838004FF00008C4F83C8021207F
:101C900084F83900FEF772FEA5848146E584A068C9
:101CA000B0F5805F03D004E00120BDE8F88320692F
:101CB00020B13546002684F838800EE00025FAE78A
:101CC0008021204600F07CFDA0B9ADB115F8010BD4
:101CD00021684860E08C401EE084E08C4B464FF069
:101CE000000200970028EBD14FF04001204600F0A1
:101CF00067FD30B10320D8E736F8020BC0F30800C7
:101D0000E6E7202084F839000020CEE70220CCE767
:101D10007047FEE770B501220E4D54022146284659
:101D2000FEF726FE0122160231462846FEF720FE67
:101D300000F048F8002221462846FEF719FE00F080
:101D400041F8002231462846FEF712FEBDE87040F9
:101D500000F038B8000C014070B50B4D4FF4007422
:101D6000002221462846FEF703FE012211022846E2
:101D7000FEF7FEFD00F026F821462846BDE870403B
:101D80000122FEF7F5BD0000000C014070B50C4CBF
:101D9000012251022046FEF7EBFD00F013F801226C
:101DA000150229462046FEF7E3FD00F00BF800225D
:101DB00029462046FEF7DCFDBDE8704000F002B881
:101DC000000C01400320401EC0B2FCD2704700004E
:101DD0002DE9F04186B000243D480094019402941E
:101DE0000394816941F010018161816901F0100162
:101DF0000491816941F020018161816901F0200134
:101E00000491816941F004018161816901F004015B
:101E10000491816941F0080181618069012200F02B
:101E200008002C4F5503049029463846FEF7A0FDC4
:101E3000DFF8A48000224FF473414046FEF798FD7E
:101E4000012218214046FEF793FD00950226012548
:101E50000396CDE9015469463846FEF79BFCE8033A
:101E6000CDE90004694638460294FEF793FC7020E1
:101E7000CDE90004694619480294FEF78BFC03275C
:101E8000009769464046CDE90145FEF783FC4FF2D5
:101E90001800CDE90005CDE9024669464046FEF747
:101EA00079FC28021125CDE90005CDE902476946F4
:101EB0004046FEF76FFC3002CDE90005CDE9024651
:101EC00069464046FEF766FC06B0BDE8F0810000BA
:101ED0000010024000100140000C014000080140C9
:101EE00010B592B000240F941C2168461094FEF7A0
:101EF00044F9202107A8FEF740F924482249C0E907
:101F0000001441F61F41C0E9024180210461C0E98B
:101F10000541FFF7EBFB08B1FEF7DCFB0F940FA9BF
:101F20001A481094FFF79CF808B1FEF7D3FB602025
:101F3000CDE90004029403940494059400226946B8
:101F400012480694FFF76FFB08B1FEF7C3FB0C22A3
:101F500069460E48FFF767FB08B1FEF7BBFB079425
:101F6000089409944FF400500A94CDE90B4007A956
:101F700006480E94FFF74AF808B1FEF7ABFB03489A
:101F8000FFF72AFB12B010BD002C014070000020AA
:101F900010B58CB024216846FEF7EFF800241548F0
:101FA00009944FF080410A94C0E900144FF6FF7184
:101FB000C0E90241046184610320CDE900040120ED
:101FC000CDE902040494CDE9054007946946094827
:101FD0000894FFF75CF908B1FEF77CFB099409A9A6
:101FE00004480A94FFF73CF8002801D0FEF772FB82
:101FF0000CB010BDB800002010B586B00024174802
:10200000009401940294039404941349059401608C
:1020100041F61F41C0E90114C721C0E903148461DE
:10202000FFF752F808B1FEF755FB4FF480500090CF
:1020300069460A48FFF7C0F808B1FEF74BFB049465
:1020400004A906480594FFF70BF8002801D0FEF715
:1020500041FB06B010BD000000040040000100205C
:1020600010B58CB024216846FEF787F80024164886
:10207000099414490A94C0E900144FF6FF71C0E9AD
:102080000241046184610320CDE900040120CDE90F
:1020900002040494CDE90540079469460A4808946F
:1020A000FFF7F5F808B1FEF715FB099409A90648F2
:1020B0000A94FEF7D5FF002801D0FEF70BFB0CB009
:1020C00010BD000000080040480100200C4810B579
:1020D0000A4901604FF4E1314160002181600C2226
:1020E000C160C0E904128161C161FFF7DDFC002815
:1020F00003D0BDE81040FEF7EDBA10BD0038014036
:10210000900100200C4810B50A4901604FF4E131FC
:102110004160002181600C22C160C0E9041281612C
:10212000C161FFF7C1FC002803D0BDE81040FEF7F5
:10213000D1BA10BD00440040D0010020FEE7FEE708
:1021400030B40021084B0A46002003EBC004401CB9
:10215000C0B262548028F8D3491CC9B20829F3D30D
:1021600030BC00F095B800001002002028B1012812
:1021700006D10021A72000F0BDB80021A620FAE773
:10218000704710B558B1012810D10021C02000F0CF
:10219000B1F80021A020BDE8104000F0ABB800214C
:1021A000C82000F0A7F80021A120F4E710BD10B569
:1021B000C820FEF7DDFA0021AE2000F09BF80021D8
:1021C000084600F097F80021102000F093F8002155
:1021D000402000F08FF80021812000F08BF80021D2
:1021E000CF2000F087F80021A12000F083F8002123
:1021F000C82000F07FF80021A62000F07BF8002125
:10220000A82000F077F800213F2000F073F80021AB
:10221000D32000F06FF80021084600F06BF8002191
:10222000D52000F067F80021802000F063F800213D
:10223000D92000F05FF80021F12000F05BF80021C8
:10224000DA2000F057F80021122000F053F80021A6
:10225000DB2000F04FF80021302000F04BF8002187
:10226000202000F047F80021022000F043F8002170
:102270008D2000F03FF80021142000F03BF8FFF71C
:102280005FFF0021BDE81040AF2000F033B8000030
:1022900070B5174E002505F1B000C0B2002100F066
:1022A00029F80021084600F025F80021102000F050
:1022B00021F8FFF72FFD782000F03AF8FFF766FDD0
:1022C000402000F035F8FFF761FD002406EBC40064
:1022D000405D00F02DF8FFF759FD641CE4B2802C3E
:1022E000F4D3FFF739FD6D1CEDB2082DD3D370BDCB
:1022F0001002002070B50C460546FFF70BFD782054
:1023000000F016F8FFF742FD0CB1402000E000207D
:1023100000F00EF8FFF73AFD284600F009F8FFF745
:1023200035FDBDE87040FFF717BD704770470000EE
:102330002DE9F041124F002405464FF40078BE15F8
:10234000280601D5012200E0002241463846FEF76A
:102350000FFBFFF737FD012231463846FEF708FB39
:10236000FFF730FD002231463846FEF701FB6806D4
:10237000641C050EE4B2082CE2D3BDE8F081000035
:10238000000C0140FEF700BB30B58FB02821684635
:10239000FDF7F3FE14210AA8FDF7EFFE012001046A
:1023A00000248DE8130004904FF4E010CDE90810EC
:1023B000022507956846FEF787FC08B172B6FEE76E
:1023C0000F20CDE90A054FF48060CDE90C400221D1
:1023D0000AA80E94FEF786FB002801D072B6FEE72D
:1023E0000FB030BD704700000148FFF741B8000052
:1023F000B80000200148FFF73BB8000000010020B2
:102400000148FFF735B8000048010020F0B5026828
:10241000164C174D174E4FF08047A04205D0B842DA
:1024200003D0A84201D0B04203D122F070034A6821
:102430001A43A04205D0B84203D0A84201D0B0420E
:1024400003D122F44073CA681A434B6922F0800218
:102450001A4302608A68C2620A688262A04201D19D
:102460000969016301214161F0BD0000002C0140B8
:10247000000400400008004010B501F01F010123D6
:10248000046A8B409C430462036A8A4013430362DC
:1024900010BD10B5846842EA032224F47F440A4345
:1024A0002243826010BD826822F070020A4342F02B
:1024B000070181607047000030B5026A22F0010216
:1024C0000262036A4268846924F073050C682C4335
:1024D00023F002058B682B430C4DA84206D123F054
:1024E0000805CB6843EA050323F0040307D14D69CF
:1024F00022F4407245EA02058A6942EA0502426016
:10250000846149684163036230BD0000002C0140D2
:1025100030B5026A22F010020262026A43688469DE
:102520000D6824F4E64444EA05248D6822F0200274
:1025300042EA05120C4DA84206D1CD6822F0800275
:1025400042EA051222F0400207D14D6923F44063AC
:1025500043EA85038D6943EA8503436084614968E2
:102560008163026230BD0000002C014030B5026A78
:1025700022F480720262036A4268C46923F4007321
:1025800024F073050C682C438D6843EA05230C4D39
:10259000A84206D1CD6823F4006343EA052323F45F
:1025A000806307D14D6922F4405242EA05128D69D9
:1025B00042EA05124260C4614968C163036230BDEA
:1025C000002C014030B5026A22F480520262036A94
:1025D0004268C4690D6824F4E64444EA05248D6821
:1025E00023F4005343EA0533064DA84204D14D6954
:1025F00022F4804242EA85124260C4614968016463
:10260000036230BD002C014010B5046A036A23F058
:1026100001030362836923F0F00343EA021324F009
:102620000A020A438361026210BD10B5036A23F0F7
:10263000100303628469036A24F4704444EA02329A
:1026400023F0A00343EA01118261016210BD10B5BD
:10265000406A0021C185C184FFF777F910BD016888
:10266000CA6822F49072CA6001684A6922F00102C5
:102670004A61202180F83A10704710B590F83A105E
:10268000222901D0022010BD81684FF48053994265
:1026900001D1026922B1826A99421BD049B10AE094
:1026A0000268816A5268C2F308020A80816A891C42
:1026B00008E0016971B10168496801F07F0111709A
:1026C000816A491C8162C18D491E0904090CC185BA
:1026D00003D016E001684968F1E70168CA6822F092
:1026E0002002CA600168CA6822F48072CA60016868
:1026F0004A6922F001024A61202180F83A10FFF76E
:102700009BFA002010BD000070B504460068016906
:10271000E26821F4405111430161A168206901433D
:10272000606901432068C26841F20C639A430A431E
:10273000C26020684169A26921F44071114341617E
:102740001E492068884202D1FEF778FA01E0FEF7C0
:1027500065FA00EBC00101EB0011606864228000A3
:10276000B1FBF0F3B3FBF2F36FF018067343B1FB68
:10277000F0F5B1FBF0F605EB8305322303EB05150D
:10278000B5FBF2F5B6FBF2F605F0F00505EB061524
:10279000B1FBF0F6B1FBF0F0B0FBF2F06FF0180116
:1027A000484306EB800003EB0010B0FBF2F0216819
:1027B00000F00F002844886070BD00000038014020
:1027C0002DE9F0411E46174688460446069D1CE04A
:1027D000681C1AD025B1FEF7D1F8801BA84214D985
:1027E0002068C16821F4D071C1602068416921F07E
:1027F00001014161202084F8390084F83A0000206A
:1028000084F838000320BDE8F0812068016838EAC8
:10281000010004D00020B842DAD00020F3E7012004
:10282000F9E700000C4810B50068016801F00802E3
:102830000A498A704068487008480121401C00F02D
:1028400085F94FF400510648FEF78AF8BDE81040BC
:102850000148FFF77BB80000900100200000002035
:10286000001001400148FFF771B80000D0010020BE
:10287000FEE70907090E002804DB00F1E02080F8DC
:102880000014704700F00F0000F1E02080F8141DE4
:10289000704702E008C8121F08C1002AFAD1704729
:1028A0007047002001E001C1121F002AFBD17047D0
:1028B00003E011F8013B1844C0B2521ED2B2F8D264
:1028C0007047002800DC40427047000010B51C4CE7
:1028D000002123781B4A23B32378012B27D02378A8
:1028E000022B2BD16378D0545B1CD8B260700B28BC
:1028F00024D10020135C401C1944C0B2C9B20A287C
:10290000F8D3907A88420AD1D088FDF7C1FD6FF0E4
:102910000E01FDF7C7FC0C49FDF792FC606000203A
:102920000AE055280AD161785054012004E0532868
:1029300004D16178505402202070607010BD0000F6
:1029400068000020E80700200000344310B541F67D
:10295000583302685C429A4201DD036002E0A24201
:1029600000DA04600868984201DD0B6010BDA042E7
:10297000FCDA0C6010BD00002DE9F0410E461B4C46
:10298000051E4FF400514FF4805705DD002220460C
:10299000FDF7EEFF012204E001222046FDF7E8FFEB
:1029A000002239462046FDF7E3FF2846FFF789FF5E
:1029B0000F4D296808644FF480414F00002E05DD5B
:1029C00000222046FDF7D4FF012204E00122204628
:1029D000FDF7CEFF002239462046FDF7C9FF3046FD
:1029E000FFF76FFF29684863BDE8F081000C0140E4
:1029F00070000020FDF7D0FFFFF7C6FCFFF7E8F9F5
:102A0000FFF76EFAFFF7C4FAFFF72AFBFFF7F4FAB5
:102A1000FFF75CFBFFF776FB3C211D48FEF7DEFC71
:102A20003C211C48FEF7DAFC1948FEF799FB1948CF
:102A3000FEF796FB00F074FA00F07EFA0C211648BF
:102A4000FEF798FE00211448FEF794FE1348FEF7A7
:102A500087FB00F02FF812480068C16841F02001A0
:102A6000C16001220F491048FFF7BCF800F076F969
:102A7000FFF79DFB0020FFF779FB0020FFF781FBAC
:102A80000A49012008700A49087000F079F9FCE74A
:102A9000B800002048010020700000200001002044
:102AA0009001002000000020D00100201B00002029
:102AB00060000020204910B5002008604860886050
:102AC000C8601E4BC861C1E90430886140391C4CA4
:102AD000086048608860C8600C611A4AC861C1E932
:102AE00005206031086048608860C860C861C1E93D
:102AF000043088614039086048608860C8600C61B3
:102B0000C861C1E9052060310F4A086048608860EB
:102B1000C860C861C1E90420886120314FF081425A
:102B2000086048608860C860C861C1E904204FF04F
:102B30007E50886110BD0000D00600209A99993E11
:102B40000000C040000008419A99993F2DE9F041EA
:102B5000DFF84C80064640460C46B8F80610C3889D
:102B600000680A19D8F800701844802A0AD9C1F1FF
:102B700080018DB22A463146FDF7E6FA621B7119D3
:102B8000384601E022463146FDF7DEFA98F8061095
:102B9000214401F07F01A8F80610BDE8F081000093
:102BA0005C0700202DE9F34F81B06A4D00200090B2
:102BB0004FF0FF0AEB88AA882889802100F05CF991
:102BC00084B2092C6ED36889A94690BBB9F8046019
:102BD00080210020B346DFF880E1E71ED9F800200D
:102BE0002AE03318B3FBF1F501FB153512F805C0E7
:102BF0005D1CB5FBF1F801FB1855555D4CEA052C41
:102C00009D1CB5FBF1F801FB1855DB1CB3FBF1F87B
:102C100001FB1833555DD35C2D0445EA03634CEA90
:102C2000030CF44506D13044B0FBF1F201FB120075
:102C300006E017E0401C80B2B842D2DB4FF0FF3014
:102C400000B2002813DB0122A9F80A2082B2A9F8F9
:102C50000420B9F80630B9F80800802100F00CF91A
:102C600009281FDBB9F808004D4660B11DE0E41EDD
:102C70000BEB0400C21700EB526222F07F02801AB5
:102C8000A9F804000EE028792968421D801D02F091
:102C90007F0200F07F008A5C085C42EA0020288105
:102CA000A04202D95046BDE8FE8F82B2A888111812
:102CB000491E8029296801440CDDC0F18000C2B2A0
:102CC0000098FFF7F5FD297A2A7911448139CAB2B3
:102CD000296802E0521ED2B20098FFF7E9FDA988E8
:102CE0002A892E688C18631EDF1703EB576727F0BD
:102CF0007F07DB1B9B5D834227D1802C0DD9C1F15F
:102D0000800084B2314422460198FDF71DFA2889DB
:102D10002968021B0198204401E031440198FDF725
:102D200013FA0298298901802879296800F109029B
:102D300002F07F0211F802A0297A084400F07F0017
:102D4000A880002028816881ACE7491C01F07F0041
:102D5000F6E700005C070020535A48590448002158
:102D6000016141611830A0F10C010860002070473A
:102D7000500700200168486A002200B24A6270478A
:102D8000F0B5A1B00020ADF88000451E20A968462E
:102D9000FFF708FF132863D006DC10280BD011289A
:102DA00040D0122804D158E014285CD01528EDD06A
:102DB00021B02846F0BD9DF80A009DF80D1040EAAC
:102DC00001679DF80C009DF80B10000440EA0120FB
:102DD00007439DF80E009DF8111040EA01669DF82A
:102DE00010009DF80F10000440EA012006439DF8F2
:102DF00012009DF81510324640EA01649DF8140057
:102E00009DF81310000440EA01200443234639468C
:102E1000164800F09DF8234632463946144800F023
:102E200097F8B3E79DF80A009DF80D109DF80B2068
:102E300040EA01609DF80C10090441EA02210843B0
:102E4000FDF71DFB0B4C01462060084800F084F89C
:102E50000748216800F080F898E700F061F895E7EE
:102E600000F052F892E7FDF72BFE8FE79006002066
:102E7000100700206400002010B504469A4201D8D3
:102E8000981A01E0881A184480B2844200D90020C0
:102E900010BD0000F8B50E46002115468DF8001053
:102EA0009906164A0C0E1449116004F10B01C2F880
:102EB0000510167150720A2210490020FFF7F8FC25
:102EC0008DF8000022462946FFF7F2FC0C4E8DF8E3
:102ED000000033460A2209490A48FEF7C1FE33467C
:102EE000224629460748FEF7BBFE334601226946C3
:102EF0000448FEF7B5FEF8BD535A48595007002064
:102F0000FFFF0F00900100200349002008700C21F2
:102F10000248FEF77FBC0000140000207000002073
:102F20000349012008700C210248FEF723BC000071
:102F30001400002070000020034901204870002187
:102F40000248FEF717BC00001400002070000020AB
:102F5000103080E80E0070470160704738B51148A6
:102F6000B0F90800FDF799FA00220F4BFDF7A6F91A
:102F700000220E4BFDF7A2F900220D4BFDF710FACF
:102F8000FDF7B5FA0090FDF77AFA0146094800F01E
:102F900039F8044601236A4619460220FFF77AFFF2
:102FA000204638BD1800002000408F4000004E40F1
:102FB0000044E140900600200D4810B5B0F90A0029
:102FC000FDF76BFA00220B4BFDF778F900220A4B54
:102FD000FDF774F90022094BFDF7E2F9FDF787FAD6
:102FE000FDF74DFA0146BDE81040054800F00AB86B
:102FF0001800002000408F4000004E400044E14097
:10300000B00600202DE9F04104460068FDF712F9F2
:10301000A060B0F17C5F04DAB0F13F4F01D2002034
:10302000A060E269054601461046FDF7B1F8114976
:10303000E061884202DA1049884200D9E1612846FD
:10304000E168FDF7F7F8A169FDF7FAF80646E169CE
:103050006069FDF7F5F8074629462069FDF7F0F8A5
:103060003946FDF795F83146FDF792F8E560606066
:10307000BDE8F08100007A4400007AC4000000003E
:103080000000000001020304060708090000000018
:1030900001020304B43000080000002070000000AA
:1030A000922800082431000870000020880B0000DE
:1030B000A22800080000000001000000100000002D
:1030C000000000000024F4000000000000000000E8
:1030D00000000000000000000000000000000000F0
:1030E00000000000000000000000000000000000E0
:1030F00000000000000000000000000000000000D0
:1031000000000000000000000000000000000000BF
:1031100000000000000000000000000000000000AF
:0431200000000000AB
:04000005080000ED02
:00000001FF
