:020000040800F2
:10000000300E002089010008DB1D0008A51900083A
:10001000D91D00087F030008152500080000000016
:10002000000000000000000000000000C91F0008E0
:100030008103000800000000C71F000821200008FD
:10004000A3010008A3010008A3010008A301000800
:10005000A3010008A3010008A3010008A3010008F0
:10006000A3010008A3010008A3010008A3010008E0
:10007000A3010008A3010008A3010008A3010008D0
:10008000A3010008A3010008A3010008A3010008C0
:10009000A3010008A3010008A3010008A3010008B0
:1000A000A3010008A3010008A3010008A3010008A0
:1000B00085200008912000089D200008A301000869
:1000C000A3010008A3010008A3010008A301000880
:1000D000A3010008C1240008FD2400080925000828
:1000E000A3010008A3010008A301000800F002F822
:1000F00000F03AF80AA090E8000C82448344AAF188
:100100000107DA4501D100F02FF8AFF2090EBAE885
:100110000F0013F0010F18BFFB1A43F0010318473B
:100120004C3400006C340000103A24BF78C878C109
:10013000FAD8520724BF30C830C144BF04680C60ED
:10014000704700000023002400250026103A28BF35
:1001500078C1FBD8520728BF30C148BF0B60704739
:100160001FB51FBD10B510BD00F0CFF81146FFF749
:10017000F7FF02F041FA00F0EDF803B4FFF7F2FFE9
:1001800003BC00F0F5F80000094880470948004723
:10019000FEE7FEE7FEE7FEE7FEE7FEE7FEE7FEE737
:1001A000FEE7FEE704480549054A064B7047000094
:1001B00081200008ED00000830080020300E0020EB
:1001C000300A0020300A0020032A40F2308010F06C
:1001D000030C00F0158011F8013BBCF1020F6244E2
:1001E00098BF11F801CB00F8013B38BF11F8013B73
:1001F000A2F1040298BF00F801CB38BF00F8013B20
:1002000011F0030300F04F80083AC0F0088051F865
:10021000043B083A51F804CBA0E80810F5E7121D9A
:100220005CBF51F8043B40F8043BAFF30080D207B9
:1002300024BF11F8013B11F801CB48BF11F8012B85
:1002400024BF00F8013B00F801CB48BF00F8012BA8
:1002500070474FF0000200B5134694469646203989
:1002600022BFA0E80C50A0E80C50B1F12001BFF46F
:10027000F7AF090728BFA0E80C5048BF0CC05DF8D5
:1002800004EB890028BF40F8042B08BF704748BF23
:1002900020F8022B11F0804F18BF00F8012B704797
:1002A00070477047704710B5203AC0F00B80B1E836
:1002B0001850203AA0E81850B1E81850A0E818509B
:1002C000BFF4F5AF5FEA027C24BFB1E81850A0E8A4
:1002D000185044BF18C918C0BDE810405FEA827CBE
:1002E00024BF51F8043B40F8043B08BF7047D207D5
:1002F00028BF31F8023B48BF11F8012B28BF20F876
:10030000023B48BF00F8012B7047754600F02CF8FF
:10031000AE4605006946534620F00700854618B0F2
:1003200020B5FFF73FFFBDE820404FF000064FF03B
:1003300000074FF000084FF0000B21F00701AC461A
:10034000ACE8C009ACE8C009ACE8C009ACE8C00939
:100350008D46704710B50446AFF300802046BDE8D7
:100360001040FFF70ABF000000487047CC0700208C
:1003700001491820ABBEFEE7260002007047FEE7E9
:10038000704772B6FEE7000010B590F82110002407
:10039000022903D00421816301243DE001680A6839
:1003A00022F00E020A6001680A6822F001020A6067
:1003B0001A4A0168914201D1012121E0174A143201
:1003C000914201D110211BE0144A2832914201D1FF
:1003D000891515E0114A3C32914201D189140FE090
:1003E0000E4A5032914202D14FF4803108E00B4A5C
:1003F0006432914202D14FF4801101E04FF08071DC
:10040000064A083A5160012180F82110002180F845
:100410002010416B01B18847204610BD0800024002
:1004200070B5044600F002F90546601C02D004488D
:100430000078044400F0FAF8401BA042FAD370BDE3
:10044000040000202DE9F84FDFF8A491002409F101
:10045000040A0AF1040B23464FF00F080BF1040EB7
:10046000BEE00127A7403A40BA4272D1DFF884C10A
:100470004D68A5EB0C0665452BD00DDC032D34D063
:1004800005DC35B3012D19D0022D2FD11BE0112D24
:1004900016D0122D2AD119E0B6F5881F19D006DC26
:1004A000B6F5803F15D0B6F5801F1FD111E0B6F527
:1004B000001F0ED0B6F5041F18D10AE0CB6815E076
:1004C000CB681B1D12E0CB6808330FE0CB680C3300
:1004D0000CE08B682BB1012B4FF0080303D0476170
:1004E00004E0042302E0076100E00023FF2A01D8B2
:1004F000064601E000F104064FEA840501D9A5F1A2
:100500002005376808FA05FC27EA0C0703FA05F509
:1005100047EA050737604D68ED0060D5364DAE6996
:1005200046F00106AE61AD6924F0030605F0010551
:100530000095324D7719BE68A5072D0F08FA05FC06
:1005400026EA0C06DFF8B8C0604503D14FF0000C76
:1005500017E044E0DFF8ACC0604502D14FF0010C79
:100560000FE0DFF8A4C0604502D14FF0020C08E0B4
:10057000DFF898C0604502D14FF0030C01E04FF066
:10058000040C0CFA05FC4CEA060CC7F808C04D68D0
:10059000D9F80060ED034D4601D5164300E09643BF
:1005A0002E604D68DAF80060AD03554601D516435C
:1005B00000E096432E604D68DBF80060ED025D467A
:1005C00001D5164300E096432E604D68DEF80060CA
:1005D000AD02754601D5164300E096432E60641CBB
:1005E0000A6832FA04F57FF43CAFBDE8F88F0000EA
:1005F0000004014000001110001002400000014002
:1006000000080140000C01400010014000140140AE
:10061000C26821EA02030A4043EA024101617047CD
:100620000AB1016170470904FBE7000001488068D6
:1006300070470000040000200248816802781144DD
:100640008160704704000020074810B5016841F040
:1006500010010160032000F079F8002000F006F896
:1006600000F024F8002010BD0020024070B50D4DB0
:1006700004464FF47A712878B1FBF0F00A49096812
:10068000B1FBF0F000F004FB48B9102C07D20022B7
:100690002146501E00F03AF800206C6070BD012029
:1006A00070BD000004000020100000200E4808B5B6
:1006B000816941F001018161816901F001010091CD
:1006C000C16941F08051C161C06900F08050009063
:1006D000052000F03BF80549486820F0E06040F054
:1006E0000070486008BD000000100240000001409A
:1006F000002809DB00F01F02012191404009800021
:1007000000F1E020C0F8001170470000F0B40E4B7B
:100710001B68C3F30223C3F10704042C00D904248B
:100720001D1D072D01D2002300E0DB1E012606FA65
:1007300004F56D1E0D409D409E40761E164045EA14
:100740000601F0BC01F0E7BE0CED00E0064A00F047
:10075000070110684FF6FF03184040EA01200349E3
:1007600008431060704700000CED00E00000FA053F
:10077000BFF34F8F05480168054A01F4E06111435A
:100780000160BFF34F8F00BFFDE700000CED00E0FC
:100790000400FA052DE9F0470D46040067D0DFF8A4
:1007A0001881D8F8000000F00700A8420CD2D8F851
:1007B000001021F007012943C8F80010D8F8000004
:1007C00000F00700A84252D120683C4E810712D5A4
:1007D000400703D5706840F4E0607060207800073F
:1007E00003D5706840F4605070607068A16820F0B4
:1007F000F000084370602078C00727D060680128A7
:1008000010D03168022810D0890700292FDA7168CA
:1008100021F0030101437160FFF708FF074641F231
:1008200088390CE031688903EFE78901EDE7FFF7CC
:10083000FDFEC11B494502D90320BDE8F087706861
:10084000616800F00C00B0EB810FF0D1D8F8001017
:10085000404601F00701A9420BD9016821F00701C8
:1008600029430160006800F00700A84201D0012080
:10087000E3E72078400705D57068E16820F4E06080
:10088000084370602078000706D57068216920F45D
:10089000605040EAC100706000F038F87168084AA2
:1008A000C1F30311515CC84006490860064800685E
:1008B000FFF7DCFE0020C0E70020024000100240ED
:1008C00052350008100000200800002004480549A7
:1008D00000684968044AC1F30221515CC84070476E
:1008E000100000200010024062350008044805494D
:1008F00000684968044AC1F3C221515CC84070478E
:1009000010000020001002406235000812A085B0DF
:100910000FC88DE80F0014A0144B006804905968AC
:10092000134801F00C02042A10D0082A0ED1C1F39A
:100930008342C9031DF802000AD5596804AAC1F30D
:100940004041515C0A4A5043B0FBF1F005B070479A
:1009500008494843FAE700000203040506070809AE
:100960000A0B0C0D0E0F10100102000000100240C7
:1009700000127A0000093D002DE9F84F04006FD005
:100980002078BE4DC00747D06868C0F381000128B9
:1009900007D06868C0F38100022809D16868C003E5
:1009A00006D52868800337D560680028E7D033E093
:1009B0006068B0F5803F0BD010B1B0F5A02F11D01A
:1009C000286820F480302860286820F4802002E025
:1009D000286840F480302860606888B1FFF726FE00
:1009E000064609E0286840F480202860F0E7FFF719
:1009F0001DFE801B642873D828688003F7D50BE0A0
:100A0000FFF714FE064604E0FFF710FE801B642883
:100A1000F1D828688003F7D42078DFF86482800753
:100A20004FF0010A4FF0000939D5686810F00C0F3B
:100A300007D06868C0F38100022809D16868C00344
:100A400006D42868800714D52069012808D110E051
:100A50002069B0B1C8F800A0FFF7E8FD064605E040
:100A600007E1FFF7E3FD801B0228C4D82868800750
:100A7000F7D52868616920F0F80040EAC1002860D5
:100A80000DE0C8F80090FFF7D1FD064604E0FFF73F
:100A9000CDFD801B022823D828688007F7D4207852
:100AA00000072CD57748A169D9B1C0F800A0FFF79D
:100AB000BDFD064604E0FFF7B9FD801B02280FD8F4
:100AC000686A8007F7D570484FF4FA510068B0FBA8
:100AD000F1F0009000BF0098411E0091FAD20EE0A4
:100AE0007CE0C0F80090FFF7A1FD064604E0FFF7A8
:100AF0009DFD801B022871D8686A8007F7D4207892
:100B000040075BD5E8690027C00008D4E86940F0D9
:100B10008050E861E869012700F0805000905B4850
:100B20000168C90511D40168834641F480710160F0
:100B3000FFF77CFD064604E0FFF778FD801B642884
:100B40004CD8DBF80000C005F6D5E06801280AD0D3
:100B500008B1052813D0286A20F001002862286A0D
:100B600020F0040002E0286A40F001002862E068FA
:100B700041F2883B88B1FFF759FD064609E0286A33
:100B800040F004002862EEE7FFF750FD811B594555
:100B90005BD8286A8007F7D50BE0FFF747FD0646CC
:100BA00004E0FFF743FD811B59454ED8286A8007B2
:100BB000F7D41FB1E86920F08050E861E069A8B37C
:100BC0006968C1F38101022946D00228484606D04F
:100BD000C8F86000FFF72AFD044639E035E04746D3
:100BE000C8F86000FFF722FD064604E0FFF71EFD8F
:100BF000801B022829D828688001F7D4206AB0F524
:100C0000803F05D16868A16820F40030084368601F
:100C1000D4E908010843696821F474110843686045
:100C2000C7F860A0FFF702FD044605E023E0FFF7E8
:100C3000FDFC001B022808D828688001F7D51AE0BF
:100C4000FFF7F4FC001B022802D90320BDE8F88F4F
:100C500028688001F4D40EE00128F7D06868226A81
:100C600000F48031914204D1616A00F4701088422E
:100C700001D00120EAE70020E8E700000010024070
:100C800000004242800442421000002000700040F8
:100C900010B5401EB0F1807F01D3012010BD4FF090
:100CA000E02460610F21601701F035FC0020A06195
:100CB00007202061002010BD7047704710B590F8E4
:100CC0003C20012A22D0012280F83C20CA688C688E
:100CD00022F4407222434C6822F4806222430C6862
:100CE00022F4006222430C6922F4805222434C69B0
:100CF00022F400522243C969002322F480420A43AD
:100D000001684A6480F83C30002010BD022010BD0C
:100D100070B590F83C20012A26D0012580F83C507F
:100D2000022280F83D2002685368946823F0700620
:100D30000B68334353600D4B02689A4208D0B2F1FE
:100D4000804F05D00A4B9A4202D00A4B9A4204D1F6
:100D5000496824F080031943916080F83D500021D8
:100D600080F83C10084670BD022070BD002C014088
:100D7000000400400008004010B5040003D094F8BF
:100D80003D0010B107E0012010BD002084F83C00B8
:100D9000204600F01FF8022084F83D00211D206845
:100DA00001F082F9012084F8460084F83E0084F8BE
:100DB0003F0084F8400084F8410084F8420084F841
:100DC000430084F8440084F8450084F83D00002086
:100DD00010BD000008B500680B49884212D10B48CD
:100DE000C16941F00201C161C069002200F0020046
:100DF000009001211D20FFF789FCBDE808401D205F
:100E0000FFF776BC08BD000000040040001002405F
:100E100090F83D10012901D001207047022180F88F
:100E20003D100168CA6842F00102CA6000680B49BF
:100E3000884208D0B0F1804F05D00949884202D0DD
:100E40000849884204D1816801F00701062903D0CE
:100E5000016841F00101016000207047002C014051
:100E6000000400400008004070B5044690F83C00C3
:100E7000012817D0012584F83C50022084F83D0059
:100E80002068826822F0770222F47F42826008683C
:100E9000502830D00DDC20284DD005DC98B3102828
:100EA0003BD148E0022070BD302844D0402834D1E6
:100EB00039E0602828D0702806D0B0F5805F2CD0AB
:100EC000B0F5005F29D10AE0CB68D1E901212068A3
:100ED00001F02DF92068816841F0770109E0CB68C5
:100EE000D1E90121206801F022F92068816841F4EC
:100EF0008041816011E0CA684968206801F0D2F938
:100F00005021206807E016E0CA684968206801F0AF
:100F1000DAF96021206801F014F984F83D500020CE
:100F200084F83C0070BDCA684968206801F0BAF9CD
:100F300040212068EFE7226801461046EBE72DE9E3
:100F4000F0410D46040003D094F83D0018B108E0CC
:100F50000120BDE8F081002084F83C00204600F02C
:100F600041F8022084F83D002068816844F20702BD
:100F700091438160211D206801F096F82068816806
:100F80008269066A2B68AF690B4340F203318A43DA
:100F900042EA0722A968EF6911434FF6FC429143E8
:100FA000EA6841EA07210A4329692F6A090141EAEF
:100FB000073111436A686D6926F0220646EA051575
:100FC0002A4383602068816154F8460B0262012045
:100FD00004F81F09E0752076E0762077A0750020E0
:100FE000B7E7000000B585B00021009101910291A2
:100FF000039101682148B1F1804F22D0204A9142EB
:101000001DD1C16941F00401C161C16901F0040150
:101010000491816941F0080181618069694600F0AD
:1010200008000490C02000901648FFF70BFA002239
:1010300003211E20FFF76AFB1E20FFF759FB05B0B6
:1010400000BDC16941F00101C161C16901F0010147
:101050000491816941F0040181618069694600F071
:1010600004000490032000900748FFF7EBF90022EA
:1010700003211C20FFF74AFB1C20DEE70010024082
:1010800000080040000C01400008014070B590F8D5
:101090003E50044690F83F3090F8422090F84300CC
:1010A000022621B104290BD0012D16D10FE0012D0C
:1010B00013D1012A11D184F83E6084F8426016E011
:1010C000012B0AD1012808D184F83F600DE0012BE3
:1010D00003D1012A01D1012801D0012070BD84F87B
:1010E0003E6084F83F6084F8426084F8436091B1C8
:1010F000042904D001220021206801F00BF801220C
:101100000421206801F006F82068016841F001011F
:101110000160002070BD012200212068F2E77047C5
:1011200070B50446006801694FF00005C94389079E
:1011300015D4C168C943890711D4E91E0161012092
:101140002077206880698007204602D0FFF7E7FFFC
:1011500004E000F0BFF8204600F062F9257720682F
:101160000169C943490717D4C168C943490713D462
:101170006FF004010161022020772068806910F47B
:10118000407F204602D0FFF7CAFF04E000F0A2F83B
:10119000204600F045F9257720680169C943090711
:1011A00016D4C168C943090712D46FF00801016160
:1011B000042020772068C0698007204602D0FFF70E
:1011C000AEFF04E000F086F8204600F029F925770C
:1011D00020680169C943C90617D4C168C943C90653
:1011E00013D46FF010010161082020772068C069D6
:1011F00010F4407F204602D0FFF791FF04E000F09A
:1012000069F8204600F00CF9257720680169C94388
:10121000C90708D1C168C943C90704D1891E016142
:10122000204600F087F920680169C943090609D4FE
:10123000C168C943090605D46FF0800101612046E9
:10124000FFF73AFD20680169C943490609D4C1681E
:10125000C943490605D46FF040010161204600F002
:10126000CBF920680169C94389060BD4C168C94319
:10127000890607D46FF0200101612046BDE8704067
:10128000FFF71BBD70BD000000B585B000210091C7
:1012900001910291039100680B49884212D10B48D9
:1012A000816941F0040181618069694600F00400B0
:1012B00004904FF4106000900220019003900448C5
:1012C000FFF7C0F805B000BD002C0140001002403F
:1012D00000080140704770B5044690F83C000D4688
:1012E00001280AD0012084F83C0042B1042A18D019
:1012F000082A2AD00C2A4DD139E0022070BD20687E
:1013000000F028FF2068816941F0080181612068B0
:10131000816921F004018161206881692A69114392
:1013200011E0206800F042FF2068816941F400610B
:1013300081612068816921F480618161206881690F
:101340002A6941EA0221816124E0206800F05CFF03
:101350002068C16941F00801C1612068C16921F0BC
:101360000401C1612068C1692A69114311E0206844
:1013700000F076FF2068C16941F40061C161206816
:10138000C16921F48061C1612068C1692A6941EAAB
:101390000221C161002084F83C0070BD10B504003A
:1013A00003D094F83D0010B107E0012010BD0020EB
:1013B00084F83C00204600F01FF8022084F83D002D
:1013C000211D206800F070FE012084F8460084F89A
:1013D0003E0084F83F0084F8400084F8410084F81F
:1013E000420084F8430084F8440084F8450084F8FF
:1013F0003D00002010BD000008B500680649884285
:1014000008D10648816941F400618161806900F476
:101410000060009008BD0000002C01400010024058
:101420007047000010B5044649B104290AD00829C4
:101430000BD094F8410001280AD0012010BD94F887
:101440003E00F8E794F83F00F5E794F84000F2E733
:10145000022041B3042929D008292AD084F8410068
:101460000122206800F056FE13492068884203D10B
:10147000426C42F4004242642068884208D0B0F1D5
:10148000804F05D00D49884202D00D49884204D1D1
:10149000816801F00701062903D0016841F00101CC
:1014A0000160002010BD84F83E00D9E784F83F00B9
:1014B000D6E784F84000D3E7002C01400004004048
:1014C0000008004030B504460D460068002200F0D8
:1014D00021FE174A41F2111120688B10904209D168
:1014E000026A0A4206D1026A1A4203D1426C22F40D
:1014F000004242642068026A0A4206D1016A194227
:1015000003D1016821F00101016001203DB1042DEA
:1015100008D0082D09D084F84100002030BD84F89F
:101520003E00FAE784F83F00F7E784F84000F4E76C
:10153000002C01402DE9F041274988424AD1274833
:1015400001F0ECF9264CE080264801F0E7F9404232
:1015500001B22181B4F90620E0684FF4DD66104441
:10156000E06090FBF6F022695518256101F005FD59
:101570001D4FDFF878803A46434601F015FD01F033
:1015800043FBE06295FBF6F001F0F7FC3A46434678
:1015900001F00AFD01F038FB2063154800780128AE
:1015A00004D101F0A1FA01F05FFE606211480078F9
:1015B000012804D101F0C6FA01F056FEA0620849E4
:1015C0002831081F00F0C4FFD4E90901BDE8F0414B
:1015D00000F0D4BFBDE8F081E40000209C000020B2
:1015E000180000202C010020083D9B559F6B3440C3
:1015F00014000020150000207047704770B5026885
:1016000004461068D168536910F00F0F52D003F0F0
:10161000010501F490762E435FD0C20705D0CA05BC
:1016200003D5E26B42F00102E263420705D5DA0717
:1016300003D0E26B42F00202E263820705D5DA07CB
:1016400003D0E26B42F00402E263020707D501F027
:1016500020022A4303D0E26B42F00802E263E26B0D
:10166000002A33D0800604D5880602D5204600F033
:1016700052FE20684069E16BC0F38010090700D476
:1016800028B3204600F039FE2068416949061AD582
:10169000416921F040014161606BA0B12D49416376
:1016A000606BFEF771FE002810D0606B416BBDE8E7
:1016B00070400847830610D58B060ED52046BDE83E
:1016C000704000F028BE2046FFF797FF70BD20460F
:1016D000FFF793FF0020E06370BD03062BD50B06D8
:1016E00029D594F839002128F6D1A068B0F5805F9B
:1016F00001D12069B0B1206A411C216221680078C3
:101700004860E08C401E0004000CE084E4D12068B6
:10171000C16821F08001C1602068C16841F04001CA
:10172000C16070BD206A0088C0F308005060206A64
:10173000801C2062E5E74006F3D54806F1D5D16864
:10174000204621F04001D160202184F8391000F0BA
:1017500028F970BDEB22000870B5040004D094F89D
:101760003900002510B106E0012070BD84F8385022
:10177000204600F023F8242084F839002068C1684E
:1017800021F40051C160204600F00CFE2068016980
:1017900021F4904101612068416921F02A014161F1
:1017A0002068C16841F40051C160E563202084F8DD
:1017B000390084F83A00002070BD0000F0B585B013
:1017C0000024009401940294039444490068424F19
:1017D00002220323424D0E15B84225D1886940F4F8
:1017E00080408861886900F480400490886940F0F6
:1017F000040088618869039300F004000490481590
:10180000CDE9000269462846FEF71CFECDE90064DA
:10181000694628460294FEF715FE00220221252083
:10182000FEF774FF252028E02E4FB84229D1C86961
:1018300040F40030C861C86900F400300490886941
:1018400040F0040088618869694600F00400049053
:101850000420CDE9000203932846FEF7F3FD08209B
:10186000CDE90004694628460294FEF7EBFD00220C
:1018700002212620FEF74AFF2620FEF739FF05B099
:10188000F0BD194DA842FAD1C86940F48020C86162
:10189000C86900F480200490886940F008008861DD
:1018A0008869124D00F00800CDE90330CDE90062EF
:1018B00069462846FEF7C6FDE814CDE900046946EE
:1018C00028460294FEF7BEFD002202212720FEF7E3
:1018D0001DFF2720D1E70000003801400010024022
:1018E000000801400044004000480040000C014056
:1018F00070472DE9F843044690F839001F46154615
:101900000E4620284BD1C6B1BDB194F8380001284D
:1019100045D0012084F838004FF00008C4F83C801E
:10192000212084F83900FEF781FEA5848146E584F4
:10193000A068B0F5805F03D004E00120BDE8F88323
:10194000206920B13546002684F838800EE0002555
:10195000FAE78021204600F081FDA0B9ADB115F86D
:10196000010B21684860E08C401EE084E08C4B460F
:101970004FF0000200970028EBD14FF040012046C5
:1019800000F06CFD30B10320D8E736F8020BC0F34D
:101990000800E6E7202084F839000020CEE7022086
:1019A000CCE77047FEE7000070B501220E4D5402EF
:1019B00021462846FEF734FE01221602314628460B
:1019C000FEF72EFE00F048F8002221462846FEF7DA
:1019D00027FE00F041F8002231462846FEF720FE9F
:1019E000BDE8704000F038B8000C014070B50B4DF8
:1019F0004FF40074002221462846FEF711FE012212
:101A000011022846FEF70CFE00F026F82146284673
:101A1000BDE870400122FEF703BE0000000C01404B
:101A200070B50C4C012251022046FEF7F9FD00F082
:101A300013F80122150229462046FEF7F1FD00F0B9
:101A40000BF8002229462046FEF7EAFDBDE870406B
:101A500000F002B8000C01400320401EC0B2FCD2CE
:101A6000704700002DE9F04186B000243248009410
:101A7000019402940394816941F0100181618169AC
:101A800001F010010491816941F0200181618169B7
:101A900001F020010491816941F0040181618169B3
:101AA00001F004010491816941F0080181618069BC
:101AB000012200F00800214F5503049029463846C2
:101AC000FEF7AEFDDFF8788000224FF47341404608
:101AD000FEF7A6FD0095022601250396CDE90154E7
:101AE00069463846FEF7AEFC032700976946404634
:101AF000CDE90145FEF7A6FC4FF47040CDE90005A5
:101B0000CDE9024669464046FEF79CFC28021125B5
:101B1000CDE90005CDE9024769464046FEF792FC53
:101B20003002CDE90005CDE9024669464046FEF7A0
:101B300089FC06B0BDE8F0810010024000100140B1
:101B4000000C014010B592B000240F941C2168468F
:101B50001094FEF77EFB202107A8FEF77AFB2448AD
:101B60002249C0E9001441F61F41C0E90241802129
:101B70000461C0E90541FFF711FC08B1FEF701FC63
:101B80000F940FA91A481094FFF7C2F808B1FEF796
:101B9000F8FB6020CDE900040294039404940594BA
:101BA0000022694612480694FFF795FB08B1FEF73C
:101BB000E8FB0C2269460E48FFF78DFB08B1FEF7E3
:101BC000E0FB0794089409944FF400500A94CDE97F
:101BD0000B4007A906480E94FFF770F808B1FEF70E
:101BE000D0FB0348FFF750FB12B010BD002C0140A2
:101BF0005400002010B58CB024216846FEF729FB64
:101C00000024154809944FF080410A94C0E900145B
:101C10004FF6FF71C0E90241046184610320CDE900
:101C200000040120CDE902040494CDE905400794A5
:101C3000694609480894FFF782F908B1FEF7A1FB4D
:101C4000099409A904480A94FFF762F8002801D012
:101C5000FEF797FB0CB010BD9C00002010B586B0BD
:101C600000241748009401940294039404941349A7
:101C70000594016041F61F41C0E90114C721C0E984
:101C800003148461FFF778F808B1FEF77AFB4FF48C
:101C90008050009069460A48FFF7E6F808B1FEF761
:101CA00070FB049404A906480594FFF731F8002856
:101CB00001D0FEF766FB06B010BD00000004004036
:101CC000E400002010B58CB024216846FEF7C1FA6C
:101CD00000241648099414490A94C0E900144FF6E8
:101CE000FF71C0E90241046184610320CDE9000471
:101CF0000120CDE902040494CDE90540079469462A
:101D00000A480894FFF71BF908B1FEF73AFB09945B
:101D100009A906480A94FEF7FBFF002801D0FEF748
:101D200030FB0CB010BD0000000800402C0100206A
:101D30000C4810B50A4901604FF4E13141600021BF
:101D400081600C22C160C0E904128161C161FFF7AA
:101D500003FD002803D0BDE81040FEF712BB10BD04
:101D600000380140740100200C4810B50A49016098
:101D70004FF4E1314160002181600C22C160C0E973
:101D800004128161C161FFF7E7FC002803D0BDE8C0
:101D90001040FEF7F6BA10BD00440040B401002028
:101DA0000C4810B50A4901604FF4E131416000214F
:101DB00081600C22C160C0E904128161C161FFF73A
:101DC000CBFC002803D0BDE81040FEF7DABA10BD06
:101DD00000480040F4010020FEE7FEE730B4002197
:101DE000084B0A46002003EBC004401CC0B26254FA
:101DF0008028F8D3491CC9B20829F3D330BC00F0BD
:101E000095B800003402002028B1012806D1002135
:101E1000A72000F0BDB80021A620FAE7704710B552
:101E200058B1012810D10021C02000F0B1F80021E4
:101E3000A020BDE8104000F0ABB80021C82000F0A1
:101E4000A7F80021A120F4E710BD10B5C820FEF7C7
:101E5000E7FA0021AE2000F09BF80021084600F0D0
:101E600097F80021102000F093F80021402000F0A6
:101E70008FF80021812000F08BF80021CF2000F0A6
:101E800087F80021A12000F083F80021C82000F08D
:101E90007FF80021A62000F07BF80021A82000F0A8
:101EA00077F800213F2000F073F80021D32000F0E4
:101EB0006FF80021084600F06BF80021D52000F0F3
:101EC00067F80021802000F063F80021D92000F09D
:101ED0005FF80021F12000F05BF80021DA2000F02B
:101EE00057F80021122000F053F80021DB2000F009
:101EF0004FF80021302000F04BF80021202000F0A6
:101F000047F80021022000F043F800218D2000F066
:101F10003FF80021142000F03BF8FFF75FFF00219D
:101F2000BDE81040AF2000F033B8000070B5174E88
:101F3000002505F1B000C0B2002100F029F8002111
:101F4000084600F025F80021102000F021F8FFF7E6
:101F50002BFD782000F03AF8FFF762FD402000F0FA
:101F600035F8FFF75DFD002406EBC400405D00F08E
:101F70002DF8FFF755FD641CE4B2802CF4D3FFF775
:101F800035FD6D1CEDB2082DD3D370BD3402002099
:101F900070B50C460546FFF707FD782000F016F8EF
:101FA000FFF73EFD0CB1402000E0002000F00EF8ED
:101FB000FFF736FD284600F009F8FFF731FDBDE8D0
:101FC0007040FFF713BD7047704700002DE9F041E6
:101FD000124F002405464FF40078BE15280601D59F
:101FE000012200E0002241463846FEF719FBFFF7C8
:101FF00033FD012231463846FEF712FBFFF72CFD78
:10200000002231463846FEF70BFB6806641C050EBD
:10201000E4B2082CE2D3BDE8F0810000000C0140DE
:10202000FEF70ABB30B58FB028216846FEF711F9DC
:1020300014210AA8FEF70DF90120010400248DE8FF
:10204000130004904FF4E010CDE908100225079525
:102050006846FEF791FC08B172B6FEE70F20CDE9A5
:102060000A054FF48060CDE90C4002210AA80E94C5
:10207000FEF790FB002801D072B6FEE70FB030BD2E
:10208000704700000148FFF74BB800009C0000209B
:102090000148FFF745B80000E40000200148FFF7C1
:1020A0003FB800002C010020F0B50268164C174D17
:1020B000174E4FF08047A04205D0B84203D0A84247
:1020C00001D0B04203D122F070034A681A43A04203
:1020D00005D0B84203D0A84201D0B04203D122F4C7
:1020E0004073CA681A434B6922F080021A430260A7
:1020F0008A68C2620A688262A04201D109690163EA
:1021000001214161F0BD0000002C014000040040AD
:102110000008004010B501F01F010123046A8B4044
:102120009C430462036A8A401343036210BD10B5E6
:10213000846842EA032224F47F440A4322438260F3
:1021400010BD826822F070020A4342F007018160EC
:102150007047000030B5026A22F001020262036A91
:102160004268846924F073050C682C4323F002054F
:102170008B682B430C4DA84206D123F00805CB6891
:1021800043EA050323F0040307D14D6922F44072AA
:1021900045EA02058A6942EA0502426084614968AB
:1021A0004163036230BD0000002C014030B5026A7B
:1021B00022F010020262026A436884690D6824F406
:1021C000E64444EA05248D6822F0200242EA051222
:1021D0000C4DA84206D1CD6822F0800242EA0512D9
:1021E00022F0400207D14D6923F4406343EA85039E
:1021F0008D6943EA850343608461496881630262B3
:1022000030BD0000002C014030B5026A22F480721B
:102210000262036A4268C46923F4007324F0730500
:102220000C682C438D6843EA05230C4DA84206D167
:10223000CD6823F4006343EA052323F4806307D1C8
:102240004D6922F4405242EA05128D6942EA0512B4
:102250004260C4614968C163036230BD002C014023
:1022600030B5026A22F480520262036A4268C4698D
:102270000D6824F4E64444EA05248D6823F40053F1
:1022800043EA0533064DA84204D14D6922F4804249
:1022900042EA85124260C46149680164036230BD4C
:1022A000002C014010B5046A036A23F001030362A5
:1022B000836923F0F00343EA021324F00A020A437D
:1022C0008361026210BD10B5036A23F0100303623C
:1022D0008469036A24F4704444EA023223F0A003C0
:1022E00043EA01118261016210BD10B5406A00210C
:1022F000C185C184FFF781F910BD0168CA6822F465
:102300009072CA6001684A6922F001024A61202184
:1023100080F83A10704710B590F83A10222901D091
:10232000022010BD81684FF48053994201D10269A7
:1023300022B1826A99421BD049B10AE00268816ADF
:102340005268C2F308020A80816A891C08E00169A8
:1023500071B10168496801F07F011170816A491CFF
:102360008162C18D491E0904090CC18503D016E0A4
:1023700001684968F1E70168CA6822F02002CA6072
:102380000168CA6822F48072CA6001684A6922F052
:1023900001024A61202180F83A10FFF7A9FA0020D3
:1023A00010BD000070B5044600680169E26821F4C0
:1023B000405111430161A1682069014360690143F3
:1023C0002068C26841F20C639A430A43C2602068E5
:1023D0004169A26921F44071114341611E4920689D
:1023E000884202D1FEF782FA01E0FEF76FFA00EBB5
:1023F000C00101EB0011606864228000B1FBF0F3C2
:10240000B3FBF2F36FF018067343B1FBF0F5B1FBC9
:10241000F0F605EB8305322303EB0515B5FBF2F56A
:10242000B6FBF2F605F0F00505EB0615B1FBF0F68C
:10243000B1FBF0F0B0FBF2F06FF01801484306EB8F
:10244000800003EB0010B0FBF2F0216800F00F00F9
:102450002844886070BD0000003801402DE9F0413B
:102460001E46174688460446069D1CE0681C1AD086
:1024700025B1FEF7DBF8801BA84214D92068C1689B
:1024800021F4D071C1602068416921F001014161EE
:10249000202084F8390084F83A00002084F83800BD
:1024A0000320BDE8F0812068016838EA010004D00B
:1024B0000020B842DAD00020F3E70120F9E700005D
:1024C0000B4810B50068016801F0080209494A701C
:1024D000406808700121074800F00CF94FF40051E2
:1024E0000548FEF795F8BDE810400148FFF786B8AB
:1024F0007401002000000020001001400148FFF797
:102500007DB80000B40100200148FFF777B8000053
:10251000F4010020FEE70907090E002804DB00F1A2
:10252000E02080F80014704700F00F0000F1E02078
:1025300080F8141D704703E011F8013B1844C0B245
:10254000521ED2B2F8D27047002800DC40427047D9
:1025500010B541F6583302685C429A4201DD0360CF
:1025600002E0A24200DA04600868984201DD0B60D4
:1025700010BDA042FCDA0C6010BD00002DE9F04156
:102580000E461B4C051E4FF400514FF4805705DDDD
:1025900000222046FEF744F8012204E001222046F2
:1025A000FEF73EF8002239462046FEF739F8284665
:1025B000FFF7CAFF0F4D296808644FF480414F00B0
:1025C000002E05DD00222046FEF72AF8012204E055
:1025D00001222046FEF724F8002239462046FEF765
:1025E0001FF83046FFF7B0FF29684863BDE8F08167
:1025F000000C014054000020FEF726F8FFF712FD02
:10260000FFF730FAFFF79EFAFFF7F4FAFFF75AFBED
:10261000FFF724FBFFF78CFBFFF7A6FBFFF7C0FBE0
:102620003C211848FEF732FD3C211748FEF72EFDED
:102630001448FEF7EDFB1448FEF7EAFB00F036FA0B
:1026400000F040FA0C211148FEF7ECFE00210F4883
:10265000FEF7E8FE0E48FEF7DBFB00F01DF80D4824
:102660000068C16841F02001C16000F04BF9FFF73C
:10267000ECFB0020FFF7C8FB0020FFF7D0FB00F0C9
:1026800053F9FCE79C0000202C010020540000209E
:10269000E40000207401002013490020134B08605F
:1026A00048608860C860C8610861486188614039D5
:1026B0000F4A086048608860C8600B61C861C1E962
:1026C00005206031086048608860C860C8610861A2
:1026D000486188614039086048608860C8600B6163
:1026E000C861C1E905207047F40600200000C04021
:1026F000000008412DE9F041DFF84C8006464046D5
:102700000C46B8F80610C38800680A19D8F800709B
:102710001844802A0AD9C1F180018DB22A46314677
:10272000FDF752FD621B7119384601E02246314621
:10273000FDF74AFD98F80610214401F07F01A8F842
:102740000610BDE8F0810000400700202DE9F34F9E
:1027500081B06A4D002000904FF0FF0AEB88AA88F4
:102760002889802100F04EF984B2092C6ED3688943
:10277000A94690BBB9F8046080210020B346DFF879
:1027800080E1E71ED9F800202AE03318B3FBF1F509
:1027900001FB153512F805C05D1CB5FBF1F801FB16
:1027A0001855555D4CEA052C9D1CB5FBF1F801FB55
:1027B0001855DB1CB3FBF1F801FB1833555DD35CF6
:1027C0002D0445EA03634CEA030CF44506D130447A
:1027D000B0FBF1F201FB120006E017E0401C80B2F2
:1027E000B842D2DB4FF0FF3000B2002813DB0122E9
:1027F000A9F80A2082B2A9F80420B9F80630B9F87D
:102800000800802100F0FEF809281FDBB9F8080055
:102810004D4660B11DE0E41E0BEB0400C21700EB57
:10282000526222F07F02801AA9F804000EE0287993
:102830002968421D801D02F07F0200F07F008A5C43
:10284000085C42EA00202881A04202D95046BDE837
:10285000FE8F82B2A8881118491E80292968014478
:102860000CDDC0F18000C2B20098FFF764FE297A47
:102870002A7911448139CAB2296802E0521ED2B2C3
:102880000098FFF758FEA9882A892E688C18631EC5
:10289000DF1703EB576727F07F07DB1B9B5D834246
:1028A00027D1802C0DD9C1F1800084B23144224659
:1028B0000198FDF789FC28892968021B01982044AA
:1028C00001E031440198FDF77FFC029829890180DD
:1028D0002879296800F1090202F07F0211F802A0AC
:1028E000297A084400F07F00A880002028816881B0
:1028F000ACE7491C01F07F00F6E70000400700202C
:10290000535A485904480021016141611830A0F12F
:102910000C01086000207047340700200168486AF5
:10292000002200B24A62704730B5A1B00020ADF875
:102930008000441E20A96846FFF708FF132856D0E0
:1029400006DC10280BD0112837D0122804D14BE018
:1029500014284FD01528EDD021B0204630BD9DF869
:102960000A009DF80D109DF80B2040EA01619DF8CA
:102970000C009DF80F30000440EA022001439DF84E
:102980000E009DF811209DF8135040EA02629DF858
:102990001000000440EA032002439DF812009DF855
:1029A000153040EA03639DF81400000440EA052056
:1029B0000343124800F092F8BCE79DF80A009DF826
:1029C0000D109DF80B2040EA01609DF80C100904E1
:1029D00041EA0221084300F063FC0949086001460E
:1029E000064800F07FF8A5E700F060F8A2E700F0E5
:1029F00051F89FE7FDF7BCFE9CE70000B4060020FD
:102A00005000002010B504469A4201D8981A01E0FF
:102A1000881A184480B2844200D9002010BD0000FA
:102A2000F8B50E46002115468DF800109906164A95
:102A30000C0E1449116004F10B01C2F80510167157
:102A400050720A2210490020FFF775FD8DF8000032
:102A500022462946FFF76FFD0C4E8DF800003346E5
:102A60000A2209490A48FEF744FF3346224629460E
:102A70000748FEF73EFF3346012269460448FEF749
:102A800038FFF8BD535A485934070020FFFF0F00A4
:102A9000740100200349002008700C210248FEF751
:102AA00011BD000014000020540000200349012043
:102AB00008700C210248FEF7B5BC0000140000208D
:102AC0005400002003490120487000210248FEF70D
:102AD000A9BC00001400002054000020103080E841
:102AE0000E0070470160704738B51148B0F9060014
:102AF00000F043FA00220F4B00F056FA00220E4B72
:102B000000F052FA00220D4B00F0B0F800F006FA87
:102B1000009000F0C5FB0146094800F039F8044672
:102B200001236A4619460220FFF77AFF204638BD86
:102B30001800002000408F4000004E400044E1405B
:102B4000B40600200D4810B5B0F9080000F015FAE1
:102B500000220B4B00F028FA00220A4B00F024FA66
:102B60000022094B00F082F800F0D8F900F098FB41
:102B70000146BDE81040054800F00AB818000020E2
:102B800000408F4000004E400044E140D406002049
:102B90002DE9F0410446006800F066FCA060B0F149
:102BA0007C5F04DAB0F13F4F01D20020A060E269FF
:102BB00005460146104600F0F5FA1149E0618842E9
:102BC00002DA1049884200D9E1612846E16800F044
:102BD0004BFCA16900F07CFB0646E169606900F0EE
:102BE00077FB07462946206900F072FB394600F062
:102BF000D9FA314600F0D6FAE5606060BDE8F081B0
:102C000000007A4400007AC421F00042A2F1605230
:102C1000B2F5801F01F0004328BFD2F17F6C0BD9C1
:102C20005FEA001C43EAC20242EB507018BF7047D3
:102C300028BF20F001007047B2F5801FBCBF1846C6
:102C400070474FEA410C1CF5001F02D2084600F005
:102C500006BC70B500F052FA00000089FFF7F6BF1D
:102C60004FF00040A0F58000704700002DE9C04102
:102C700030B4DFF8A0C23CEA111418BF3CEA1314C8
:102C800000F0EC8081EA03051CEA111444EAD574D3
:102C900018BF1CEA131500F0C780A4EB05044FF021
:102CA000004545EAC12145EAC32341EA505143EAC0
:102CB000525304F17F74994204F500344FEAC02066
:102CC0004FEAC22208BF904200F09C804FEA136591
:102CD0000FF24016765D4FEA134506FB05F7C7F184
:102CE000807706FB07F74FEAD737A7FB03687642E2
:102CF000C8F58038A7FB06CE38BFA8F1010807FB4E
:102D000008E64FF0000EA6FB028CE6FB03CEDCF1DA
:102D1000000CCEF1004E38BFAEF1010EA6FB0C58F0
:102D20004FF000074FF00005E6FB0E87A1FB08C639
:102D3000A0FB07CE16EB0E0645F10005E1FB07658B
:102D400015F1E04E7EBFA4F580345FEA46066D4182
:102D500016F1800745F100054FEA17274FEA06668E
:102D600047EA0567A6F1DE46B6F1805F4FEA152512
:102D70001FD9384624F0010C05EBC471BCF1FE6F7D
:102D800001EB0C1102D8F0BCBDE8008124425CBF0D
:102D900001F5801E9EEAC47F02D4F0BCBDE800812C
:102DA000244238D4F0BCA1F1C041BDE8004100F09C
:102DB000F3B94FEAD22242EA43524FEAD323A7FBA8
:102DC00002864FEAD02040EA415007FB03661EEA24
:102DD0000E0F4FEAD12105FB026658BFA6EB005645
:102DE000B6EB00564FEA520E4EEAC37E18EB0E0EBB
:102DF00056EB530EBDD518EB02085E417F1C55F112
:102E00000005B6E74FF480154FF000074FF00006BD
:102E10004FF00008ADE7F0BC4FF0000001F1C041F9
:102E200001F00041BDE8008111EA0C1F0CEA131506
:102E300000D00CE013EA0C1F00F025804FF00000DA
:102E4000F0BC81EA030101F00041BDE80081F0BC63
:102E5000BDE8004181EA030100F09EB9F0BCBDE885
:102E6000004170B500F04AF9097EFC3E00F007B859
:102E700081EA03014FF0000001F00041704781EA50
:102E8000030100F089B9F0BCBDE800414FF000003B
:102E900021497047FFFDFBF9F7F5F4F2F0EEEDEB99
:102EA000E9E8E6E4E3E1E0DEDDDBDAD8D7D5D4D348
:102EB000D1D0CFCDCCCBCAC8C7C6C5C4C2C1C0BF94
:102EC000BEBDBCBBBAB9B8B7B6B5B4B3B2B1B0AF9A
:102ED000AEADACABAAA9A8A8A7A6A5A4A3A3A2A17E
:102EE000A09F9F9E9D9C9C9B9A9999989797969539
:102EF00095949393929191908F8F8E8E8D8C8C8BD5
:102F00008B8A89898888878786858584848383825C
:102F1000828181800000FF070000F87F4FEA4103B3
:102F20004FEA5353A3F58063D3F11E03C8BFD3F117
:102F3000210C0CDD4FF0004242EAC12242EA50521D
:102F400032FA03FC8CEAE17CACEBE1707047102BA9
:102F5000C4BF0020704703F5787CBCF1FF3F04D06C
:102F60006FF0004282EA2100704770B500F0C6F8A9
:102F70004992248000207047F2E710F0004248BFD9
:102F80004042B0FA80F310FA03F10AD0C3F11D03F6
:102F900003F580634FEA415002EB035202EBD1216B
:102FA00070474FF000007047DFF848C170B51CEA69
:102FB000111E1EBF1CEA13159EEA0C0F95EA0C0F9A
:102FC00000F06F8081EA030423EA4C134EEAD47EBA
:102FD00021EA4C1141F4801143F48013AE44A1FB6B
:102FE000024CA0FB0365AEF17F7E361955EB0C0554
:102FF000A1FB034C4CF10003A0FB021C16EB0C06DA
:10300000654153F10003094218BF46F0010613F46D
:10301000007F0BD14FEA03314FEA0530340341EA18
:10302000155140EA16506FF003020AE04FEAC3213F
:103030004FEAC520F40241EA555140EA56506FF07C
:10304000020202EB2E4201EB025585EACE710AD054
:103050005FEA440C18BF24F0004450F1000041F135
:10306000000120EAD47040F2FE7C624500D270BDBF
:10307000A84214BF4FF080444FF04044002E08BFD8
:103080000024BEF1806FA8BFA1F1C041BDE870402F
:1030900080F282804FF0000001F1C04101F0004158
:1030A00070479EEA0C0F0CEA131518BF95EA0C0F37
:1030B00006D04FF0000081EA030E0EF0004170BD13
:1030C00000F01CF88900013E00F007B800F009B8D4
:1030D0004FEA430C5FEA5C5C08D081EA030100F030
:1030E0005BB84FEA410C5FEA5C5CF6D14FF0000040
:1030F000014970470000FF070000F87F0EF1020E43
:103100002EF0030E5EF8046B364205D4012A43EB21
:10311000030515F5001F12D8012841EB010C1CF521
:10312000001F0CD80ED14FEAD17C15F5001F0CEB17
:103130004C0C0CF1020C08BF4CEBD37C04E04FF0BC
:10314000080C01E04FEAD37C0CEB4C0526FA05F69F
:1031500006F00706B6F1040C06D20EEB860CBDE8AD
:1031600070404CF0010C6047DFE80CF0090B0202E4
:103170004FF000414FF00000A1F5002170BD19464D
:103180001046012851EB010418BFD4F5001484BF88
:10319000002001F0004170BD0808A0F500114FEAC1
:1031A0003101704790EA010F48BF81F0004100F102
:1031B0006281421A3CBF801A89184FEAD0524FF000
:1031C0007F4C1CEA410FA2EBD15318BF9CEA026F5F
:1031D00000F03B804FF0004C4CEA00204CEA01210B
:1031E00021FA03FC10EB0C0C1ED202F1FF325FEA55
:1031F0001C2040EBC25038BF70471CF07F0F4FEAD5
:10320000400C18BFBCF17F4F38BF7047C3F120039B
:10321000994008BF20F00100BCF17F4F38BF7047D4
:10322000A0F1C04000F01BB94FEA3C00000A40EB9F
:10323000C25028BF1CF0FF0F4FEA400CE6D018BF69
:10324000BCF17F4F38BF7047EAE79CEA026F05D0B8
:1032500010EA5C0F08BF00F00040704710B500F0A6
:10326000B8F800BF64FBBE3E41000B0ED3F19E02D6
:1032700008D950F400034FEA032323FA02F048BFB1
:103280004042704710B500F0A4F800BF4992248076
:10329000002070476FF0004282EA20007047000073
:1032A00010F0004148BF4042B0FA80F310FA03F238
:1032B000C3F19D030BD051EAC35101EB1220530619
:1032C00038BF704700F1010008BF20F001007047CF
:1032D0004FF47F0C1CEAD0121EBF1CEAD11392EAF5
:1032E0000C0F93EA0C0F00F0478090EA010F48BFE3
:1032F00042F480724FF0004C4CEA00204CEA01216D
:1033000002EB0302A0FB0113A2F50002002918BF83
:1033100043F001035B0028BF4FEA330342EB224234
:103320005FEA132C4CEBC2502EBFBCEB436FB2F5DF
:103330007C0F70474FEA036CBCF1004F08BF20F0D0
:103340000100B2F57C0F38BF70470BD582F0FF0249
:1033500012F5803FC8BF704700F1C040D8BF00F0F1
:103360000040704700F5000C5FEA4C0C48BF704706
:10337000B0F1C04000F073B890EA010F0CEAD1132D
:1033800048BF42F48072624538BF634504D280EA88
:10339000010000F00040704710B500F01AF800BFBF
:1033A0008900013E00F007B800F009B85FEA410C5F
:1033B0005FEA1C6C08D080EA010000F050B85FEAB8
:1033C000400C5FEA1C6CF6D14FF00040A0F5800085
:1033D00070470EF1020E2EF0030E5EF8044B2442ED
:1033E00004D44FEA4102B2F17F4F11D84FEA4003B3
:1033F000B3F17F4F0CD80ED14FEAD07CB2F17F4FA2
:103400000CEB4C0C0CF1020C08BF4CEBD17C04E033
:103410004FF0080C01E04FEAD17C0CEB4C0324FA8E
:1034200003F404F00704B4F1040C06D20EEB840C90
:10343000BDE810404CF0010C6047DFE80CF00708D5
:1034400002024FF00040A0F5800010BD0846420087
:1034500018BFD2F1807288BF00F0004010BDFF217C
:1034600041EAD050C005704790EA010F48BF81F093
:1034700000413FF59EAE421A04D882F00042A0EB14
:10348000020011444FEAD0524FF07F4C1CEA410F2A
:10349000A2EBD15318BF9CEA026F4AD04FF0004C08
:1034A0004CEA00204CEA012121FA03FCB0EB0C0CA1
:1034B0000FD412F0FE0F36D05FEA4C001DD500127B
:1034C00040EBC25038BF70471CF03F0F18BF704729
:1034D0000BE0A2F101025FEA1C2040EBC25038BFB2
:1034E00070471CF07F0F18BF7047C3F1200399404D
:1034F00014BF401E20F00100704780084FEA1223DD
:1035000008BF7047B0FA80FCA2EB0C02CCF1280C8B
:1035100060FA0CF093EA122F04BF00EBC250704720
:103520004FEAC3707047130A5FEADC1008BF7047A8
:10353000F6E79CEA026F04D010EA5C0F08BF002097
:10354000704710B5FFF745FF40DFF63E81F00040C1
:10355000704700000000000000000102030406079D
:103560000809000000000102030400008C35000877
:10357000000000205400000028010008E035000889
:1035800054000020DC0D0000440100080000000091
:103590000100000010000000000000000024F40002
:1035A000000000000000000000000000000000001B
:1035B000000000000000000000000000000000000B
:1035C00000000000000000000000000000000000FB
:1035D00000000000000000000000000000000000EB
:04000005080000ED02
:00000001FF
