:020000040800F2
:10000000900B002005010008E3220008B71E00083D
:10001000E122000831090008C12A000800000000A0
:10002000000000000000000000000000152600088D
:100030003309000800000000132600086D260008A0
:100040001F0100081F0100081F0100081F01000810
:100050001F0100081F0100081F0100081F01000800
:100060001F0100081F0100081F0100081F010008F0
:100070001F0100081F0100081F0100081F010008E0
:100080001F0100081F0100081F0100081F010008D0
:100090001F0100081F0100081F0100081F010008C0
:1000A0001F0100081F0100081F0100081F010008B0
:1000B000D1260008DD260008E92600081F010008F7
:1000C0001F0100081F0100081F0100081F01000890
:1000D0001F010008A92A0008B52A00081F0100080E
:1000E0001F0100081F0100081F010008DFF810D0E1
:1000F00000F00CFC00480047C1380008AFF3008056
:10010000900B00200648804706480047FEE7FEE7C0
:10011000FEE7FEE7FEE7FEE7FEE7FEE7FEE7FEE7B7
:10012000CD260008ED000008202A04DB203A21FA41
:1001300002F00021704721FA02F3D040C2F1200200
:100140009140084319467047D2B201E000F8012BF4
:10015000491EFBD270470022F6E710B513460A4647
:1001600004461946FFF7F0FF204610BDF0B480EAC0
:100170000102D40F4200B2EB410F02D20246084600
:1001800011464A0042D0C30DDDB2C1F3C752AD1AC9
:10019000202D35DAC1F3160141F4000204B15242B8
:1001A000C5F1200602FA06F12A411044B3EBD05FF4
:1001B00023D0C4B1012DA0EBC35009DCF0BC4FF03B
:1001C000004202EAC352DBB200F5000000F0E3BADD
:1001D000400000F1807000EBC350A0F1807040EA55
:1001E000D170490009E0490841EAC071A0EBC35051
:1001F00000F50000400800EBC350F0BC00F0C2BAAC
:100200006142012202EB4101001BF6E7F0BC70479E
:1002100081F00041AAE780F00040A7E780EA0102F0
:1002200010B502F00043400022D04A001FD0010E5A
:1002300001EB1261C0F35600C2F3560240F4000015
:1002400042F40002A0FB022000047F39140400D015
:10025000401C50EA124001D44000491EC2B20C06B4
:1002600004EBD010401C4008802A02D003E000209C
:1002700010BD20F00100002900DA0020184310BD55
:10028000420005D0C0F3C7525242914201DC002027
:10029000704700EBC15070472DE9FE4F804681EA60
:1002A0000300C00F0C46009021F0004123F00045F0
:1002B000B8EB0200A94105D24046214690461C46B3
:1002C0000B46024623F00040104347D0270DC7F3EA
:1002D0000A00C3F30A510290401A019040286BDAD9
:1002E000C3F3130040F4801B0098924620B1002312
:1002F000D2EB030A63EB0B0B01985946C0F14002A5
:10030000504600F01EFA06460D4650465946019AE0
:1003100000F026FA10EB08006141002487EA115230
:1003200084EAE7731A4340D0009A62B3019A012A23
:100330004FEA075215DC001B61EB02014FF000424F
:1003400002EA0752CDE90042001C41F58011324615
:100350002B4600F05DFA03B0BDE8F08F4046214621
:10036000F9E7001B61EB0201001C41F58013001846
:100370005B412018A2F5001747EB030140EAD57056
:10038000B6196D4111E06D084FEA360645EAC075B1
:100390004FEA0752001B61EB0201001C41F580117E
:1003A00049084FEA30000019514132462B4603B04C
:1003B000BDE8F04F00F01DBA009801224000002374
:1003C000D0EB020263EBE073009821464FEAE07441
:1003D000B8EB000061EB0401E9E783F000435BE761
:1003E00081F0004158E72DE9FE4F81EA030404F053
:1003F000004421F0004100944FF0000B23F0004333
:1004000050EA01045ED052EA03045BD0C3F30A54FD
:10041000C1F30A552C44A4F2F3340194A0FB025416
:10042000C1F3130141F48011C3F3130343F48013A8
:1004300001FB024400FB034E840A970A44EA8154FC
:1004400047EA8357A4FB076802958D0A05FB0785D9
:100450004FEA932C04FB0C542705029D4FEA0658E3
:1004600047EA1637B5EB08056EEB070C870E920EC0
:1004700047EA811742EA8312A7FB0201B6EB0B01A0
:1004800064EB00042B0D43EA0C335E1844EB1C5064
:10049000DA465146E7FB0201C5F313044FEA0B337A
:1004A00043EA14534FEA0432019C43EA0603A4F1E1
:1004B0000C040294009CCDE900B400F0A9F903B04B
:1004C000BDE8F08F00200146F9E72DE9F04D81EA03
:1004D000030404F0004B21F0004514464FF0000ADD
:1004E00023F0004150EA050220D054EA01021DD059
:1004F000C5F30A570246C5F31303C1F31300C1F352
:100500000A5640F4801543F48013A7EB0608101B2D
:10051000D64608F2FD3873EB050002D308F1010856
:1005200001E092185B41B8F1000F03DA00200146A8
:10053000BDE8F08D00204FF48011064684460EE0A1
:10054000171B73EB050705D3121B63EB050306436B
:100550004CEA010C49084FEA300092185B4150EA1E
:100560000107EDD152EA030012D082EA040083EAC7
:100570000501084305D0101BAB4106D20122002320
:1005800006E000224FF0004302E06FF0010253103A
:100590001AEB06004CEB085110EB0A0041EB0B0183
:1005A000BDE8F04D00F025B9C10F80EAE0700844C5
:1005B000CA079623002100F0EEB8962300221146C8
:1005C00000F0E9B80EB5C10F80EAE0700844CA0730
:1005D000002140F233438DE80E000A460B4600F03E
:1005E00017F903B000BD00F0004220F00040C10D3B
:1005F000C0F3160040F400007F2901DA00207047A4
:10060000962903DCC1F19601C84001E09639884083
:10061000002AF4D04042704770B5C1F30A5201F08D
:1006200000450024C1F3130140F2FF3341F480116F
:100630009A4201DA002070BD40F233439A42A2F29E
:10064000334203DC5242FFF76FFD00E090402C4341
:10065000F1D0404270BD00F0004230F000400AD0BE
:10066000C10D01F56071C0F3160042EA0151C208E4
:1006700040071143704700200146704701F00043D6
:1006800030B421F0004150EA010206D00A0DA2F573
:100690006072C1F31301002A02DC30BC00207047F5
:1006A000440F44EAC104C100E01830BC00EBC25062
:1006B00000F068B830B50B46014600202022012426
:1006C00009E021FA02F59D4205D303FA02F5491B20
:1006D00004FA02F52844151EA2F10102F1DC30BD36
:1006E0002DE9F05F0546002092469B468846064667
:1006F000814640241BE02846414647462246FFF7F4
:1007000013FD53465A46C01A914110D3114618465C
:10071000224600F016F82D1A67EB01084F462246D4
:100720000120002100F00DF817EB00094E41201EBA
:10073000A4F10104DFDC484631462A464346BDE8C1
:10074000F09F202A04DB203A00FA02F100207047D3
:100750009140C2F1200320FA03F3194390407047FF
:10076000202A06DBCB17203A41FA02F043EAE07375
:1007700006E041FA02F3D040C2F120029140084362
:10078000194670470029A8BF7047401C490008BFA0
:1007900020F00100704710B4B0FA80FC00FA0CF0B1
:1007A00050EA010404BF10BC704749B1CCF12004E9
:1007B00021FA04F411FA0CF118BF01212143084376
:1007C000A3EB0C01CB1D4FEA00614FEA102042BFA2
:1007D000002010BC704700EBC35010440029A4BF98
:1007E00010BC7047401C490008BF20F0010010BC3D
:1007F000704710B5141E73F1000408DA401C41F173
:10080000000192185B411A4301D120F0010010BD94
:100810002DE9F04D92469B4611B1B1FA81F202E00A
:10082000B0FA80F220329046FFF78BFF04460F4665
:1008300040EA0A0041EA0B0153465A46084313D0E6
:10084000114653EA010019D0C8F140025046FFF7A3
:100850006BFC05460E46504659464246FFF771FF6F
:10086000084305D0012004E020463946BDE8F08D5C
:100870000020054346EAE0762C4337430A98630597
:10088000E40AA0EB08000022FD0A44EA47540A30BB
:1008900002D500200146E9E7010510196941DDE9AB
:1008A000084500196941BDE8F04DA2E7C1F30A52BD
:1008B000C1F3130140F2FF3341F480119A4202DA8E
:1008C00000200146704740F233439A42A2F233427D
:1008D00002DC5242FFF728BCFFF733BF30B5041EDD
:1008E00071F1000404DB4FF00044404264EB01016D
:1008F000141E73F1000405DB1C464FF00043524206
:1009000063EB0403994208BF904230BD064C074D8B
:1009100006E0E06840F0010394E8070098471034CF
:10092000AC42F6D3FFF7E6FBF05C0008105D000870
:10093000FEE7704772B6FEE710B590F8211000246C
:10094000022903D00421816301243DE001680A6883
:1009500022F00E020A6001680A6822F001020A60B1
:100960001A4A0168914201D1012121E0174A14324B
:10097000914201D110211BE0144A2832914201D149
:10098000891515E0114A3C32914201D189140FE0DA
:100990000E4A5032914202D14FF4803108E00B4AA6
:1009A0006432914202D14FF4801101E04FF0807126
:1009B000064A083A5160012180F82110002180F890
:1009C0002010416B01B18847204610BD080002404D
:1009D00070B5044600F0FEF80546601C02D00448DD
:1009E0000078044400F0F6F8401BA042FAD370BD32
:1009F000040000202DE9F84FDFF8A491002409F14C
:100A0000040A0AF1040B23464FF00F080BF1040E01
:100A1000BEE00127A7403A40BA4272D1DFF884C154
:100A20004D68A5EB0C0665452BD00DDC032D34D0AD
:100A300005DC35B3012D19D0022D2FD11BE0112D6E
:100A400016D0122D2AD119E0B6F5881F19D006DC70
:100A5000B6F5803F15D0B6F5801F1FD111E0B6F571
:100A6000001F0ED0B6F5041F18D10AE0CB6815E0C0
:100A7000CB681B1D12E0CB6808330FE0CB680C334A
:100A80000CE08B682BB1012B4FF0080303D04761BA
:100A900004E0042302E0076100E00023FF2A01D8FC
:100AA000064601E000F104064FEA840501D9A5F1EC
:100AB0002005376808FA05FC27EA0C0703FA05F554
:100AC00047EA050737604D68ED0060D5364DAE69E1
:100AD00046F00106AE61AD6924F0030605F001059C
:100AE0000095324D7719BE68A5072D0F08FA05FC51
:100AF00026EA0C06DFF8B8C0604503D14FF0000CC1
:100B000017E044E0DFF8ACC0604502D14FF0010CC3
:100B10000FE0DFF8A4C0604502D14FF0020C08E0FE
:100B2000DFF898C0604502D14FF0030C01E04FF0B0
:100B3000040C0CFA05FC4CEA060CC7F808C04D681A
:100B4000D9F80060ED034D4601D5164300E0964309
:100B50002E604D68DAF80060AD03554601D51643A6
:100B600000E096432E604D68DBF80060ED025D46C4
:100B700001D5164300E096432E604D68DEF8006014
:100B8000AD02754601D5164300E096432E60641C05
:100B90000A6832FA04F57FF43CAFBDE8F88F000034
:100BA000000401400000111000100240000001404C
:100BB00000080140000C01400010014000140140F9
:100BC0008068084000D0012070470AB10161704779
:100BD0000904FBE70148806870470000040000201A
:100BE0000248816802781144816070470400002047
:100BF000074810B5016841F010010160032000F0C2
:100C000079F8002000F006F800F024F8002010BD6C
:100C10000020024070B50D4D04464FF47A712878DB
:100C2000B1FBF0F00A490968B1FBF0F000F0F2FA0C
:100C300048B9102C07D200222146501E00F03AF885
:100C400000206C6070BD012070BD00000400002019
:100C5000100000200E4808B5816941F00101816152
:100C6000816901F001010091C16941F08051C161C8
:100C7000C06900F080500090052000F03BF8054965
:100C8000486820F0E06040F00070486008BD000057
:100C90000010024000000140002809DB00F01F02A4
:100CA000012191404009800000F1E020C0F80011CE
:100CB00070470000F0B40E4B1B68C3F30223C3F16E
:100CC0000704042C00D904241D1D072D01D2002384
:100CD00000E0DB1E012606FA04F56D1E0D409D4066
:100CE0009E40761E164045EA0601F0BC01F0FEBEAD
:100CF0000CED00E0064A00F0070110684FF6FF0314
:100D0000184040EA01200349084310607047000082
:100D10000CED00E00000FA052DE9F0470D46040057
:100D200067D0DFF81881D8F8000000F00700A8426B
:100D30000CD2D8F8001021F007012943C8F80010A0
:100D4000D8F8000000F00700A84252D120683C4EBD
:100D5000810712D5400703D5706840F4E0607060E9
:100D60002078000703D5706840F4605070607068A8
:100D7000A16820F0F000084370602078C00727D0F9
:100D80006068012810D03168022810D08907002936
:100D90002FDA716821F0030101437160FFF71AFF38
:100DA000074641F288390CE031688903EFE7890191
:100DB000EDE7FFF70FFFC11B494502D90320BDE84E
:100DC000F0877068616800F00C00B0EB810FF0D123
:100DD000D8F80010404601F00701A9420BD901687C
:100DE00021F0070129430160006800F00700A842D4
:100DF00001D00120E3E72078400705D57068E1685D
:100E000020F4E060084370602078000706D5706821
:100E1000216920F4605040EAC100706000F038F8A9
:100E20007168084AC1F30311515CC8400649086063
:100E300006480068FFF7EEFE0020C0E700200240F1
:100E400000100240C83E00081000002008000020EA
:100E50000448054900684968044AC1F30221515C0D
:100E6000C84070471000002000100240D83E000823
:100E70000448054900684968044AC1F3C221515C2D
:100E8000C84070471000002000100240D83E000803
:100E900012A085B00FC88DE80F0014A0144B006895
:100EA00004905968134801F00C02042A10D0082A53
:100EB0000ED1C1F38342C9031DF802000AD5596857
:100EC00004AAC1F34041515C0A4A5043B0FBF1F01F
:100ED00005B0704708494843FAE7000002030405DB
:100EE000060708090A0B0C0D0E0F10100102000076
:100EF0000010024000127A0000093D002DE9F84F71
:100F000004006FD02078BE4DC00747D06868C0F39A
:100F10008100012807D06868C0F38100022809D148
:100F20006868C00306D52868800337D56068002844
:100F3000E7D033E06068B0F5803F0BD010B1B0F57A
:100F4000A02F11D0286820F480302860286820F471
:100F5000802002E0286840F480302860606888B112
:100F6000FFF738FE064609E0286840F48020286034
:100F7000F0E7FFF72FFE801B642873D828688003F2
:100F8000F7D50BE0FFF726FE064604E0FFF722FE4A
:100F9000801B6428F1D828688003F7D42078DFF814
:100FA000648280074FF0010A4FF0000939D5686864
:100FB00010F00C0F07D06868C0F38100022809D137
:100FC0006868C00306D42868800714D52069012802
:100FD00008D110E02069B0B1C8F800A0FFF7FAFD11
:100FE000064605E007E1FFF7F5FD801B0228C4D89F
:100FF00028688007F7D52868616920F0F80040EA82
:10100000C10028600DE0C8F80090FFF7E3FD064638
:1010100004E0FFF7DFFD801B022823D82868800743
:10102000F7D4207800072CD57748A169D9B1C0F84A
:1010300000A0FFF7CFFD064604E0FFF7CBFD801BC5
:1010400002280FD8686A8007F7D570484FF4FA5124
:101050000068B0FBF1F0009000BF0098411E0091C5
:10106000FAD20EE07CE0C0F80090FFF7B3FD064630
:1010700004E0FFF7AFFD801B022871D8686A800783
:10108000F7D4207840075BD5E8690027C00008D472
:10109000E86940F08050E861E869012700F080507D
:1010A00000905B480168C90511D40168834641F48A
:1010B00080710160FFF78EFD064604E0FFF78AFDB0
:1010C000801B64284CD8DBF80000C005F6D5E0682A
:1010D00001280AD008B1052813D0286A20F00100A1
:1010E0002862286A20F0040002E0286A40F001002B
:1010F0002862E06841F2883B88B1FFF76BFD064645
:1011000009E0286A40F004002862EEE7FFF762FD7C
:10111000811B59455BD8286A8007F7D50BE0FFF79C
:1011200059FD064604E0FFF755FD811B59454ED891
:10113000286A8007F7D41FB1E86920F08050E86181
:10114000E069A8B36968C1F38101022946D0022889
:10115000484606D0C8F86000FFF73CFD044639E079
:1011600035E04746C8F86000FFF734FD064604E066
:10117000FFF730FD801B022829D828688001F7D4AA
:10118000206AB0F5803F05D16868A16820F400307E
:1011900008436860D4E908010843696821F47411C0
:1011A00008436860C7F860A0FFF714FD044605E037
:1011B00023E0FFF70FFD001B022808D828688001F4
:1011C000F7D51AE0FFF706FD001B022802D903201D
:1011D000BDE8F88F28688001F4D40EE00128F7D02C
:1011E0006868226A00F48031914204D1616A00F497
:1011F0007010884201D00120EAE70020E8E70000F3
:1012000000100240000042428004424210000020D0
:101210000070004010B5401EB0F1807F01D3012066
:1012200010BD4FF0E02460610F21601701F05EFCFB
:101230000020A06107202061002010BD704770478A
:1012400010B590F83C20012A22D0012280F83C20E1
:10125000CA688C6822F4407222434C6822F480628F
:1012600022430C6822F4006222430C6922F480526B
:1012700022434C6922F400522243C969002322F41C
:1012800080420A4301684A6480F83C30002010BD67
:10129000022010BD70B590F83C20012A26D001250F
:1012A00080F83C50022280F83D2002685368946820
:1012B00023F070060B68334353600D4B02689A426B
:1012C00008D0B2F1804F05D00A4B9A4202D00A4BA7
:1012D0009A4204D1496824F080031943916080F850
:1012E0003D50002180F83C10084670BD022070BDC2
:1012F000002C0140000400400008004010B504002C
:1013000003D094F83D0010B107E0012010BD00208B
:1013100084F83C00204600F01FF8022084F83D00CD
:10132000211D206801F0E6F9012084F8460084F8C8
:101330003E0084F83F0084F8400084F8410084F8BF
:10134000420084F8430084F8440084F8450084F89F
:101350003D00002010BD000008B500680B49884220
:1013600012D10B48C16941F00201C161C06900227C
:1013700000F00200009001211D20FFF79BFCBDE85A
:1013800008401D20FFF788BC08BD00000004004095
:101390000010024090F83D10012901D00120704753
:1013A000022180F83D100168CA6842F00102CA605B
:1013B00000680B49884208D0B0F1804F05D0094938
:1013C000884202D00849884204D1816801F00701AF
:1013D000062903D0016841F0010101600020704737
:1013E000002C0140000400400008004070B5044695
:1013F00090F83C00012817D0012584F83C500220C9
:1014000084F83D002068826822F0770222F47F424F
:1014100082600868502830D00DDC20284DD005DCD3
:1014200098B310283BD148E0022070BD302844D04A
:10143000402834D139E0602828D0702806D0B0F593
:10144000805F2CD0B0F5005F29D10AE0CB68D1E9EC
:101450000121206801F091F92068816841F077014D
:1014600009E0CB68D1E90121206801F086F9206804
:10147000816841F48041816011E0CA684968206850
:1014800001F036FA5021206807E016E0CA68496882
:10149000206801F03EFA6021206801F078F984F8B4
:1014A0003D50002084F83C0070BDCA68496820683F
:1014B00001F01EFA40212068EFE72268014610463D
:1014C000EBE72DE9F0410D46040003D094F83D0010
:1014D00018B108E00120BDE8F081002084F83C004C
:1014E000204600F041F8022084F83D002068816821
:1014F00044F2070291438160211D206801F0FAF84F
:10150000206881688269066A2B68AF690B4340F2E4
:1015100003318A4342EA0722A968EF6911434FF673
:10152000FC429143EA6841EA07210A4329692F6A8C
:10153000090141EA073111436A686D6926F0220604
:1015400046EA05152A4383602068816154F8460BFA
:101550000262012004F81F09E0752076E07620770A
:10156000A0750020B7E7000000B585B0002100910C
:1015700001910291039101682148B1F1804F22D07D
:10158000204A91421DD1C16941F00401C161C16984
:1015900001F004010491816941F0080181618069D1
:1015A000694600F008000490C02000901648FFF73C
:1015B00021FA002203211E20FFF77CFB1E20FFF7EB
:1015C0006BFB05B000BDC16941F00101C161C1699A
:1015D00001F001010491816941F004018161806998
:1015E000694600F004000490032000900748FFF7CC
:1015F00001FA002203211C20FFF75CFB1C20DEE720
:101600000010024000080040000C014000080140AA
:1016100070B590F83E50044690F83F3090F8422064
:1016200090F84300022621B104290BD0012D16D1D8
:101630000FE0012D13D1012A11D184F83E6084F806
:10164000426016E0012B0AD1012808D184F83F60DE
:101650000DE0012B03D1012A01D1012801D0012085
:1016600070BD84F83E6084F83F6084F8426084F87E
:10167000436091B1042904D001220021206801F0C7
:101680006FF801220421206801F06AF820680168DF
:1016900041F001010160002070BD0122002120689D
:1016A000F2E7704770B50446006801694FF0000525
:1016B000C943890715D4C168C943890711D4E91EF4
:1016C000016101202077206880698007204602D0D0
:1016D000FFF7E7FF04E000F0BFF8204600F062F9F2
:1016E000257720680169C943490717D4C168C943F0
:1016F000490713D46FF004010161022020772068AC
:10170000806910F4407F204602D0FFF7CAFF04E052
:1017100000F0A2F8204600F045F92577206801691D
:10172000C943090716D4C168C943090712D46FF029
:1017300008010161042020772068C06980072046E5
:1017400002D0FFF7AEFF04E000F086F8204600F07C
:1017500029F9257720680169C943C90617D4C168EA
:10176000C943C90613D46FF0100101610820207726
:101770002068C06910F4407F204602D0FFF791FF37
:1017800004E000F069F8204600F00CF925772068A5
:101790000169C943C90708D1C168C943C90704D150
:1017A000891E0161204600F04FF920680169C94394
:1017B000090609D4C168C943090605D46FF0800140
:1017C00001612046FFF73AFD20680169C9434906D7
:1017D00009D4C168C943490605D46FF040010161CD
:1017E000204600F0DBF920680169C94389060BD463
:1017F000C168C943890607D46FF020010161204602
:10180000BDE87040FFF71BBD70BD000000B585B09E
:101810000021009101910291039100680B498842D7
:1018200012D10B48816941F00401816180696946E8
:1018300000F0040004904FF410600090022001902A
:1018400003900448FFF7D6F805B000BD002C014016
:101850000010024000080140704770B5044690F83F
:101860003C000D4601280AD0012084F83C0042B11A
:10187000042A18D0082A2AD00C2A4DD139E0022097
:1018800070BD206800F08CFF2068816941F008017C
:1018900081612068816921F004018161206881698A
:1018A0002A69114311E0206800F0A6FF20688169D1
:1018B00041F4006181612068816921F48061816166
:1018C000206881692A6941EA0221816124E0206857
:1018D00000F0C0FF2068C16941F00801C1612068C3
:1018E000C16921F00401C1612068C1692A691143FD
:1018F00011E0206800F0DAFF2068C16941F400615E
:10190000C1612068C16921F48061C1612068C16939
:101910002A6941EA0221C161002084F83C0070BDBF
:1019200010B5040003D094F83D0010B107E0012089
:1019300010BD002084F83C00204600F01FF8022073
:1019400084F83D00211D206800F0D4FE012084F8B9
:10195000460084F83E0084F83F0084F8400084F894
:10196000410084F8420084F8430084F8440084F87D
:10197000450084F83D00002010BD000008B5006857
:101980000649884208D10648816941F400618161B5
:10199000806900F40060009008BD0000002C014048
:1019A000001002407047000010B5044649B10429F8
:1019B0000AD008290BD094F8410001280AD0012050
:1019C00010BD94F83E00F8E794F83F00F5E794F86E
:1019D0004000F2E7022041B3042929D008292AD087
:1019E00084F841000122206800F0BAFE1349206803
:1019F000884203D1426C42F400424264206888422B
:101A000008D0B0F1804F05D00D49884202D00D4971
:101A1000884204D1816801F00701062903D00168DA
:101A200041F001010160002010BD84F83E00D9E7BB
:101A300084F83F00D6E784F84000D3E7002C01404B
:101A400000040040000800402DE9F0414A49884266
:101A50007DD14A4802F0EAF8494C2081494802F019
:101A6000E5F8404201B26181B4F90820E0684FF422
:101A7000DD661044E06090FBF6F0226955182561A0
:101A8000FEF7A0FD404FDFF804813A464346FEF7DB
:101A9000AAFCFEF7F3FD606195FBF6F0FEF792FD00
:101AA0003A464346FEF79FFCFEF7E8FD384FA0613B
:101AB000384D3878384E022801D0032818D12878BC
:101AC000012815D13078012812D101F0C7FE206A13
:101AD000FEF789FDE063A06AFEF785FD28492064D2
:101AE0004031081F01F07EFDD4E90F0101F01AFE1C
:101AF000387804281BD1E07901283BD128780128C7
:101B000038D13078012835D102F08AF9606BFEF7C0
:101B10006AFDE063A06BFEF766FD19492064403161
:101B2000081F01F05FFDD4E90F0101F0FBFD3878DB
:101B300001281FD1E07801281CD12878012819D16B
:101B40003078012816D101F0B3FD606B00E011E0A0
:101B5000FEF749FDE063A06BFEF745FD08492064F0
:101B60004031081F01F03EFDD4E90F01BDE8F0410E
:101B700001F0D8BDBDE8F08130010020E800002070
:101B80001800002078010020083D9B559F6B3440D1
:101B9000000000201400002015000020704770474E
:101BA00070B5026804461068D168536910F00F0FD1
:101BB00052D003F0010501F490762E435FD0C207A6
:101BC00005D0CA0503D5E26B42F00102E263420789
:101BD00005D5DA0703D0E26B42F00202E263820726
:101BE00005D5DA0703D0E26B42F00402E263020794
:101BF00007D501F020022A4303D0E26B42F008022D
:101C0000E263E26B002A33D0800604D5880602D551
:101C1000204600F0A6FE20684069E16BC0F380100A
:101C2000090700D428B3204600F08DFE20684169E2
:101C300049061AD5416921F040014161606BA0B1AC
:101C40002D494163606BFEF777FE002810D0606B72
:101C5000416BBDE870400847830610D58B060ED552
:101C60002046BDE8704000F07CBE2046FFF797FF9D
:101C700070BD2046FFF793FF0020E06370BD0306B0
:101C80002BD50B0629D594F839002128F6D1A06868
:101C9000B0F5805F01D12069B0B1206A411C21629A
:101CA000216800784860E08C401E0004000CE0844D
:101CB000E4D12068C16821F08001C1602068C1685A
:101CC00041F04001C16070BD206A0088C0F3080087
:101CD0005060206A801C2062E5E74006F3D5480684
:101CE000F1D5D168204621F04001D160202184F84F
:101CF000391000F0DFF870BD3729000870B5040016
:101D000004D094F83900002510B106E0012070BD20
:101D100084F83850204600F023F8242084F8390055
:101D20002068C16821F40051C160204600F060FEC7
:101D30002068016921F4904101612068416921F026
:101D40002A0141612068C16841F40051C160E56326
:101D5000202084F8390084F83A00002070BD00008B
:101D600070B586B000240094019402940394006836
:101D70002D4E2E49022203232D4DB04226D18869D3
:101D800040F480408861886900F48040049088694C
:101D900040F0040088618869039300F00400049017
:101DA0004815CDE9000269462846FEF723FE2815AE
:101DB000CDE90004694628460294FEF71BFE002286
:101DC00002212520FEF776FF252028E0194EB0429B
:101DD00027D1C86940F40030C861C86900F40030F8
:101DE0000490886940F0040088618869694600F0C1
:101DF000040004900420CDE9000203932846FEF776
:101E0000F9FD0820CDE90004694628460294FEF752
:101E1000F1FD002201212620FEF74CFF2620FEF7CF
:101E20003BFF06B070BD00000038014000100240CA
:101E3000000801400044004090F83A30202B22D1A5
:101E4000F9B1F2B190F83830012B1CD08162828553
:101E5000C2850021C163222280F83A2080F8381020
:101E60000168CA6842F48072CA6001684A6942F037
:101E700001024A610068C16841F02001C160002090
:101E8000704701207047022070470000074910B5D5
:101E900088420AD10648007801F028FBBDE81040CE
:101EA000012203490148FFF7C7BF10BD000200200F
:101EB000010000207047FEE770B501220E4D54026C
:101EC00021462846FEF781FE0122160231462846A9
:101ED000FEF77BFE00F048F8002221462846FEF778
:101EE00074FE00F041F8002231462846FEF76DFEF0
:101EF000BDE8704000F038B8000C014070B50B4DE3
:101F00004FF40074002221462846FEF75EFE0122AF
:101F100011022846FEF759FE00F026F82146284611
:101F2000BDE870400122FEF750BE0000000C0140E9
:101F300070B50C4C012251022046FEF746FE00F01F
:101F400013F80122150229462046FEF73EFE00F056
:101F50000BF8002229462046FEF737FEBDE8704008
:101F600000F002B8000C01400320401EC0B2FCD2B9
:101F7000704700002DE9F04186B000243D480094F0
:101F8000019402940394816941F010018161816997
:101F900001F010010491816941F0200181618169A2
:101FA00001F020010491816941F00401816181699E
:101FB00001F004010491816941F0080181618069A7
:101FC000012200F008002C4F5503049029463846A2
:101FD000FEF7FBFDDFF8A48000224FF4734140467A
:101FE000FEF7F3FD012218214046FEF7EEFD0095B5
:101FF000022601250396CDE9015469463846FEF7CD
:10200000F9FCE803CDE90004694638460294FEF77E
:10201000F1FC7020CDE90004694619480294FEF7EE
:10202000E9FC0327009769464046CDE90145FEF7E4
:10203000E1FC4FF21800CDE90005CDE90246694602
:102040004046FEF7D7FC28021125CDE90005CDE971
:10205000024769464046FEF7CDFC3002CDE9000557
:10206000CDE9024669464046FEF7C4FC06B0BDE82D
:10207000F08100000010024000100140000C0140FF
:102080000008014010B592B000240F941C2168464E
:102090001094FEF760F8202107A8FEF75CF82448AA
:1020A0002249C0E9001441F61F41C0E902418021E4
:1020B0000461C0E90541FFF733FC08B1FEF73AFCC3
:1020C0000F940FA91A481094FFF7E4F808B1FEF72F
:1020D00031FC6020CDE9000402940394049405943B
:1020E0000022694612480694FFF7B7FB08B1FEF7D5
:1020F00021FC0C2269460E48FFF7AFFB08B1FEF742
:1021000019FC0794089409944FF400500A94CDE9FF
:102110000B4007A906480E94FFF792F808B1FEF7A6
:1021200009FC0348FFF772FB12B010BD002C014000
:10213000A000002010B58CB024216846FEF70BF8F3
:102140000024154809944FF080410A94C0E9001416
:102150004FF6FF71C0E90241046184610320CDE9BB
:1021600000040120CDE902040494CDE90540079460
:10217000694609480894FFF7A4F908B1FEF7DAFBAD
:10218000099409A904480A94FFF784F8002801D0AB
:10219000FEF7D0FB0CB010BDE800002010B586B0F3
:1021A0000024174800940194029403940494134962
:1021B0000594016041F61F41C0E90114C721C0E93F
:1021C00003148461FFF79AF808B1FEF7B3FB4FF4EC
:1021D0008050009069460A48FFF708F908B1FEF7F9
:1021E000A9FB049404A906480594FFF753F80028B6
:1021F00001D0FEF79FFB06B010BD000000040040B8
:102200003001002010B58CB024216846FDF7A3FFF3
:1022100000241648099414490A94C0E900144FF6A2
:10222000FF71C0E90241046184610320CDE900042B
:102230000120CDE902040494CDE9054007946946E4
:102240000A480894FFF73DF908B1FEF773FB0994BB
:1022500009A906480A94FFF71DF8002801D0FEF7E7
:1022600069FB0CB010BD00000008004078010020A0
:102270000C4810B50A4901604FF4E131416000217A
:1022800081600C22C160C0E904128161C161FFF765
:1022900035FD002803D0BDE81040FEF74BBB10BD54
:1022A00000380140C00100200C4810B50A49016007
:1022B0004FF4E1314160002181600C22C160C0E92E
:1022C00004128161C161FFF719FD002803D0BDE848
:1022D0001040FEF72FBB10BD00440040000200205C
:1022E000FEE7FEE730B40021084B0A46002003EB6E
:1022F000C004401CC0B262548028F8D3491CC9B243
:102300000829F3D330BC00F0ABB800004002002035
:1023100028B1012806D10021A72000F05FB90021D3
:10232000A620FAE7704710B558B1012810D1002156
:10233000C02000F053F90021A020BDE8104000F0BB
:102340004DB90021C82000F049F90021A120F4E78F
:1023500010BD000030B5CC0801F0070301259D40F9
:10236000EBB2064D05EBC005C808285C0AB118435E
:1023700002E063EA0000C043285530BD400200205F
:1023800010B5C820FEF724FB0021AE2000F026F98E
:102390000021084600F022F90021102000F01EF96B
:1023A0000021402000F01AF90021812000F016F9E8
:1023B0000021CF2000F012F90021A12000F00EF939
:1023C0000021C82000F00AF90021A62000F006F93B
:1023D0000021A82000F002F900213F2000F0FEF8C3
:1023E0000021D32000F0FAF80021084600F0F6F8AA
:1023F0000021D52000F0F2F80021802000F0EEF856
:102400000021D92000F0EAF80021F12000F0E6F8E0
:102410000021DA2000F0E2F80021122000F0DEF8BE
:102420000021DB2000F0DAF80021302000F0D6F89F
:102430000021202000F0D2F80021022000F0CEF888
:1024400000218D2000F0CAF80021142000F0C6F809
:10245000FFF748FF0021BDE81040AF2000F0BEB8F4
:1024600070B5174E002505F1B000C0B2002100F094
:10247000B5F80021084600F0B1F80021102000F066
:10248000ADF8FFF719FD782000F0C6F8FFF750FD12
:10249000402000F0C1F8FFF74BFD002406EBC4001C
:1024A000405D00F0B9F8FFF743FD641CE4B2802CF6
:1024B000F4D3FFF723FD6D1CEDB2082DD3D370BD0F
:1024C000400200202DE9FC4F1D46884681468B4680
:1024D0000090082B0DD0680700D0012000EBD5003C
:1024E00069084843C0B2203A02F0FF0A0026019072
:1024F00046E00620F7E7082D10D00C2D14D0102D43
:1025000016D0182D3FD122490AEBCA0001EB8000FA
:102510000027845DE0070FD00B9A10E01D490AEBFD
:102520004A0001EB4000F3E70AEB4A001A49EDE7E5
:102530001A4901EB0A10EBE70B9830B30022414631
:102540004846FFF707FF7F1C640808F10100FFB24F
:1025500000F0FF08082FDDD309F1010000F0FF09AA
:10256000082D0AD00099A9EB0100B0EB550F04D15A
:102570000BF10800894600F0FF0B761CD846F6B236
:1025800001988642B7D3BDE8FC8F0122D7E700004F
:102590006C4B0008E03E0008084100087C4500083C
:1025A0002DE9F8411E46154688460446079F0BE074
:1025B0003346414620460097FFF784FF082E0AD095
:1025C00004EB5600C4B26D1C2A78A2F120005E28EC
:1025D000EED9BDE8F881A41DE4B2F4E770B50C466D
:1025E0000546FFF769FC782000F016F8FFF7A0FC1D
:1025F0000CB1402000E0002000F00EF8FFF798FC3E
:10260000284600F009F8FFF793FCBDE87040FFF79B
:1026100075BC7047704700002DE9F041124F00244F
:1026200005464FF40078BE15280601D5012200E0CA
:10263000002241463846FEF7C8FAFFF795FC012212
:1026400031463846FEF7C1FAFFF78EFC00223146CC
:102650003846FEF7BAFA6806641C050EE4B2082C88
:10266000E2D3BDE8F0810000000C0140FEF7B8BAEB
:1026700030B58FB028216846FDF76DFD14210AA8FA
:10268000FDF769FD0120010400248DE8130004908A
:102690004FF4E010CDE90810022507956846FEF7D3
:1026A0002DFC08B172B6FEE70F20CDE90A054FF404
:1026B0008060CDE90C4002210AA80E94FEF72CFBA5
:1026C000002801D072B6FEE70FB030BD70470000A1
:1026D0000148FEF7E7BF0000E80000200148FEF7D0
:1026E000E1BF0000300100200148FEF7DBBF000021
:1026F00078010020F0B50268164C174D174E4FF0C8
:102700008047A04205D0B84203D0A84201D0B042D1
:1027100003D122F070034A681A43A04205D0B842A0
:1027200003D0A84201D0B04203D122F44073CA685A
:102730001A434B6922F080021A4302608A68C2621F
:102740000A688262A04201D10969016301214161E5
:10275000F0BD0000002C01400004004000080040D3
:1027600010B501F01F010123046A8B409C430462F1
:10277000036A8A401343036210BD10B5846842EABD
:10278000032224F47F440A432243826010BD8268FE
:1027900022F070020A4342F0070181607047000096
:1027A00030B5026A22F001020262036A426884695B
:1027B00024F073050C682C4323F002058B682B432F
:1027C0000C4DA84206D123F00805CB6843EA050367
:1027D00023F0040307D14D6922F4407245EA020553
:1027E0008A6942EA05024260846149684163036282
:1027F00030BD0000002C014030B5026A22F010020A
:102800000262026A436884690D6824F4E64444EA7B
:1028100005248D6822F0200242EA05120C4DA842E0
:1028200006D1CD6822F0800242EA051222F0400271
:1028300007D14D6923F4406343EA85038D6943EA78
:1028400085034360846149688163026230BD000092
:10285000002C014030B5026A22F480720262036AE1
:102860004268C46923F4007324F073050C682C4398
:102870008D6843EA05230C4DA84206D1CD6823F4A8
:10288000006343EA052323F4806307D14D6922F4F2
:10289000405242EA05128D6942EA05124260C46163
:1028A0004968C163036230BD002C014030B5026A43
:1028B00022F480520262036A4268C4690D6824F4FB
:1028C000E64444EA05248D6823F4005343EA0533C3
:1028D000064DA84204D14D6922F4804242EA851295
:1028E0004260C46149680164036230BD002C01404C
:1028F00010B5046A036A23F001030362836923F0BD
:10290000F00343EA021324F00A020A4383610262DD
:1029100010BD10B5036A23F0100303628469036AD3
:1029200024F4704444EA023223F0A00343EA011184
:102930008261016210BD10B5406A0021C185C18469
:10294000FFF72DF910BD0168CA6822F49072CA60C1
:1029500001684A6922F001024A61202180F83A1098
:10296000704710B590F83A10222901D0022010BD0E
:1029700081684FF48053994201D1026922B1826A81
:1029800099421BD049B10AE00268816A5268C2F3D9
:1029900008020A80816A891C08E0016971B1016836
:1029A000496801F07F011170816A491C8162C18D03
:1029B000491E0904090CC18503D016E00168496865
:1029C000F1E70168CA6822F02002CA600168CA689B
:1029D00022F48072CA6001684A6922F001024A61E9
:1029E000202180F83A10FFF751FA002010BD0000B6
:1029F00070B5044600680169E26821F44051114352
:102A00000161A16820690143606901432068C268CF
:102A100041F20C639A430A43C26020684169A2698B
:102A200021F44071114341611E492068884202D15E
:102A3000FEF71EFA01E0FEF70BFA00EBC00101EB16
:102A40000011606864228000B1FBF0F3B3FBF2F385
:102A50006FF018067343B1FBF0F5B1FBF0F605EB30
:102A60008305322303EB0515B5FBF2F5B6FBF2F651
:102A700005F0F00505EB0615B1FBF0F6B1FBF0F043
:102A8000B0FBF2F06FF01801484306EB800003EB57
:102A90000010B0FBF2F0216800F00F0028448860BD
:102AA00070BD0000003801400148FFF779B8000010
:102AB000C00100200148FFF773B8000000020020A9
:102AC000FEE700000FB4084B10B504A902AA039852
:102AD00000F0EEF8044602A9002000F06CFC20464D
:102AE00010BC5DF814FB0000B73300080907090E9D
:102AF000002804DB00F1E02080F80014704700F0AB
:102B00000F0000F1E02080F8141D704702E008C8B3
:102B1000121F08C1002AFAD170477047002001E057
:102B200001C1121F002AFBD1704700002DE9FF5F91
:102B300082B00021DDE90430020DDDF840B003432E
:102B400018D044F61050A2F2FF32424315141198E7
:102B500001281FD0A5EB0B00401C5FEA000A4FF0D4
:102B600000064E4FDFF83891B046504615D5CAF1F1
:102B7000000413E0119801244AA3012801D16FEA4F
:102B80000B010298119AC0E90031C0E9024206B077
:102B9000BDE8F09FCBF10000DFE704460021404A8A
:102BA000491842EB0450CDE9001012E0E00707D0CD
:102BB00032463B4640464946FDF715FC804689466D
:102BC00032463B4610461946FDF70DFC06460F46B9
:102BD0006410002CEAD1DDE90401DDE90023BAF13B
:102BE000000F06DAFDF7FFFB42464B46FDF7FBFB05
:102BF00005E0FDF76AFC42464B46FDF766FC0446DD
:102C00000E460022284BFDF769FE03D84FF0FF3037
:102C1000014607E00022254B20463146FDF73CFBEC
:102C2000FDF744FE102409E0002C0ADB0A220023F1
:102C3000FDF756FD039B30321A55641E50EA01021F
:102C4000F2D1641C039AC4F111031444119A012AAD
:102C500003D0012208430DD10AE0084304D000202C
:102C60004FF0110B119072E7A3EB0B056D1E0DE0F9
:102C70005B4504DD4FF0000205F1010504E003DAD5
:102C80004FF00002A5F10105002AECD0029811993D
:102C9000C0E90231C0E9004579E7000000001440B6
:102CA0000000F03F300000000000F0430000E03F73
:102CB0002DE9FF4F95B09A46884606460025EEE17D
:102CC000252877D100242746F94A0121039400E002
:102CD000044316F8013F203B01FA03F01042F7D1FC
:102CE00030782A2811D06FF02F033078A0F130020D
:102CF000092A16D8039A44F0020402EB820203EB7D
:102D000042021044761C0390EFE758F8042B03921C
:102D1000002A03DA504244F40054039044F00204C1
:102D2000761C30782E2816D116F8010F44F00404D2
:102D30002A280DD06FF02F023078A0F13003092B34
:102D400009D807EB870302EB4303C718761CF3E7A8
:102D500058F8047B761C30786C280FD006DC4C28A1
:102D600017D068280DD06A2814D104E0742810D038
:102D70007A280FD10DE044F400140AE044F48014E2
:102D800001E044F440147278824202D104F58014C8
:102D9000761C761C307866280BD013DC582877D048
:102DA00009DC002875D04528F6D04628F4D04728FD
:102DB0001AD193E118E0632835D0642879D06528CA
:102DC00012D18BE1702873D008DC6728F1D0692814
:102DD0006FD06E280DD06F2806D1ACE073282CD0B0
:102DE000752874D0782853D05246179990476D1C97
:102DF00054E1C4F30250022809D003280DD0D8F8BA
:102E0000001004280DD00D6008F1040846E1D8F840
:102E10000010EA17C1E90052F6E7D8F800100D805B
:102E2000F2E70D70F0E718F8041B8DF80010002091
:102E30008DF80100EB46012003E058F804BB4FF089
:102E4000FF3061074FF0000102D40DE009F10101EC
:102E50008946B9420FDA8145F8DB1BF809100029D1
:102E6000F4D108E009F1010189468142FADB1BF83F
:102E700009100029F6D103985346A0EB0907214613
:102E80003846179A00F080FA284400EB090507E05D
:102E900044E008E10DE01BF8010B524617999047FA
:102EA000B9F10109F7D2534621463846179AF2E0A4
:102EB00039E00A21C4F302524FF0000B0091022ABC
:102EC00006D058F8040BC117032A09D00AE023E002
:102ED00008F1070020F00702F2E80201904605E041
:102EE00000B2C117042A01D140B2C117002906DA85
:102EF0000A460021404261EB02012D2202E0220538
:102F000004D52B228DF80420012203E0E20701D032
:102F10002022F7E7914657E00A2100E010214FF008
:102F2000000B00910BE010214FF0000B44F0040463
:102F30000827009103E008204FF0000B0090C4F335
:102F40000252022A05D058F8040B0021032A08D0A7
:102F500008E008F1070020F00702F2E802019046BD
:102F600003E080B2042A00D1C0B24FF0000922076A
:102F70002AD53278702A07D0DDF800C08CF0100C0A
:102F80005CEA0B0C05D00EE040228DF804200122F3
:102F900008E050EA010306D030238DF804308DF8A4
:102FA000052002229146009B83F0080353EA0B039D
:102FB0000AD150EA010201D1620705D530228DF80D
:102FC00004204FF001097F1E3278582A04D039A21C
:102FD0000C920CAA02920BE03BA2F9E75B46009A26
:102FE000FDF77EFB0C9B9B5C029A521E02921370B3
:102FF00050EA0102F2D1029804A9081A00F1200B4C
:10300000600702D524F4803400E001275F4502DD2B
:10301000A7EB0B0000E0002000EB0B0100900398F1
:103020004944401A0390E00306D453462146179AB8
:10303000039800F0A9F90544002706E001A85246CC
:10304000C05D179990476D1C7F1C4F45F6DBE00370
:103050000CD553462146179A039800F095F905447C
:1030600004E030205246179990476D1C0099481E85
:1030700000900029F5DC08E0029802995246007899
:10308000491C0291179990476D1CBBF10001ABF1EF
:10309000010BF1DC5BE100F065F90544761C30784A
:1030A00000287FF40DAE19B02846BDE8F08F00006F
:1030B000092801003031323334353637383961620E
:1030C00063646566000000003031323334353637D2
:1030D000383941424344454600000000600700D4AF
:1030E000062708F1070020F00700F0E802238046D9
:1030F00003F0004C5FEA0C0001D097A009E0200526
:1031000001D596A005E0E00701D095A001E0AFF25F
:103110004C001390307823F0004365280CD006DC77
:10312000452809D046281DD047287FD13BE0662896
:1031300018D067287AD136E00021112F01DB112049
:1031400000E0781CCDE9000104A90CA8FFF7EEFC13
:10315000DDE90D010C9A4FF0000B07F10109109207
:1031600000914EE04FF000400097CDE9011004A916
:103170000CA8FFF7DBFCDDE90D020C9B0F994FF06B
:10318000000B91461093009211B9791C00EB0109D4
:10319000B7EB090003D4C0F1FF3B07F10109A9EB2C
:1031A0000700019042E0012F00DA01270021112FD2
:1031B00001DD112000E03846CDE9000104A90CA88A
:1031C000FFF7B4FCDDE90D010C9A00914FF0000B04
:1031D000B946109221070FD4009A4A4503DA914666
:1031E00001E0A9F10109B9F1010F05DD109AA9F17A
:1031F0000101515C3029F4D0B84202DA10F1040F19
:1032000003DA0121CDE9011010E0002803DC83443A
:10321000A9EB000102E0411C494500DD8946A0EB15
:103220000B00401C01904FF000400290200705D495
:103230000198484502DB4FF0FF30019000208DF8E7
:103240004B0002980DF14B07B0F1004F25D0022042
:103250000C902B200D90029800280CDA404202902E
:103260002D200D9007E00A210298FDF723FA303156
:10327000029007F8011D0C99481E0C900029F2DC01
:1032800002980028EFD1791E0D980870307800F070
:10329000200040F0450007F8020D11A8C01BC01D1A
:1032A00002901398007800B1012000EB0901019809
:1032B00001EBE071029801440398401A401E03900C
:1032C000E00306D453462146179A039800F05CF8B1
:1032D00005441398007818B15246179990476D1C11
:1032E000E00323D553462146179A039800F04CF883
:1032F00005441BE0BBF1000F07DB0098584504DDD7
:103300001098179910F80B0001E0179930205246D9
:10331000904701980BF1010B401E05F1010501904A
:1033200004D12E205246179990476D1CB9F1000127
:10333000A9F10109DEDC05E017F8010B52461799E7
:1033400090476D1C0299481E02900029F4DC5346F8
:103350002146179A03989EE62D0000002B000000DE
:10336000200000002DE9F041044600251E461746C6
:10337000880404D405E039462020B0476D1C641E43
:10338000F9D52846BDE8F0812DE9F0410446002535
:103390001E469046C80301D5302700E02027880448
:1033A00004D505E041463846B0476D1C641EF9D58A
:1033B0002846BDE8F0810A68531C0B601070704706
:1033C00070B5164C05460120E07000212171617135
:1033D000A1716161A161E16028462161FDF7E4F816
:1033E000E0612846FDF7EEF80D4A0E4BFDF76DF84B
:1033F00000220D4BFCF7F7FFFDF740F904460146AC
:103400000A4800F031FC2146094800F02DFC00F08C
:1034100013FCBDE8704000F01BBC00001800002049
:10342000083D9B559F6B344000A09B400007002047
:10343000200700202DE9F041050020484FF0000151
:103440004FF00102C170017142718171416181616E
:10345000C16001611A481B4E1B4F05D01B49012D4D
:1034600003D0022D0CD019E01949FDF707F9FDF73B
:10347000F2F832463B46FCF7B6FFFDF7FFF80CE0EA
:10348000FDF7FCF8FDF7E7F8124A134BFCF7ABFF2A
:10349000FDF7F4F80121FCF7F3FE044684F0004147
:1034A0000E4800F0E1FB21460D4800F0DDFB00F086
:1034B000C3FBBDE8F04100F0CBBB000018000020CA
:1034C000CA6F868D0AD7A3703D0AEF3F572F94C06D
:1034D000572F9440713D0AD7A370ED3F000700209D
:1034E00020070020002800DC4042704710B51C4C2B
:1034F000002123781B4A23B32378012B27D023787C
:10350000022B2BD16378D0545B1CD8B260700B288F
:1035100024D10020135C401C1944C0B2C9B20A284F
:10352000F8D3907A88420AD1D088FDF746F86FF038
:103530000E01FCF7A5FE0C49FCF770FE6060002050
:103540000AE055280AD161785054012004E053283C
:1035500004D16178505402202070607010BD0000CA
:103560006000002080070020000034432DE9F04176
:1035700000241A4D1A4E012708B12F7001E0287857
:1035800048B101213046FDF71BFB58B102213046FE
:10359000FDF716FB30B101213046FDF711FB012884
:1035A00012D018E00A20FDF713FA0020287001213C
:1035B0003046FDF705FB00B9012402213046FDF736
:1035C000FFFA40B9022406E002213046FDF7F8FA7E
:1035D000012800D12F702046BDE8F081680000204E
:1035E000000C014010B541F6583302685C429A4223
:1035F00001DD036002E0A24200DA0460086898423C
:1036000001DD0B6010BDA042FCDA0C6010BD0000B3
:1036100010B500F037FC05494864FCF7C5FF0146CA
:10362000BDE81040024800F005B800001800002076
:10363000600700202DE9F04104460068FCF7E8FD32
:103640004FF07E51A060884203DA10F1814F00D222
:10365000A160A068E269054601461046FCF786FDB8
:103660001149E061884202DA1049884200D9E161DB
:103670002846E168FCF7CCFDA169FCF7CFFD0646C2
:10368000E1696069FCF7CAFD074629462069FCF735
:10369000C5FD3946FCF76AFD3146FCF767FDE5607C
:1036A0006060BDE8F081000000007A4400007AC448
:1036B00070B516480078012803D015480078012815
:1036C00022D1144CA078401CC0B2A070022804D3B0
:1036D0000020A070FFF79CFF20630F4D216B284650
:1036E000FCF796FD01460D4800F0BEFA2946206B16
:1036F000FCF73CFD01460A4800F0B6FA00F0B6FAC5
:10370000606300F0D9FAA06370BD000014000020CF
:1037100015000020180000200000C842C00600204C
:10372000E00600202DE9F0410E461B4C051E4FF42B
:1037300000514FF4805705DD00222046FDF745FA81
:10374000012204E001222046FDF73FFA002239461B
:103750002046FDF73AFA2846FFF7C4FE0F4D2968C8
:1037600008644FF480414F00002E05DD0022204602
:10377000FDF72BFA012204E001222046FDF725FA8D
:10378000002239462046FDF720FA3046FFF7AAFE10
:1037900029684863BDE8F081000C0140A0000020CA
:1037A000084810B5C068FCF7FFFE0146064800F067
:1037B0002BF80649884202DC0549884200D90846B0
:1037C00010BD000018000020000700200000C842C3
:1037D0000000C8C2084810B50069FCF7E5FE0146C4
:1037E000064800F011F80649884202DC0549884283
:1037F00000D9084610BD0000180000202007002056
:103800000000C8420000C8C22DE9F041044600682B
:10381000FCF7FEFC0546A0602946E069FCF7A6FC23
:10382000E06107462846E168FCF7F2FCA169FCF775
:10383000F5FC064639466069FCF7F0FC0746294668
:103840002069FCF7EBFC3946FCF790FC3146FCF7AD
:103850008DFCE5606060BDE8F0810000134810B5A4
:103860000078012803D01248007801281CD1114C9F
:103870002078401CC0B22070022807D3002020709E
:10388000FFF78EFF6062FFF7A5FFE0620A48616AFA
:1038900000F0EAF90948E16A00F0E6F900F0E6F91B
:1038A000206200F009FAA06210BD000014000020A0
:1038B0001500002018000020C0060020E0060020AF
:1038C00008B5FDF795F9FEF7D3FEFEF753FBFEF7BB
:1038D000D9FBFEF72FFCFEF795FCFEF75FFCFEF729
:1038E000C7FCFEF7E1FC3C215248FDF791FE3C216C
:1038F0005148FDF78DFE4F48FDF74CFD4E48FDF752
:1039000049FD00F099F900F0A3F90C214B48FEF7AE
:103910004BF800214948FEF747F84948FDF73AFDC2
:1039200000F038F9012247494748FEF785FAFEF7CB
:1039300027FD0020FEF7ECFC0020FEF7F4FC00243D
:10394000424DDFF80C814FF47A794FF4FA7A4FF454
:10395000B4770126287840B101280AD002280BD07C
:1039600003281ED0042831D050E000F081F82870E0
:103970004CE03848067049E00020FFF7F7FD20B31F
:10398000012802D0022841D104E04846FDF720F882
:10399000782003E04846FDF71BF83C20FFF710FDB8
:1039A00034E00020FFF7E2FD78B1012802D00228C0
:1039B0002CD104E05046FDF70BF8002003E0504600
:1039C000FDF706F80220FFF735FD1FE022480670DC
:1039D0000020FFF7CBFDC8B1012802D0022815D185
:1039E00006E05046FCF7F4FF5A3405E0002406E0F8
:1039F0005046FCF7EDFFB434A4B2BC42F6D82046E2
:103A0000FCF7DBFD0146154800F02EF9D8F8000060
:103A1000FCF721FE02460B4611A11448FFF752F8AD
:103A20001023124A202100200096FEF7B9FDFEF770
:103A300017FD8FE7E800002078010020A00000209B
:103A400030010020010000200002002000000020C2
:103A5000640000201B0000201F0000204007002001
:103A60005961773A25362E32660000006C0000203E
:103A700038B5002501240020FFF778FD50B101285A
:103A800002D0022806D11AE005206D1CB5FBF0F12A
:103A900000FB11552A4623A12548FFF713F81023F0
:103AA000234A002118460094FEF77AFDFEF7D8FC61
:103AB000052D17D2DFE805F0090D2A2E32004FF44C
:103AC000FA60FCF785FF284638BD102319A2009440
:103AD00002E010231BA2009410210846FEF760FDAF
:103AE000FEF7BEFC1B480068FCF7B5FD02460B461E
:103AF00019A10F48FEF7E6FF10230D4A20210020F0
:103B00000094FEF74DFDFEF7ABFCB4E7102315A2C1
:103B10000094E1E7102317A20094DDE7102319A217
:103B20000094D9E7675F6D6F64653A256400000013
:103B30006C00002073656C656374202020202020B9
:103B4000200000006C696E655F746573742020202E
:103B500020000000640000205961773A25362E329B
:103B6000660000006361725F676F5F746573742045
:103B7000200000006361725F7370696E5F7465732B
:103B8000740000007475726E5F7465737420202079
:103B900020000000204910B50020086048608860BF
:103BA000C8601E4BC861C1E90430886140391C4CB3
:103BB000086048608860C8600C611A4AC861C1E941
:103BC00005206031086048608860C860C861C1E94C
:103BD000043088614039086048608860C8600C61C2
:103BE000C861C1E9052060310F4A086048608860FB
:103BF000C860C861C1E90420886120314FF081426A
:103C0000086048608860C860C861C1E904204FF05E
:103C10007E50886110BD0000000700209A99993EEF
:103C20000000C040000008419A99993F0168486A25
:103C3000002200B24A6270470349012008700C213B
:103C40000248FDF7B1BE000014000020A0000020D3
:103C500003490120487000210248FDF7A5BE00007D
:103C600014000020A0000020016070470D4810B52E
:103C7000B0F90800FCF7A6FC00220B4BFCF7B3FBE5
:103C800000220A4BFCF7AFFB0022094BFCF71DFC9E
:103C9000FCF7C2FCFCF788FC0146BDE81040054873
:103CA00000F030B81800002000408F4000004E4067
:103CB0000044E140C00600200D4810B5B0F90A00EC
:103CC000FCF780FC00220B4BFCF78DFB00220A4B1B
:103CD000FCF789FB0022094BFCF7F7FBFCF79CFC87
:103CE000FCF762FC0146BDE81040054800F00AB848
:103CF0001800002000408F4000004E400044E1408A
:103D0000E00600202DE9F04104460068FCF780FA47
:103D1000A060B0F17C5F04DAB0F13F4F01D2002027
:103D2000A060E269054601461046FCF71FFA1149FA
:103D3000E061884202DA1049884200D9E1612846F0
:103D4000E168FCF765FAA169FCF768FA0646E169E3
:103D50006069FCF763FA074629462069FCF75EFABA
:103D60003946FCF703FA3146FCF700FAE56060607B
:103D7000BDE8F08100007A4400007AC4094810B51B
:103D80000068FCF730FCFCF70FFC0146064800F029
:103D900011F80649884202DC0549884200D90846E4
:103DA00010BD000064000020400700200000C84251
:103DB0000000C8C22DE9F04104460068FCF728FA6B
:103DC0001549A060884202DA1449884202D30020D3
:103DD000A060E061A568E0692946FCF7C7F9E061E9
:103DE00007462846E168FCF713FAA169FCF716FAC2
:103DF000064639466069FCF711FA074629462069EC
:103E0000FCF70CFA3946FCF7B1F93146FCF7AEF98C
:103E1000E5606060BDE8F0810000B3430000B3C31B
:103E2000134810B50078012803D012480078012803
:103E30001CD1114C6078401CC0B26070022801D2C5
:103E4000206B04E000206070FFF798FF206380F093
:103E500000410A48FFF708FF0948216BFFF704FFFC
:103E6000FFF704FF6063FFF727FFA06310BD0000AA
:103E7000140000201500002018000020C0060020BB
:103E8000E00600200B4810B500680B4AA0F50001C1
:103E9000914203D2BDE81040FCF7A5BB0749084A90
:103EA0000144914203D20749FCF7B2F9F2E700203E
:103EB00010BD00006400002000003442FFFF78BC09
:103EC000FFFF2C000000B4430000000000000000D1
:103ED00001020304060708090000000001020304B0
:103EE0000000000000000000002F0000000007009C
:103EF000070000147F147F1400242A7F2A12006216
:103F000064081323003649552250000005030000C1
:103F100000001C224100000041221C000014083E49
:103F200008140008083E0808000000A0600000080F
:103F30000808080800006060000000201008040263
:103F4000003E5149453E0000427F40000042615121
:103F50004946002141454B31001814127F100027BB
:103F600045454539003C4A4949300001710905037E
:103F700000364949493600064949291E00003636AF
:103F80000000000056360000000814224100001412
:103F900014141414000041221408000201510906EF
:103FA00000324959513E007C1211127C007F494970
:103FB0004936003E41414122007F4141221C007FA1
:103FC00049494941007F09090901003E4149497AAF
:103FD000007F0808087F0000417F41000020404129
:103FE0003F01007F08142241007F40404040007F95
:103FF000020C027F007F0408107F003E4141413ED9
:10400000007F09090906003E4151215E007F091920
:1040100029460046494949310001017F0101003F1D
:104020004040403F001F2040201F003F4038403F9D
:104030000063140814630007087008070061514901
:10404000454300007F41410000552A552A55000094
:1040500041417F0000040201020400404040404012
:10406000000001020400002054545478007F4844AA
:10407000443800384444442000384444487F0038E1
:104080005454541800087E0901020018A4A4A47C0A
:10409000007F080404780000447D400000408084D4
:1040A0007D00007F102844000000417F4000007C1C
:1040B00004180478007C0804047800384444443828
:1040C00000FC242424180018242418FC007C080474
:1040D000040800485454542000043F444020003C4D
:1040E0004040207C001C2040201C003C4030403CD4
:1040F000004428102844001CA0A0A07C0044645464
:104100004C441414141414140000000000000000A7
:10411000000000000000FC000000000002000000A1
:10412000000C020C020000000000000090D0BCD087
:10413000BC900003000300001824FE448C0003021E
:10414000070201001824D8B04C80000300010201CE
:10415000C038E438E0000102020102020806000053
:104160000000000000000000000000F80402000051
:1041700000010204000204F8000000040201000033
:104180009060F86090000000010000002020FC20FA
:1041900020000000010000000000000000000806F0
:1041A000000000002020202020000000000000006F
:1041B0000000000000000002000000000080601C01
:1041C0000200040300000000F8040404F8000102E7
:1041D000020201000008FC000000000203020000CF
:1041E0001884442418000302020202000804242454
:1041F000D80001020202010040B088FC80000000EB
:10420000000302003C242424C40001020202010035
:10421000F824242CC0000102020201000C04E41C5A
:104220000400000003000000D8242424D800010268
:104230000202010038444444F80000030202010075
:10424000000010000000000002000000000020003C
:10425000000000000600000000205088040200005A
:10426000000001029090909090000000000000007B
:104270000002048850200002010000001804C42439
:104280001800000002000000F804E494F8000102A5
:104290000202020000E09CF0800002030000030222
:1042A00004FC2424D800020302020100F8040404E0
:1042B0000C0001020202010004FC0404F8000203E5
:1042C0000202010004FC24740C0002030202030039
:1042D00004FC24740C00020302000000F0080444F3
:1042E000CC4000010202010004FC2020FC04020377
:1042F000000003020404FC040400020203020200A2
:10430000000404FC040406040403000004FC24D09C
:104310000C0402030200030204FC04000000020378
:1043200002020203FC3CC03CFC000300030003004B
:1043300004FC30C4FC04020302000300F80404047B
:10434000F80001020202010004FC24241800020308
:1043500002000000F8848404F8000102020705004E
:1043600004FC24649800020302000302182424447D
:104370008C000302020201000C04FC040C00000289
:104380000302000004FC0000FC0400010202010022
:10439000047C80E01C040000030000001CE03CE002
:1043A0001C00000300030000049C609C0400020346
:1043B00000030200041CE01C0400000203020000D1
:1043C0000C84641C04000203020203000000FE02CD
:1043D0000200000007040400000E30C000000000CE
:1043E00000010200000202FE0000000404070000B9
:1043F00000040204000000000000000000000000B3
:10440000000008080808080800000200000000007A
:10441000000000000040A0A0C00000010202030252
:1044200004FC2020C00000030202010000C0202084
:10443000600000010202020000C02024FC00000114
:104440000202030200C0A0A0C0000001020202009C
:104450000020F82424040002030202000040A0A06F
:10446000602000070A0A0A0404FC2020C00002039E
:10447000020003020020E40000000002030200002A
:10448000000020E4000008080807000004FC80E0A9
:1044900020200203020003020404FC0000000202C8
:1044A00003020200E020E020C0000300030003003C
:1044B00020E02020C00002030200030200C02020F0
:1044C000C00000010202010020E02020C000080F0F
:1044D0000A02010000C02020E0000001020A0F08CB
:1044E00020E0402020000203020000000060A0A0A5
:1044F00020000002020203000020F820000000005B
:104500000102020020E00020E0000001020203029C
:1045100020E0208060200000030100006080E08037
:1045200060000003000300002060806020000203A0
:104530000003020020E0208060200808070100003E
:104540000020A0602000000203020200000020DE24
:104550000200000000070400000000FF000000004F
:10456000000F00000002DE20000000040700000031
:10457000020102040402000000000000000000002C
:10458000000000000000000000000000000000F833
:1045900000000000000000333000000000100C0696
:1045A000100C0600000000000000000040C0784031
:1045B000C0784000043F04043F040400007088FCFD
:1045C00008300000001820FF211E0000F008F00055
:1045D000E018000000211C031E211E0000F00888C6
:1045E000700000001E2123241927211010160E0030
:1045F000000000000000000000000000000000E0DB
:1046000018040200000000071820400000020418EF
:10461000E00000000040201807000000404080F04B
:10462000804040000202010F01020200000000F081
:10463000000000000101011F010101000000000055
:104640000000000080B070000000000000000000CA
:104650000000000000010101010101010000000053
:1046600000000000003030000000000000000000EA
:1046700080601804006018060100000000E01008C7
:104680000810E000000F102020100F00001010F89C
:10469000000000000020203F2020000000700808DB
:1046A000088870000030282422213000003008885B
:1046B000884830000018202020110E000000C02083
:1046C00010F8000000070424243F240000F80888A4
:1046D000880808000019212020110E0000E0108831
:1046E00088180000000F112020110E000038080863
:1046F000C83808000000003F000000000070880873
:1047000008887000001C222121221C0000E01008F3
:104710000810E0000000312222110F00000000C04C
:10472000C0000000000000303000000000000080E9
:1047300000000000000080600000000000008040D9
:1047400020100800000102040810200040404040F2
:104750004040400004040404040404000008102045
:10476000408000000020100804020100007048088A
:104770000808F0000000003036010000C030C828F2
:10478000E810E0000718272423140B000000C038AD
:10479000E0000000203C23020227382008F8888827
:1047A00088700000203F202020110E00C030080833
:1047B00008083800071820202010080008F808080A
:1047C0000810E000203F202020100F0008F8888803
:1047D000E8081000203F20202320180008F88888CF
:1047E000E8081000203F200003000000C030080847
:1047F0000838000007182020221E020008F80800D0
:104800000008F808203F210101213F20000808F896
:10481000080800000020203F2020000000000808B9
:10482000F8080800C08080807F00000008F888C079
:1048300028180800203F20012638200008F808002A
:1048400000000000203F20202020300008F8F80061
:10485000F8F80800203F003F003F200008F830C073
:104860000008F808203F200007183F00E010080863
:104870000810E0000F10202020100F0008F8080892
:104880000808F000203F210101010000E0100808A5
:104890000810E0000F18242438504F0008F88888CA
:1048A00088887000203F2000030C302000708808AA
:1048B000080838000038202121221C00180808F8B8
:1048C000080818000000203F2000000008F8080039
:1048D0000008F808001F202020201F00087888000A
:1048E00000C83808000007380E010000F80800F87A
:1048F0000008F800033C0700073C03000818688024
:104900008068180820302C03032C30200838C80099
:10491000C83808000000203F2000000010080808E8
:10492000C83808002038262120201800000000FE8A
:10493000020202000000007F40404000000C30C036
:1049400000000000000000010638C0000002020262
:10495000FE000000004040407F0000000000040214
:10496000020204000000000000000000000000003F
:10497000000000008080808080808080000202042F
:104980000000000000000000000000000000808027
:10499000808000000019242222223F2008F8008095
:1049A00080000000003F112020110E000000008058
:1049B00080800000000E11202020110000000080E7
:1049C0008088F800000E112020103F200000808019
:1049D00080800000001F222222221300008080F02D
:1049E000888888180020203F202000000000808058
:1049F00080808000006B94949493600008F800809D
:104A000080800000203F210000203F2000809898F7
:104A1000000000000020203F202000000000008057
:104A20009898000000C08080807F000008F8000097
:104A300080808000203F24022D302000000808F8EC
:104A4000000000000020203F2020000080808080A7
:104A500080808000203F20003F20003F8080008039
:104A600080800000203F210000203F200000808047
:104A700080800000001F202020201F0080800080F8
:104A80008000000080FFA12020110E0000000080A7
:104A900080808000000E112020A0FF808080800098
:104AA0008080800020203F212000010000008080C5
:104AB000808080000033242424241900008080E0BA
:104AC000808000000000001F202000008080000087
:104AD00000808000001F202020103F208080800068
:104AE0000080808000010E30080601008080008078
:104AF000008080800F300C030C300F00008080009D
:104B0000808080000020312E0E31200080808000C7
:104B10000080808080818E70180601000080808077
:104B2000808080000021302C222130000000000015
:104B3000807C020200000000003F404000000000B6
:104B4000FF00000000000000FF0000000002027CE7
:104B5000800000000040403F00000000000601010E
:104B60000202040400000000000000000000000039
:104B70000000000000000000000000000000000035
:104B80000000000000000000000000000000000025
:104B90000000000000F0F0F0000000000000000045
:104BA00000017F010000000000000000001C1C1C30
:104BB0000000000000008060301C8C60301C0C0085
:104BC00000000000000000000000000000000000E5
:104BD0000000000000000000000000E000000000F5
:104BE00000E000000086E69F86868686E69F8600B7
:104BF00000011F01010101011F010100000080C02F
:104C00006020F820E0C00000000003070C18FF70CF
:104C1000E18100000000070F10107F100F07000057
:104C20008060206080000000E02000000F30203015
:104C30009F70DC371030C0000000100E0300071812
:104C4000101807000000C02020E0C0000000000095
:104C500080E01F38E88703C43C040000070F1810E9
:104C6000100B070D1010080000808C4C380000005D
:104C70000000000000000000000000000000000034
:104C80000000000000000000000000000000000024
:104C9000000080E0300804000000000000FEFF017A
:104CA00000000000000000000000030F182040007A
:104CB00000040830E0800000000000000000000058
:104CC00001FFFE0000000000004020180F0300005C
:104CD00000000000000000000000C0000000000014
:104CE000004266663C18FF183C6666420000000001
:104CF0000000030000000000000000000000800031
:104D000000000000001010101010FF101010101004
:104D10000000000000000300000000000000000090
:104D20000000000000000000000000000000000083
:104D30000000000000808C4C3800000000000000E3
:104D40000000000000000000000000000010101033
:104D500010101010101010000000000000000000E3
:104D60000000000000000000000000000000000043
:104D700000000000000000000000000000001C1CFB
:104D80001C00000000000000000000000000000007
:104D9000E0380C000000000080701C0300000000E0
:104DA0000060380E0100000000000000000080C01C
:104DB00060202060C080000000FEFF0100000000B5
:104DC00001FFFE000001070E181010180E07010069
:104DD0000000808080C0E0000000000000000000B3
:104DE00000FFFF000000000000001010101F1F1047
:104DF000101000000080402020202060C0800000B3
:104E000000030300804020381F070000001C1A190F
:104E100018181818181F00000080C020202060C03B
:104E200080000000000303001010182FE78000002E
:104E300000070F10101010180F07000000000000EE
:104E40000000C0E0F000000000C0B088868180FF54
:104E5000FF808000000000000010101F1F101000D5
:104E60000000E060606060606060000000003F1073
:104E700008080818F0E0000000070B101010101CC4
:104E80000F030000000080C040202020E0C0000090
:104E900000FCFF211008080818F0E0000001070CD2
:104EA00018101010080F03000000C0E06060606080
:104EB00060E06000000003000000E0180700000050
:104EC00000000000001F1F00000000000080C06004
:104ED0002020202060C080000087EF2C1818303080
:104EE00068CF830000070F0810101010180F07007C
:104EF0000000C0C020202020C0800000001F3F60B4
:104F00004040402010FFFE0000000C1C1010100854
:104F10000F0300000000000000000000000000007F
:104F200000000000000E0E0E000000000000000057
:104F3000001C1C1C0000000000000000000000001D
:104F40000000000000000000000C0C000000000049
:104F500000000000005838000000000000000000C1
:104F60000000008040201000000010284482010052
:104F70000000000000000000000001020408100012
:104F80000000000000000000000000000084848495
:104F90008484848484848400000000000000000075
:104FA0000000000000001020408000000000000011
:104FB00000000000000001824428100000001008DA
:104FC000040201000000000000C02020101010109A
:104FD00030E0C0000003030000F010080C070300DD
:104FE000000000001C1C1C0000000000000000C0AD
:104FF000406020202040C00000FCFF01F00E03C1F3
:10500000FE03807F0001070E081111101109040230
:105010000000000080E0E000000000000000807C54
:105020004340477FF880000010181F100000000068
:10503000131F1C1020E0E02020202060C080000012
:1050400000FFFF10101010182FE78000101F1F1016
:1050500010101010180F0700000080C04020202002
:105060002060E00000FCFF010000000000000100E3
:105070000001070E181010100804030020E0E020C3
:1050800020202040C080000000FFFF000000000042
:1050900001FFFE00101F1F10101018080E0701005E
:1050A00020E0E020202020202060800000FFFF1072
:1050B0001010107C00000000101F1F1010101010A6
:1050C0001018060020E0E0202020202060608000F2
:1050D00000FFFF101010107C00000100101F1F10B7
:1050E0000000000000000000000080C060202020C0
:1050F00040E0000000FCFF0100004040C0C1404013
:105100000001070E181010100F0F000020E0E02023
:105110000000000020E0E02000FFFF101010101041
:1051200010FFFF00101F1F1000000000101F1F10B5
:105130000000202020E0E0202020000000000000EF
:1051400000FFFF000000000000001010101F1F10E3
:105150001010000000000000202020E0E0202020AF
:1051600000000000000000FFFF0000000060E08081
:105170008080C07F3F00000020E0E020000020A0F1
:105180006020200000FFFF30187CE3C0000000001A
:10519000101F1F10000001131F1C181020E0E0203A
:1051A000000000000000000000FFFF000000000001
:1051B00000000000101F1F10101010101018060023
:1051C00020E0E0E000000000E0E0E02000FF013F20
:1051D000FEC0E01E01FFFF00101F1000031F0300B0
:1051E000101F1F1020E0E0C0000000000020E020A1
:1051F00000FF0003071C78E08000FF00101F100074
:1052000000000000030F1F00000080C0602020602D
:10521000C080000000FEFF010000000000FFFE0053
:105220000001070E181010180C07010020E0E02004
:105230002020202060C0800000FFFF2020202020B0
:10524000301F0F00101F1F100000000000000000A2
:10525000000080C060202060C080000000FEFF01D0
:105260000000000000FFFE000001070E1111133CBA
:105270007C67210020E0E0202020202060C080000A
:1052800000FFFF101030F0D0080F0700101F1F1094
:10529000000000030F1C10100080C06020202020A0
:1052A0004040E00000070F0C1818303060E081002B
:1052B000001F0C0810101010180F0700806020202D
:1052C00020E0E020202060800100000000FFFF00BF
:1052D0000000000100000000101F1F10000000006F
:1052E00020E0E020000000000020E02000FFFF00A0
:1052F000000000000000FF0000070F181010101041
:10530000100807002060E0E02000000020E060209E
:105310000000077FF88000807C0300000000000090
:10532000071F1C070000000020E0E02000E0E02054
:105330000020E0200007FFF8E01FFFFCE01F000056
:105340000000031F0300011F03000000002060E0B5
:10535000A0000020E0602000000000038F7CF8C661
:10536000010000000010181E130001171F18100084
:105370002060E0E02000000020E060200000010745
:105380003EF8E0180700000000000010101F1F107A
:105390001000000000806020202020A0E0E020001D
:1053A00000000000C0F03E0F0300000000101C1FB2
:1053B00017101010101806000000000000FC040474
:1053C000040404000000000000FF000000000000D2
:1053D00000000000007F404040404000000010E01E
:1053E000000000000000000000000000031C6080BE
:1053F0000000000000000000000000030C708000AE
:1054000000000404040404FC00000000000000008C
:10541000000000FF00000000000040404040407FCE
:105420000000000000000010080C040C0810000030
:10543000000000000000000000000000000000006C
:10544000000000000000000000000000000000005C
:10545000000000000000000000000000000000004C
:105460008080808080808080808080800000000438
:105470000408080000000000000000000000000018
:10548000000000000000000000000000000000001C
:10549000000000000000000000000000000098D89C
:1054A00044642424FCF80000000F1F18101010089A
:1054B0001F1F10180020E0F0000000000000000096
:1054C0000000FFFF180804040CF8F00000001F0F94
:1054D00018101010180F030000000000000000005A
:1054E0000000000000E0F8180404043C380000004C
:1054F00000030F0C10101010080600000000000040
:1055000000000020E0F0000000E0F81C04040408A3
:10551000FFFF000000030F18101010081F0F0800F5
:105520000000000000000000000000000000E0F8A3
:10553000484444444C7870000000030F0C181010CD
:10554000100804000000000080C0602020E0C000BF
:1055500000040404FFFF0404040400000000101011
:105560001F1F1010100000000000000000000000CD
:1055700000000000000070F88C04048CF874040C27
:10558000007076CF8D8D8D89C87870000020E0F096
:1055900000000000000000000000FFFF08040404F9
:1055A000FCF8000000101F1F100000101F1F10004B
:1055B0000000000000606000000000000000040423
:1055C00004FCFC000000000000001010101F1F1061
:1055D00010100000000000000000006060000000EB
:1055E00000000000040404FCFC0000000000C0C037
:1055F0008080C07F3F0000000020E0F0000000003D
:10560000000000000000FFFF80C0F41C0404000044
:1056100000101F1F1100031F1C101000000020208D
:1056200020E0F000000000000000000000FFFF008C
:105630000000000000001010101F1F1010100000CC
:1056400000000000000000000000000004FCFC0856
:1056500004FCFC0804FCFC00101F1F10001F1F109E
:10566000001F1F10000000000000000000000000EC
:105670000004FCFC08080404FCF8000000101F1FD4
:10568000100000101F1F10000000000000000000AC
:105690000000000000E0F0180C04040C18F0E0001A
:1056A00000030F0C101010100C0F0300000000007E
:1056B00000000000000000000004FCFC08040404DA
:1056C0000CF8F0000080FFFF889010101C0F030002
:1056D00000000000000000000000000000E0F81CD6
:1056E00004040408F8FC000000030F181010908850
:1056F000FFFF80000000000000000000000000002C
:10570000040404FCFC100804040C0C001010101F0E
:105710001F1010100000000000000000000000003A
:105720000000000000003078CCC48484840C1C008D
:1057300000001E1810101011190F060000000000C4
:1057400000C000000000000000040404FFFF040487
:1057500004000000000000000F1F1010100C0000DB
:105760000000000000000000000000000004FCFE3B
:1057700000000004FCFE000000000F1F18101008BD
:105780001F0F0800000000000000000000000000E3
:1057900000040C3CFCC40000C43C0C0400000000ED
:1057A000010F1E0E010000000000000000000000BC
:1057B00000000000043CFCC400E47CFC84807C0409
:1057C0000000071F070000071F070000000000007F
:1057D00000000000000000000004041C7CE4C03451
:1057E0001C0404000010101C1601131F1C181000CC
:1057F00000000000000000000000000000040C3C5D
:10580000FCC400C43C0404000000C080C1370E0189
:105810000000000000000000000000000000000088
:1058200000001C0404C4F47C1C0400000000101CD4
:105830001F17111010180E0000000000000000F8E3
:105840000C04000000000000001028EF0000000021
:10585000000000000000003F604000000000000069
:105860000000FF0000000000000000000000FF003A
:1058700000000000000000000000FF000000000029
:105880000000040CF8000000000000000000000010
:10589000EF28100000000000000040603F00000002
:1058A0000000000000180602020408102020300842
:1058B00000000000000000000000000000000000E8
:1058C00000000000000000000000F010101010FFA9
:1058D00010101010F000000000000F04040404FF7A
:1058E000040404040F0000004040405F5555557506
:1058F0005555555F404040000040200F09498979C7
:105900000909090F2040000000FE02424ACA4A4A23
:10591000CA4A4A4202FE000000FF40504C43404049
:105920004F50505C40FF00000000F888888888FFD6
:1059300088888888F800000000001F080808087F91
:10594000888888889F80F00080828282828282E2BA
:10595000A2928A8682808000000000000040807F42
:105960000000000000000000101010FF10900888D8
:105970008888FF88888808000444827F01808040EE
:10598000432C1028468180000010101010D030FFEA
:1059900030D0121C1010000010080402010000FF9B
:1059A000000001020408100004040484E43C2724DD
:1059B000242424E40404040004020100FF0909096A
:1059C0000949897F0000000000FE225A8600FE92ED
:1059D00092929292FE00000000FF04080700FF4030
:1059E00020030C1422414000008040201806800053
:1059F0000718204080000000010020702826212088
:105A000020243860000101000010129292929292BC
:105A100092121202FE0000000000003F1010101051
:105A20003F0040807F000000000000C08080808038
:105A3000808080FC84808080808080C0C0000000E6
:105A4000000000FF7F404040404040FF4040404059
:105A5000404040FF7F000000000000000000000008
:105A60000000007F70000000000000000000000047
:105A7000000000000000000000000000000000FC2A
:105A8000F80000000000000000000000000000001E
:105A900000000000FFFE020202020202020202FFF8
:105AA000FF020202020202020202FF0300000000E3
:105AB000000000001F1F040404040404040404FF85
:105AC000FF0404040404040404041F000000000094
:105AD0000000000000000000000000000000007F47
