:020000040800F2
:10000000600E0020A9010008BF2E0008852A000804
:10001000BD2E00085F1400083D37000800000000F6
:10002000000000000000000000000000F1310008A6
:100030006114000800000000EF3100084932000898
:10004000C3010008C3010008C3010008C301000880
:10005000C3010008C3010008C3010008C301000870
:10006000C3010008C3010008C3010008C301000860
:10007000C3010008C3010008C3010008C301000850
:10008000C3010008C3010008C3010008C301000840
:10009000C3010008C3010008C3010008C301000830
:1000A000C3010008C3010008C3010008C301000820
:1000B000AD320008B9320008C5320008C30100089B
:1000C000C3010008C3010008C3010008C301000800
:1000D000C3010008E9360008253700083137000859
:1000E000C3010008C3010008C301000800F002F8C2
:1000F00000F04AF80AA090E8000C82448344AAF178
:100100000107DA4501D100F03FF8AFF2090EBAE875
:100110000F0013F0010F18BFFB1A43F0010318473B
:10012000D0670000F0670000103A24BF78C878C19B
:10013000FAD8520724BF30C830C144BF04680C60ED
:10014000704700000023002400250026103A28BF35
:1001500078C1FBD8520728BF30C148BF0B60704739
:10016000662904F06484642900F0528000207047FE
:100170001FB500F037FC04000020002103F070FFE1
:10018000E0601FBD10B510BD00F02CFD1146FFF75B
:10019000EFFF03F0F7FB00F04AFD03B4FFF7F2FFB7
:1001A00003BC00F08DFD0000094880470948004766
:1001B000FEE7FEE7FEE7FEE7FEE7FEE7FEE7FEE717
:1001C000FEE7FEE704480549054A064B7047000074
:1001D000A9320008ED00000860080020600E002031
:1001E000600A0020600A00200FB41CB5074B06AA65
:1001F0007B4469460090059800F0A9FB0020694601
:1002000000F0B8FB1CBC5DF814FB00008107000087
:100210002DE9F0410646002410687529314616A5DF
:1002200010D0AFF30080002802DA404213A507E0A7
:1002300031688A0701D512A502E0490704D511A546
:10024000012401E0AFF3008000210A2206F1240717
:1002500009E0B0FBF2FCB0FBF2F302FB1C00303013
:1002600078541846491C0028F3D123462A463046C4
:10027000BDE8F04100F0FEB8000000002D000000D5
:100280002B000000200000002DE9F0474FF0000A8D
:1002900089460446C0F820A02046E1688847002827
:1002A00076D0252806D0D4E901219047206A401C49
:1002B0002062F1E7E168204600258847C4F81CA0C9
:1002C00006460027C4F818A02A2E09D0304603F0AD
:1002D0005AFA38B304EB8708303EC8F8186019E0C2
:1002E00059F8041B204604EB87029161E1688847B6
:1002F000012F064618D1E069002820DA25F02005F4
:100300001DE0D8F8180000EB800006EB4000303804
:10031000C8F818002046E1688847064603F033FA1B
:100320000028EED1012F0AD02E2E08D12046E168F8
:1003300088477F1C0646022F45F02005C4DBA069D4
:10034000002803DA404245F00105A061E80701D02A
:1003500025F01005B6B1A6F14100192802D82036C3
:1003600045F400654A463146204625604D46FFF774
:10037000F7FE58B1012806D0ED1D25F0070000F169
:10038000080989E704E005F1040985E730468AE7B2
:10039000206ABDE8F087032A40F2308010F0030C99
:1003A00000F0158011F8013BBCF1020F624498BFC8
:1003B00011F801CB00F8013B38BF11F8013BA2F165
:1003C000040298BF00F801CB38BF00F8013B11F0E0
:1003D000030300F0D482083AC0F0088051F8043BCF
:1003E000083A51F804CBA0E80810F5E7121D5CBFED
:1003F00051F8043B40F8043BAFF30080D20724BF20
:1004000011F8013B11F801CB48BF11F8012B24BFB3
:1004100000F8013B00F801CB48BF00F8012B704702
:100420004FF0000200B5134694469646203922BF8D
:10043000A0E80C50A0E80C50B1F12001BFF4F7AFD8
:10044000090728BFA0E80C5048BF0CC05DF804EBBA
:10045000890028BF40F8042B08BF704748BF20F828
:10046000022B11F0804F18BF00F8012B7047704726
:10047000704770472DE9F0470D469946924604466D
:1004800000F124080168880604D5E06921F0100114
:10049000216000E00120A84201DD471B00E00027A9
:1004A000A1697A1902EB0900081AA0612078C00638
:1004B00002D42046AFF30080002608E0D4E90121F1
:1004C0001AF806009047206A401C761C20624E45B0
:1004D000F4DB2078C0060AD52046AFF3008006E0A2
:1004E000D4E9012130209047206A401C2062381E48
:1004F000A7F10107F4DC07E0D4E9012118F80500B1
:100500009047206A401C2062281EA5F10105F3DCFB
:100510002046AFF300802078000602D50220BDE817
:10052000F0870120FBE770472DE9FF4F0C461E4680
:100530004FF0FF378BB0D2E90001DDF860800A9000
:100540008A46C1F30A5505B93D46002108464FF0D9
:100550000000BAF1000F00F4400005DA00EB800063
:100560004FF4400101EA50004FEA9059B9F1010FF0
:1005700000DDB9460A9850EA4A000ED044F6105001
:10058000A5F2FF3545432F14B8F1000F1ED0754278
:10059000291E1EDDC9F100021CE0B8F1010F4FF069
:1005A000000001D0302103E0F24305E02154401C5B
:1005B000B042FBDB30460022002121540B99C1F8E8
:1005C0000880C1E900200FB0BDE8F08FBD1B6D1C95
:1005D000DEE74A4600DA694206A800F08DFA06AB6B
:1005E00093E8070003AB83E8070050460A9900F040
:1005F0006EFB8DE80700A0F500501F3800900398AF
:10060000002D0ADD42F21F014A460844002303A9D7
:100610000390684600F0D7FD09E0A0F500504A4677
:100620001F38002303A90390684600F0E1FD8DE820
:1006300007000004000C03D04FF0FF30410800E039
:100640001046B8F1000F03D00022009215461EE0BC
:10065000751E05D400F0CAF9303262556D1EF9D509
:10066000B3460122084302D000227F1C04E0207818
:10067000302801D100227F1E002A099784D01DE076
:10068000112D07DA00F0B2F9303262556D1C50EAD4
:100690000102F5D1084302D00098C8B10EE0002154
:1006A000681E05E0235C625C63542254401E491CB2
:1006B0008142F7DBAB46A81B401E0990002004F8DE
:1006C0000B000B98099AC0F80880C0E9002B7AE764
:1006D00011264FF0000857E72DE9F04F88460446F1
:1006E000D21D22F0070191B0D1E90001CDE90A0144
:1006F00003F025F802460B98C00F01D02D2007E02B
:100700002068810701D52B2002E0202101EAC000EA
:10071000032A099001D0072A05DB034641462046FB
:1007200000F0AAF90BE12078800601D5E06900E02D
:100730000620B8F1650F814606D0B8F1660F18D0D3
:10074000B8F1670F70D131E00020B9F1110F0090BE
:1007500001DB112301E009F101030AAA01A90CA898
:10076000FFF7E2FEDDE90C70002609F10105834682
:1007700047E001204B4600904FF000470AAA01A92C
:100780000CA8FFF7D1FEDDE90DB00C995D460026FF
:1007900010B909F101000D18B9EB050003D4C0F13F
:1007A000FF3609F10105A5EB09002BE0B9F1010FB6
:1007B00001DA4FF001090020B9F1110F009048460D
:1007C00001DD112300E003460AAA01A90CA8FFF7E6
:1007D000ABFEDDE90C704D4600268346207800070D
:1007E0000AD4AB4500DA5D4601A8012D04DD4119AC
:1007F00011F8011C302907D04F4502DA17F1040F18
:1008000004DA012082460FE06D1EEEE7002F02DCC5
:10081000ED1B3E4403E0781CA84200DD7D1CB81BA4
:1008200000F1010A4FF000472078000703D4AA45E1
:1008300001DB4FF0FF3A0021B7F1004F0DF1430803
:100840008DF8431024D002202B23002F01DA7F42A1
:100850002D230A21021EA0F1010000DC5FB197FBED
:10086000F1FC97FBF1F201FB1C7C17460CF1300CFC
:1008700008F801CDEEE7A8F1010003702188090511
:1008800001D5452100E06521A0F1010800F8011C17
:1008900009980FA9A1EB0807FF1D00B1012041191C
:1008A00001EBEA70A1693844081A401EA061207863
:1008B000C00602D42046AFF30080099828B1D4E9DD
:1008C00001219047206A401C20622078C00622D572
:1008D0002046AFF300801EE0002E04DBB34502DDAE
:1008E00001A8805D00E03020D4E901219047206A12
:1008F000401C2062761CAAF101005FEA000A0AD1BE
:1009000000F070F8C0680168405CD4E901219047AC
:10091000206A401C2062281EA5F10105DCDC07E0EE
:10092000D4E9012118F8010B9047206A401C20628D
:10093000381EA7F10107F3DC2046AFF30080032047
:1009400011B041E601694A1C02610878704700B5A0
:100950008FB0CDE901310021059105497944CDE9F8
:10096000031011466846FFF78FFC0FB000BD000072
:10097000E5FFFFFF0A6802F8010B0A60704710B537
:10098000203AC0F00B80B1E81850203AA0E8185087
:10099000B1E81850A0E81850BFF4F5AF5FEA027C48
:1009A00024BFB1E81850A0E8185044BF18C918C0B7
:1009B000BDE810405FEA827C24BF51F8043B40F858
:1009C000043B08BF7047D20728BF31F8023B48BF3D
:1009D00011F8012B28BF20F8023B48BF00F8012B7B
:1009E00070470000004870472008002030B5B0F183
:1009F0000A024FEA900E71F100034EEA817EB0EBDD
:100A00000E0061EB91014FEA101E4EEA017E10EBE1
:100A10000E0041EB11114FEA102E4EEA016E10EB61
:100A20000E0041EB11214FEA104E4EEA014E10EB41
:100A30000E0041EB1141401841F100014FEAD00096
:100A400040EA41704FEAD10110EB80054FEA810482
:100A500044EA907444EB01046D1944EB0404521B06
:100A6000A3414FF0000348BF0A3200D530BD401CFF
:100A700041F1000130BD00002DE9F0411F46044660
:100A800003260168072A01F4006004DB08B116A5FB
:100A900005E016A503E008B115A500E015A521F0B5
:100AA00010002060A069C01EA0610FB1401EA061AF
:100AB0002046AFF300804FB1D4E90121384690477A
:100AC000206A401C2062C01C206206E0206AFAE70F
:100AD000D4E9012115F8010B9047761EF8D2204683
:100AE000AFF30080BDE8F0814E414E006E616E00B4
:100AF000494E4600696E66002DE9F047814616466C
:100B00008AB0354878440DC88DE80D0032487844E5
:100B1000801C03AC0DC884E80D0041F69B300844EE
:100B2000372190FBF1F290FBF1F5A5F1800501FB77
:100B300012041B3C02D56442012000E00020DFF8D3
:100B400098A080460027FA44AAF1BE0A0EE0E0070A
:100B50000AD03246684607EB470101230AEB8101C0
:100B600000F046FB8DE8070064107F1C002CEED1DE
:100B7000194F7F44AE3F19E0E80715D007EB04108A
:100B80000DF1180A90E80E008AE80E00C068F042E5
:100B900001D1981908903246012306A903A800F054
:100BA00027FB03AB83E807006D10641C002DE3D125
:100BB0004FF0010332466946B8F1000F03A802D096
:100BC00000F001FB01E000F013FBC9E90001C9F8E6
:100BD00008200AB0BDE8F087D05D000000487047EB
:100BE000000800207546FFF7F9FFAE46050069468C
:100BF000534620F00700854618B020B5FFF7E2FA0B
:100C0000BDE820404FF000064FF000074FF000080D
:100C10004FF0000B21F00701AC46ACE8C009ACE88E
:100C2000C009ACE8C009ACE8C0098D46704710B5F2
:100C30000446AFF300802046BDE81040FFF7ADBA90
:100C40004FF0013C50F8042B51F8043B9A4221D15B
:100C5000A2EB0C03934313EACC1317D150F8042BE7
:100C600051F8043B9A4215D1A2EB0C03934313EACB
:100C7000CC130BD150F8042B51F8043B9A4209D104
:100C8000A2EB0C03934313EACC13DBD04FF000002C
:100C9000704700BFD01A01BAB1FA81F101F0180112
:100CA00022FA01F0CB40C1F12001DBB2C0B2C01A80
:100CB0002CFA01F3D11A914311EAC311E6D170471E
:100CC00001491820ABBEFEE72600020070475FEA2C
:100CD000400C08BF91F0000F4FEA8C234FEAC1226D
:100CE00043EA51514FEA1C5018BF00F5F0404FEA5B
:100CF000300018BF41F000415FEA6C5C00F02980D1
:100D0000BCF1FF3F08BF40F080407047130C06BFA6
:100D100012044FF0100C4FF0000C130E04BF12021F
:100D20000CF1080C130F04BF12010CF1040C930F0B
:100D300004BF92000CF1020CD30F04BF52000CF15F
:100D4000010C11464FF00002A0F11F00A0EB0C00B7
:100D5000704711F0004F08BF704731F000413FF479
:100D6000D5AF0B0C06BF09044FF0100C4FF0000C70
:100D70000B0E04BF09020CF1080C0B0F04BF090194
:100D80000CF1040C8B0F04BF89000CF1020CCB0F8B
:100D900004BF49000CF1010CCCF12003A0EB0C00C6
:100DA00022FA03F302FA0CF241EA030100F1010016
:100DB000704720F07F4C80EA030023F07F47ACEBC4
:100DC000070303F57C5300F0004003F1FF032DE916
:100DD00080494FEA154B09B44FEA144325EA0B4EFC
:100DE00024EA03480FF2042606EB132749083E784D
:100DF0005FEA320203FB0667C7F5000707FB06F64A
:100E00004FEA54374FEAD64606F1020607FB066C56
:100E1000CCF1005C4FEA1C472CEA074C07FB06F4B8
:100E20000CFB06F504EB15464FEA961634BF00207E
:100E30004FF000404FEAD13706FB07FC4FEA1C4C4D
:100E40000CFB0BF7D21B03FB0CF761EB07010CFB50
:100E50000EF7B0EB074072EB17420CFB08F734BFFC
:100E6000A2EB0742B2EB074261EB17414FEA0C4499
:100E70004FEA910706FB07FC4FEA1C4C0CFB0BF7F3
:100E8000B0EBC74072EB573203FB0CF734BFA2EB59
:100E9000C742B2EBC74261EB57310CFB0EF7B0EB28
:100EA000C70072EB57720CFB08F734BFA2EBC70206
:100EB000B2EBC70261EB5771039F4FEA816141EAD0
:100EC000921104EBCC044FEAD1374FEA826206FB61
:100ED00007FC42EA90124FEA80604FEA1C4C0CFB80
:100EE0000BF7D21B03FB0CF761EB07010CFB0EF7B2
:100EF000B0EB074072EB17420CFB08F734BFA2EBD4
:100F00000742B2EB074261EB17414FEA8C554FEABB
:100F1000910704EB9C2406FB07FC4FEA1C4C0CFBDE
:100F20000BF7B0EBC74072EB573203FB0CF734BF43
:100F3000A2EBC742B2EBC74261EB57310CFB0EF795
:100F4000B0EBC70072EB57720CFB08F734BFA2EB93
:100F5000C702B2EBC70261EB577115EB4C254FEAA4
:100F6000816141EA92114FEA82624FEAD13742EA47
:100F7000901206FB07FC44F100044FEA80604FEA40
:100F80001C4C0CFB0BF7D21B03FB0CF761EB0701AE
:100F90000CFB0EF7B0EB074072EB17420CFB08F7A7
:100FA00034BFA2EB0742B2EB074261EB174115EBEE
:100FB0001C154FEA813141EA92414FEA823242EAFE
:100FC00090424FEA80304FEA0C7644F1000448EA40
:100FD00003434EEA0B484FF0000EB2EB080C71EBE6
:100FE000030724BF624639464EEB0E0E4FF0000B4E
:100FF0000018524149414BEB0B0BB2EB080C71EB63
:1010000003077BF1000B24BF624639464EEB0E0E00
:101010004FF0000B0018524149414BEB0B0BB2EB68
:10102000080C71EB03077BF1000B24BF62463946C5
:101030004EEB0E0E51EA020718BF46F0010616EB02
:101040000E7655F1000254F1000103D5BDE8890187
:10105000BDE80088BDE88901BDE80048B6195241E5
:1010600041EB0101A3F10103704780807F7E7D7C0D
:101070007B7A7978777676757473727171706F6E2A
:101080006E6D6C6C6B6A6A696868676666656464D5
:10109000636362616160605F5F5E5E5D5D5C5C5B5F
:1010A0005B5A5A59595858575756565555555454CE
:1010B000535352525251515050504F4F4F4E4E4D2C
:1010C0004D4D4C4C4C4B4B4B4A4A4A494949484878
:1010D00048474747474646464545454444444443B8
:1010E00043434342424242414141002B9C4630D45B
:1010F00077002BD01CB54FEA370703B44FF0100030
:101100004FF01001BAF1000F06D0BCF1000FDCBFA8
:1011100040F0080040F008014FF000000FBCBDE8AF
:1011200010400BF1010BBBF1010F08BF5FEA17077D
:1011300022BF12F1010211F101014FF0004143F110
:10114000000300F0004043EA00007047F9D357085D
:10115000D0E746EA064613F1400F4FEA16461FDD78
:1011600013F1200FDFBF16430A46002120335B42F4
:10117000BED0C3F1200746EA064602FA07F74FEA57
:10118000164646EA0706C3F1200722FA03F201FADF
:1011900007F721FA03F14FF0000342EA0702A7E73D
:1011A00046EA020646EA06464FEA164646EA0106BF
:1011B000BCBF46EA0646360C4FF000034FF0000273
:1011C0004FF0000194E72DE9804C9A46934670B4A5
:1011D00091E8380007C831EA400C48BF34EA430CB4
:1011E00003D5FFF7E6FDFFF780FFF0BCBDE8008CFC
:1011F0002DE9804C9A46934670B491E8380007C8B0
:1012000010F0804F08BF13F0804F03D100F005F8B5
:10121000FFF76BFFF0BCBDE8008C20F07F4780EA51
:10122000030023F07F4C07EB0C03A3F57C5300F085
:101230000040A3F1FE0392F0000F00F0B38095F0A0
:10124000000F00F077802DE901494FEA11404FEA85
:10125000144621EA004800FB06FC24EA064708FB86
:1012600006F607FB08F800FB07F718EB06484CEBFF
:10127000164C4FEA124B18EB07484FEA15464CEB59
:10128000174022EA0B4E0BFB06FC25EA06470EFB35
:1012900006F607FB0EFE0BFB07F71EEB064E4CEBAC
:1012A000164C4FF000061EEB074E4CEB174B18EB9D
:1012B0000B0840F1000018EB0E0B58EB000840F152
:1012C00000008F1A4FF000013CBFC943661B14BFDA
:1012D000B5EB040C00213CBFC943F61B4FEA174491
:1012E0004EEA8E0E27EA04454FEA1C4704FB0762CC
:1012F0002CEA074C05FB07F70CFB05F604FB0CFC7E
:1013000016EB074642EB174216EB0C4642EB1C422B
:101310001BEB060658EB0202414146EA9E0601D548
:10132000BDE80189B619524141EB0101A3F1010366
:10133000BDE801894FEA14454FEA114724EA054602
:1013400021EA074C05FB07F406FB07F70CFB06F147
:1013500005FB0CFC11EB074144EB17444FEA124725
:1013600011EB0C4144EB1C4422EA074C05FB07F24D
:1013700006FB07F70CFB06F605FB0CFC16EB074615
:1013800042EB174216EB0C4642EB1C456A1854F12F
:10139000000148BF7047B619524141EB0101A3F16A
:1013A0000103704795F0000F37D04FEA11424FEA22
:1013B000144721EA024624EA074C02FB07F106FB28
:1013C00007F70CFB06F402FB0CFC14EB074441EBA3
:1013D00017414FEA154714EB0C4441EB1C4125EA39
:1013E000074C02FB07F506FB07F70CFB06F602FBB2
:1013F0000CFC16EB074645EB174516EB0C4645EB88
:101400001C42121951F1000148BF7047B6195241F0
:1014100041EB0101A3F1010370474FEA14454FEA84
:10142000114724EA054621EA074C05FB07F106FBB4
:1014300007F70CFB06F24FF0000605FB0CFC12EB65
:10144000074241EB174112EB0C4251EB1C4148BFE4
:101450007047921841EB0101A3F101037047FEE7C9
:10146000704772B6FEE7000010B590F82110002416
:10147000022903D00421816301243DE001680A6848
:1014800022F00E020A6001680A6822F001020A6076
:101490001A4A0168914201D1012121E0174A143210
:1014A000914201D110211BE0144A2832914201D10E
:1014B000891515E0114A3C32914201D189140FE09F
:1014C0000E4A5032914202D14FF4803108E00B4A6B
:1014D0006432914202D14FF4801101E04FF08071EB
:1014E000064A083A5160012180F82110002180F855
:1014F0002010416B01B18847204610BD0800024012
:1015000070B5044600F002F90546601C02D004489C
:101510000078044400F0FAF8401BA042FAD370BDF2
:10152000040000202DE9F84FDFF8A491002409F110
:10153000040A0AF1040B23464FF00F080BF1040EC6
:10154000BEE00127A7403A40BA4272D1DFF884C119
:101550004D68A5EB0C0665452BD00DDC032D34D072
:1015600005DC35B3012D19D0022D2FD11BE0112D33
:1015700016D0122D2AD119E0B6F5881F19D006DC35
:10158000B6F5803F15D0B6F5801F1FD111E0B6F536
:10159000001F0ED0B6F5041F18D10AE0CB6815E085
:1015A000CB681B1D12E0CB6808330FE0CB680C330F
:1015B0000CE08B682BB1012B4FF0080303D047617F
:1015C00004E0042302E0076100E00023FF2A01D8C1
:1015D000064601E000F104064FEA840501D9A5F1B1
:1015E0002005376808FA05FC27EA0C0703FA05F519
:1015F00047EA050737604D68ED0060D5364DAE69A6
:1016000046F00106AE61AD6924F0030605F0010560
:101610000095324D7719BE68A5072D0F08FA05FC15
:1016200026EA0C06DFF8B8C0604503D14FF0000C85
:1016300017E044E0DFF8ACC0604502D14FF0010C88
:101640000FE0DFF8A4C0604502D14FF0020C08E0C3
:10165000DFF898C0604502D14FF0030C01E04FF075
:10166000040C0CFA05FC4CEA060CC7F808C04D68DF
:10167000D9F80060ED034D4601D5164300E09643CE
:101680002E604D68DAF80060AD03554601D516436B
:1016900000E096432E604D68DBF80060ED025D4689
:1016A00001D5164300E096432E604D68DEF80060D9
:1016B000AD02754601D5164300E096432E60641CCA
:1016C0000A6832FA04F57FF43CAFBDE8F88F0000F9
:1016D0000004014000001110001002400000014011
:1016E00000080140000C01400010014000140140BE
:1016F000C26821EA02030A4043EA024101617047DD
:101700000AB1016170470904FBE7000001488068E5
:1017100070470000040000200248816802781144EC
:101720008160704704000020074810B5016841F04F
:1017300010010160032000F079F8002000F006F8A5
:1017400000F024F8002010BD0020024070B50D4DBF
:1017500004464FF47A712878B1FBF0F00A49096821
:10176000B1FBF0F000F004FB48B9102C07D20022C6
:101770002146501E00F03AF800206C6070BD012038
:1017800070BD000004000020100000200E4808B5C5
:10179000816941F001018161816901F001010091DC
:1017A000C16941F08051C161C06900F08050009072
:1017B000052000F03BF80549486820F0E06040F063
:1017C0000070486008BD00000010024000000140A9
:1017D000002809DB00F01F02012191404009800030
:1017E00000F1E020C0F8001170470000F0B40E4B8B
:1017F0001B68C3F30223C3F10704042C00D904249B
:101800001D1D072D01D2002300E0DB1E012606FA74
:1018100004F56D1E0D409D409E40761E164045EA23
:101820000601F0BC01F09FBF0CED00E0064A00F09D
:10183000070110684FF6FF03184040EA01200349F2
:1018400008431060704700000CED00E00000FA054E
:10185000BFF34F8F05480168054A01F4E061114369
:101860000160BFF34F8F00BFFDE700000CED00E00B
:101870000400FA052DE9F0470D46040067D0DFF8B3
:101880001881D8F8000000F00700A8420CD2D8F860
:10189000001021F007012943C8F80010D8F8000013
:1018A00000F00700A84252D120683C4E810712D5B3
:1018B000400703D5706840F4E0607060207800074E
:1018C00003D5706840F4605070607068A16820F0C3
:1018D000F000084370602078C00727D060680128B6
:1018E00010D03168022810D0890700292FDA7168DA
:1018F00021F0030101437160FFF708FF074641F241
:1019000088390CE031688903EFE78901EDE7FFF7DB
:10191000FDFEC11B494502D90320BDE8F087706870
:10192000616800F00C00B0EB810FF0D1D8F8001026
:10193000404601F00701A9420BD9016821F00701D7
:1019400029430160006800F00700A84201D001208F
:10195000E3E72078400705D57068E16820F4E0608F
:10196000084370602078000706D57068216920F46C
:10197000605040EAC100706000F038F87168084AB1
:10198000C1F30311515CC84006490860064800686D
:10199000FFF7DCFE0020C0E70020024000100240FC
:1019A000324A0008100000200800002004480549C1
:1019B00000684968044AC1F30221515CC84070477D
:1019C0001000002000100240424A00080448054967
:1019D00000684968044AC1F3C221515CC84070479D
:1019E0001000002000100240424A000812A085B0FA
:1019F0000FC88DE80F0014A0144B006804905968BC
:101A0000134801F00C02042A10D0082A0ED1C1F3A9
:101A10008342C9031DF802000AD5596804AAC1F31C
:101A20004041515C0A4A5043B0FBF1F005B07047A9
:101A300008494843FAE700000203040506070809BD
:101A40000A0B0C0D0E0F10100102000000100240D6
:101A500000127A0000093D002DE9F84F04006FD014
:101A60002078BE4DC00747D06868C0F381000128C8
:101A700007D06868C0F38100022809D16868C003F4
:101A800006D52868800337D560680028E7D033E0A2
:101A90006068B0F5803F0BD010B1B0F5A02F11D029
:101AA000286820F480302860286820F4802002E034
:101AB000286840F480302860606888B1FFF726FE0F
:101AC000064609E0286840F480202860F0E7FFF728
:101AD0001DFE801B642873D828688003F7D50BE0AF
:101AE000FFF714FE064604E0FFF710FE801B642893
:101AF000F1D828688003F7D42078DFF86482800763
:101B00004FF0010A4FF0000939D5686810F00C0F4A
:101B100007D06868C0F38100022809D16868C00353
:101B200006D42868800714D52069012808D110E060
:101B30002069B0B1C8F800A0FFF7E8FD064605E04F
:101B400007E1FFF7E3FD801B0228C4D8286880075F
:101B5000F7D52868616920F0F80040EAC1002860E4
:101B60000DE0C8F80090FFF7D1FD064604E0FFF74E
:101B7000CDFD801B022823D828688007F7D4207861
:101B800000072CD57748A169D9B1C0F800A0FFF7AC
:101B9000BDFD064604E0FFF7B9FD801B02280FD803
:101BA000686A8007F7D570484FF4FA510068B0FBB7
:101BB000F1F0009000BF0098411E0091FAD20EE0B3
:101BC0007CE0C0F80090FFF7A1FD064604E0FFF7B7
:101BD0009DFD801B022871D8686A8007F7D42078A1
:101BE00040075BD5E8690027C00008D4E86940F0E9
:101BF0008050E861E869012700F0805000905B4860
:101C00000168C90511D40168834641F480710160FF
:101C1000FFF77CFD064604E0FFF778FD801B642893
:101C20004CD8DBF80000C005F6D5E06801280AD0E2
:101C300008B1052813D0286A20F001002862286A1C
:101C400020F0040002E0286A40F001002862E06809
:101C500041F2883B88B1FFF759FD064609E0286A42
:101C600040F004002862EEE7FFF750FD811B594564
:101C70005BD8286A8007F7D50BE0FFF747FD0646DB
:101C800004E0FFF743FD811B59454ED8286A8007C1
:101C9000F7D41FB1E86920F08050E861E069A8B38B
:101CA0006968C1F38101022946D00228484606D05E
:101CB000C8F86000FFF72AFD044639E035E04746E2
:101CC000C8F86000FFF722FD064604E0FFF71EFD9E
:101CD000801B022829D828688001F7D4206AB0F533
:101CE000803F05D16868A16820F40030084368602F
:101CF000D4E908010843696821F474110843686055
:101D0000C7F860A0FFF702FD044605E023E0FFF7F7
:101D1000FDFC001B022808D828688001F7D51AE0CE
:101D2000FFF7F4FC001B022802D90320BDE8F88F5E
:101D300028688001F4D40EE00128F7D06868226A90
:101D400000F48031914204D1616A00F4701088423D
:101D500001D00120EAE70020E8E70000001002407F
:101D60000000424280044242100000200070004007
:101D700010B5401EB0F1807F01D3012010BD4FF09F
:101D8000E02460610F21601701F0EDFC0020A061EC
:101D900007202061002010BD7047704710B590F8F3
:101DA0003C20012A22D0012280F83C20CA688C689D
:101DB00022F4407222434C6822F4806222430C6871
:101DC00022F4006222430C6922F4805222434C69BF
:101DD00022F400522243C969002322F480420A43BC
:101DE00001684A6480F83C30002010BD022010BD1C
:101DF00070B590F83C20012A26D0012580F83C508F
:101E0000022280F83D2002685368946823F070062F
:101E10000B68334353600D4B02689A4208D0B2F10D
:101E2000804F05D00A4B9A4202D00A4B9A4204D105
:101E3000496824F080031943916080F83D500021E7
:101E400080F83C10084670BD022070BD002C014097
:101E5000000400400008004010B5040003D094F8CE
:101E60003D0010B107E0012010BD002084F83C00C7
:101E7000204600F01FF8022084F83D00211D206854
:101E800001F026FA012084F8460084F83E0084F828
:101E90003F0084F8400084F8410084F8420084F850
:101EA000430084F8440084F8450084F83D00002095
:101EB00010BD000008B500680B49884212D10B48DC
:101EC000C16941F00201C161C069002200F0020055
:101ED000009001211D20FFF789FCBDE808401D206E
:101EE000FFF776BC08BD000000040040001002406F
:101EF00090F83D10012901D001207047022180F89F
:101F00003D100168CA6842F00102CA6000680B49CE
:101F1000884208D0B0F1804F05D00949884202D0EC
:101F20000849884204D1816801F00701062903D0DD
:101F3000016841F00101016000207047002C014060
:101F4000000400400008004070B5044690F83C00D2
:101F5000012817D0012584F83C50022084F83D0068
:101F60002068826822F0770222F47F42826008684B
:101F7000502830D00DDC20284DD005DC98B3102837
:101F80003BD148E0022070BD302844D0402834D1F5
:101F900039E0602828D0702806D0B0F5805F2CD0BA
:101FA000B0F5005F29D10AE0CB68D1E901212068B2
:101FB00001F0D1F92068816841F0770109E0CB6830
:101FC000D1E90121206801F0C6F92068816841F457
:101FD0008041816011E0CA684968206801F076FAA2
:101FE0005021206807E016E0CA684968206801F0BF
:101FF0007EFA6021206801F0B8F984F83D50002095
:1020000084F83C0070BDCA684968206801F05EFA37
:1020100040212068EFE7226801461046EBE72DE9F2
:10202000F0410D46040003D094F83D0018B108E0DB
:102030000120BDE8F081002084F83C00204600F03B
:1020400041F8022084F83D002068816844F20702CC
:1020500091438160211D206801F03AF92068816870
:102060008269066A2B68AF690B4340F203318A43E9
:1020700042EA0722A968EF6911434FF6FC429143F7
:10208000EA6841EA07210A4329692F6A090141EAFE
:10209000073111436A686D6926F0220646EA051584
:1020A0002A4383602068816154F8460B0262012054
:1020B00004F81F09E0752076E0762077A0750020EF
:1020C000B7E7000000B585B00021009101910291B1
:1020D000039101682148B1F1804F22D0204A9142FA
:1020E0001DD1C16941F00401C161C16901F0040160
:1020F0000491816941F0080181618069694600F0BD
:1021000008000490C02000901648FFF70BFA002248
:1021100003211E20FFF76AFB1E20FFF759FB05B0C5
:1021200000BDC16941F00101C161C16901F0010156
:102130000491816941F0040181618069694600F080
:1021400004000490032000900748FFF7EBF90022F9
:1021500003211C20FFF74AFB1C20DEE70010024091
:1021600000080040000C01400008014070B590F8E4
:102170003E50044690F83F3090F8422090F84300DB
:10218000022621B104290BD0012D16D10FE0012D1B
:1021900013D1012A11D184F83E6084F8426016E020
:1021A000012B0AD1012808D184F83F600DE0012BF2
:1021B00003D1012A01D1012801D0012070BD84F88A
:1021C0003E6084F83F6084F8426084F8436091B1D7
:1021D000042904D001220021206801F0AFF8012277
:1021E0000421206801F0AAF82068016841F001018B
:1021F0000160002070BD012200212068F2E77047D5
:1022000070B50446006801694FF00005C9438907AD
:1022100015D4C168C943890711D4E91E01610120A1
:102220002077206880698007204602D0FFF7E7FF0B
:1022300004E000F0BFF8204600F062F9257720683E
:102240000169C943490717D4C168C943490713D471
:102250006FF004010161022020772068806910F48A
:10226000407F204602D0FFF7CAFF04E000F0A2F84A
:10227000204600F045F9257720680169C943090720
:1022800016D4C168C943090712D46FF0080101616F
:10229000042020772068C0698007204602D0FFF71D
:1022A000AEFF04E000F086F8204600F029F925771B
:1022B00020680169C943C90617D4C168C943C90662
:1022C00013D46FF010010161082020772068C069E5
:1022D00010F4407F204602D0FFF791FF04E000F0A9
:1022E00069F8204600F00CF9257720680169C94398
:1022F000C90708D1C168C943C90704D1891E016152
:10230000204600F087F920680169C943090609D40D
:10231000C168C943090605D46FF0800101612046F8
:10232000FFF73AFD20680169C943490609D4C1682D
:10233000C943490605D46FF040010161204600F011
:10234000CBF920680169C94389060BD4C168C94328
:10235000890607D46FF0200101612046BDE8704076
:10236000FFF71BBD70BD000000B585B000210091D6
:1023700001910291039100680B49884212D10B48E8
:10238000816941F0040181618069694600F00400BF
:1023900004904FF4106000900220019003900448D4
:1023A000FFF7C0F805B000BD002C0140001002404E
:1023B00000080140704770B5044690F83C000D4697
:1023C00001280AD0012084F83C0042B1042A18D028
:1023D000082A2AD00C2A4DD139E0022070BD20688D
:1023E00000F0CCFF2068816941F00801816120681C
:1023F000816921F004018161206881692A691143A2
:1024000011E0206800F0E6FF2068816941F4006176
:1024100081612068816921F480618161206881691E
:102420002A6941EA0221816124E0206801F000F874
:102430002068C16941F00801C1612068C16921F0CB
:102440000401C1612068C1692A69114311E0206853
:1024500001F01AF82068C16941F40061C161206887
:10246000C16921F48061C1612068C1692A6941EABA
:102470000221C161002084F83C0070BD10B5040049
:1024800003D094F83D0010B107E0012010BD0020FA
:1024900084F83C00204600F01FF8022084F83D003C
:1024A000211D206800F014FF012084F8460084F804
:1024B0003E0084F83F0084F8400084F8410084F82E
:1024C000420084F8430084F8440084F8450084F80E
:1024D0003D00002010BD000008B500680649884294
:1024E00008D10648816941F400618161806900F486
:1024F0000060009008BD0000002C01400010024068
:102500007047000010B5044649B104290AD00829D3
:102510000BD094F8410001280AD0012010BD94F896
:102520003E00F8E794F83F00F5E794F84000F2E742
:10253000022041B3042929D008292AD084F8410077
:102540000122206800F0FAFE13492068884203D176
:10255000426C42F4004242642068884208D0B0F1E4
:10256000804F05D00D49884202D00D49884204D1E0
:10257000816801F00701062903D0016841F00101DB
:102580000160002010BD84F83E00D9E784F83F00C8
:10259000D6E784F84000D3E7002C01400004004057
:1025A0000008004030B504460D460068002200F0E7
:1025B000C5FE174A41F2111120688B10904209D1D3
:1025C000026A0A4206D1026A1A4203D1426C22F41C
:1025D000004242642068026A0A4206D1016A194236
:1025E00003D1016821F00101016001203DB1042DFA
:1025F00008D0082D09D084F84100002030BD84F8AF
:102600003E00FAE784F83F00F7E784F84000F4E77B
:10261000002C01402DE9F041274988424AD1274842
:1026200001F0B0FB264CE080264801F0ABFB4042B5
:1026300001B22181B4F90620E0684FF4DD66104450
:10264000E06090FBF6F022695518256101F0D7FE95
:102650001D4FDFF878803A46434601F0E7FE01F06F
:1026600015FDE06295FBF6F001F0C9FE3A464346DF
:1026700001F0DCFE01F00AFD206315480078012816
:1026800018D114480078012814D101F049F9606983
:1026900002F058F86062E06902F054F804F1280191
:1026A000A062081F01F083F8D4E90901BDE8F041F8
:1026B00001F092B8BDE8F08118010020D0000020A0
:1026C0001800002060010020083D9B559F6B34409E
:1026D00014000020150000207047704770B5026894
:1026E00004461068D168536910F00F0F52D003F000
:1026F000010501F490762E435FD0C20705D0CA05CC
:1027000003D5E26B42F00102E263420705D5DA0726
:1027100003D0E26B42F00202E263820705D5DA07DA
:1027200003D0E26B42F00402E263020707D501F036
:1027300020022A4303D0E26B42F00802E263E26B1C
:10274000002A33D0800604D5880602D5204600F042
:10275000F6FE20684069E16BC0F38010090700D4E1
:1027600028B3204600F0DDFE2068416949061AD5ED
:10277000416921F040014161606BA0B12D49416385
:10278000606BFEF771FE002810D0606B416BBDE8F6
:1027900070400847830610D58B060ED52046BDE84D
:1027A000704000F0CCBE2046FFF797FF70BD20467A
:1027B000FFF793FF0020E06370BD03062BD50B06E7
:1027C00029D594F839002128F6D1A068B0F5805FAA
:1027D00001D12069B0B1206A411C216221680078D2
:1027E0004860E08C401E0004000CE084E4D12068C6
:1027F000C16821F08001C1602068C16841F04001DA
:10280000C16070BD206A0088C0F308005060206A73
:10281000801C2062E5E74006F3D54806F1D5D16873
:10282000204621F04001D160202184F8391000F0C9
:1028300028F970BD1335000870B5040004D094F871
:102840003900002510B106E0012070BD84F8385031
:10285000204600F023F8242084F839002068C1685D
:1028600021F40051C160204600F0B0FE20680169EB
:1028700021F4904101612068416921F02A01416100
:102880002068C16841F40051C160E563202084F8EC
:10289000390084F83A00002070BD0000F0B585B022
:1028A0000024009401940294039444490068424F28
:1028B00002220323424D0E15B84225D1886940F407
:1028C00080408861886900F480400490886940F005
:1028D000040088618869039300F00400049048159F
:1028E000CDE9000269462846FEF71CFECDE90064EA
:1028F000694628460294FEF715FE00220221252093
:10290000FEF774FF252028E02E4FB84229D1C86970
:1029100040F40030C861C86900F400300490886950
:1029200040F0040088618869694600F00400049062
:102930000420CDE9000203932846FEF7F3FD0820AA
:10294000CDE90004694628460294FEF7EBFD00221B
:1029500002212620FEF74AFF2620FEF739FF05B0A8
:10296000F0BD194DA842FAD1C86940F48020C86171
:10297000C86900F480200490886940F008008861EC
:102980008869124D00F00800CDE90330CDE90062FE
:1029900069462846FEF7C6FDE814CDE900046946FD
:1029A00028460294FEF7BEFD002202212720FEF7F2
:1029B0001DFF2720D1E70000003801400010024031
:1029C000000801400044004000480040000C014065
:1029D00070472DE9F843044690F839001F46154624
:1029E0000E4620284BD1C6B1BDB194F8380001285D
:1029F00045D0012084F838004FF00008C4F83C802E
:102A0000212084F83900FEF781FEA5848146E58403
:102A1000A068B0F5805F03D004E00120BDE8F88332
:102A2000206920B13546002684F838800EE0002564
:102A3000FAE78021204600F025FEA0B9ADB115F8D7
:102A4000010B21684860E08C401EE084E08C4B461E
:102A50004FF0000200970028EBD14FF040012046D4
:102A600000F010FE30B10320D8E736F8020BC0F3B7
:102A70000800E6E7202084F839000020CEE7022095
:102A8000CCE77047FEE7000070B501220E4D5402FE
:102A900021462846FEF734FE01221602314628461A
:102AA000FEF72EFE00F048F8002221462846FEF7E9
:102AB00027FE00F041F8002231462846FEF720FEAE
:102AC000BDE8704000F038B8000C014070B50B4D07
:102AD0004FF40074002221462846FEF711FE012221
:102AE00011022846FEF70CFE00F026F82146284683
:102AF000BDE870400122FEF703BE0000000C01405B
:102B000070B50C4C012251022046FEF7F9FD00F091
:102B100013F80122150229462046FEF7F1FD00F0C8
:102B20000BF8002229462046FEF7EAFDBDE870407A
:102B300000F002B8000C01400320401EC0B2FCD2DD
:102B4000704700002DE9F04186B00024324800941F
:102B5000019402940394816941F0100181618169BB
:102B600001F010010491816941F0200181618169C6
:102B700001F020010491816941F0040181618169C2
:102B800001F004010491816941F0080181618069CB
:102B9000012200F00800214F5503049029463846D1
:102BA000FEF7AEFDDFF8788000224FF47341404617
:102BB000FEF7A6FD0095022601250396CDE90154F6
:102BC00069463846FEF7AEFC032700976946404643
:102BD000CDE90145FEF7A6FC4FF47040CDE90005B4
:102BE000CDE9024669464046FEF79CFC28021125C5
:102BF000CDE90005CDE9024769464046FEF792FC63
:102C00003002CDE90005CDE9024669464046FEF7AF
:102C100089FC06B0BDE8F0810010024000100140C0
:102C2000000C014010B592B000240F941C2168469E
:102C30001094FDF7F5FB202107A8FDF7F1FB2448D0
:102C40002249C0E9001441F61F41C0E90241802138
:102C50000461C0E90541FFF711FC08B1FEF701FC72
:102C60000F940FA91A481094FFF7C2F808B1FEF7A5
:102C7000F8FB6020CDE900040294039404940594C9
:102C80000022694612480694FFF795FB08B1FEF74B
:102C9000E8FB0C2269460E48FFF78DFB08B1FEF7F2
:102CA000E0FB0794089409944FF400500A94CDE98E
:102CB0000B4007A906480E94FFF770F808B1FEF71D
:102CC000D0FB0348FFF750FB12B010BD002C0140B1
:102CD0008800002010B58CB024216846FDF7A0FBC9
:102CE0000024164809944FF080410A94C0E900146A
:102CF0004FF6FF71C0E90241046184610320CDE910
:102D000000040120CDE902040A210491CDE9054027
:102D1000CDE9074169460948FFF781F908B1FEF797
:102D2000A0FB099409A905480A94FFF761F8002857
:102D300001D0FEF796FB0CB010BD0000D0000020C3
:102D400010B586B0002417480094019402940394AF
:102D5000049413490594016041F61F41C0E9011430
:102D6000C721C0E903148461FFF776F808B1FEF7C4
:102D700078FB4FF48050009069460A48FFF7E4F86A
:102D800008B1FEF76EFB049404A906480594FFF70A
:102D90002FF8002801D0FEF764FB06B010BD00003C
:102DA000000400401801002010B58CB024216846B2
:102DB000FDF736FB00241648099414490A94C0E92B
:102DC00000144FF6FF71C0E90241046184610320E1
:102DD000CDE900040120CDE902040A210491CDE9E6
:102DE0000540CDE9074169460948FFF718F908B1E0
:102DF000FEF737FB099409A905480A94FEF7F8FF86
:102E0000002801D0FEF72DFB0CB010BD00080040DB
:102E1000600100200C4810B50A4901604FF4E1310F
:102E20004160002181600C22C160C0E9041281610F
:102E3000C161FFF701FD002803D0BDE81040FEF797
:102E400010BB10BD00380140A80100200C4810B58F
:102E50000A4901604FF4E1314160002181600C2298
:102E6000C160C0E904128161C161FFF7E5FC00287F
:102E700003D0BDE81040FEF7F4BA10BD0044004096
:102E8000E80100200C4810B50A4901604FF4E13117
:102E90004160002181600C22C160C0E9041281619F
:102EA000C161FFF7C9FC002803D0BDE81040FEF760
:102EB000D8BA10BD0048004028020020FEE7FEE717
:102EC00030B40021084B0A46002003EBC004401C2C
:102ED000C0B262548028F8D3491CC9B20829F3D380
:102EE00030BC00F0ABB800006802002028B1012817
:102EF00006D10021A72000F05FB90021A620FAE743
:102F0000704710B558B1012810D10021C02000F041
:102F100053F90021A020BDE8104000F04DB9002178
:102F2000C82000F049F90021A120F4E710BD0000FD
:102F300030B5CC0801F0070301259D40EBB2064DEA
:102F400005EBC005C808285C0AB1184302E063EA33
:102F50000000C043285530BD6802002010B5C820CD
:102F6000FEF7CEFA0021AE2000F026F90021084637
:102F700000F022F90021102000F01EF9002140206D
:102F800000F01AF90021812000F016F90021CF206D
:102F900000F012F90021A12000F00EF90021C82054
:102FA00000F00AF90021A62000F006F90021A8206F
:102FB00000F002F900213F2000F0FEF80021D320AC
:102FC00000F0FAF80021084600F0F6F80021D520BC
:102FD00000F0F2F80021802000F0EEF80021D92066
:102FE00000F0EAF80021F12000F0E6F80021DA20F4
:102FF00000F0E2F80021122000F0DEF80021DB20D2
:1030000000F0DAF80021302000F0D6F8002120206E
:1030100000F0D2F80021022000F0CEF800218D202F
:1030200000F0CAF80021142000F0C6F8FFF748FFAE
:103030000021BDE81040AF2000F0BEB870B5174EBB
:10304000002505F1B000C0B2002100F0B5F8002164
:10305000084600F0B1F80021102000F0ADF8FFF7AD
:1030600013FD782000F0C6F8FFF74AFD402000F07D
:10307000C1F8FFF745FD002406EBC400405D00F0F9
:10308000B9F8FFF73DFD641CE4B2802CF4D3FFF7E0
:103090001DFD6D1CEDB2082DD3D370BD680200205C
:1030A0002DE9FC4F1D46884681468B460090082B33
:1030B0000DD0680700D0012000EBD5006908484317
:1030C000C0B2203A02F0FF0A0026019046E0062036
:1030D000F7E7082D10D00C2D14D0102D16D0182D78
:1030E0003FD122490AEBCA0001EB80000027845D32
:1030F000E0070FD00B9A10E01D490AEB4A0001EBE4
:103100004000F3E70AEB4A001A49EDE71A4901EBE0
:103110000A10EBE70B9830B3002241464846FFF710
:1031200007FF7F1C640808F10100FFB200F0FF08F0
:10313000082FDDD309F1010000F0FF09082D0AD0A6
:103140000099A9EB0100B0EB550F04D10BF1080079
:10315000894600F0FF0B761CD846F6B201988642ED
:10316000B7D3BDE8FC8F0122D7E70000D656000890
:103170004A4A0008724C0008E65000082DE9F84160
:103180001E46154688460446079F0BE033464146D7
:1031900020460097FFF784FF082E0AD004EB560064
:1031A000C4B26D1C2A78A2F120005E28EED9BDE8D9
:1031B000F881A41DE4B2F4E770B50C460546FFF7AC
:1031C00063FC782000F016F8FFF79AFC0CB1402061
:1031D00000E0002000F00EF8FFF792FC284600F017
:1031E00009F8FFF78DFCBDE87040FFF76FBC704732
:1031F000704700002DE9F041124F002405464FF4BE
:103200000078BE15280601D5012200E000224146C3
:103210003846FEF775FAFFF78FFC01223146384633
:10322000FEF76EFAFFF788FC002231463846FEF7BB
:1032300067FA6806641C050EE4B2082CE2D3BDE808
:10324000F0810000000C0140FEF766BA30B58FB087
:1032500028216846FDF7E4F814210AA8FDF7E0F8F4
:103260000120010400248DE8130004904FF4E010C5
:10327000CDE90810022507956846FEF7EDFB08B179
:1032800072B6FEE70F20CDE90A054FF48060CDE964
:103290000C4002210AA80E94FEF7ECFA002801D097
:1032A00072B6FEE70FB030BD704700000148FEF770
:1032B000A7BF0000D00000200148FEF7A1BF00001A
:1032C000180100200148FEF79BBF000060010020AC
:1032D000F0B50268164C174D174E4FF08047A042CC
:1032E00005D0B84203D0A84201D0B04203D122F0A9
:1032F00070034A681A43A04205D0B84203D0A842DE
:1033000001D0B04203D122F44073CA681A434B691A
:1033100022F080021A4302608A68C2620A688262EE
:10332000A04201D10969016301214161F0BD0000A2
:10333000002C0140000400400008004010B501F0DE
:103340001F010123046A8B409C430462036A8A4084
:103350001343036210BD10B5846842EA032224F4CB
:103360007F440A432243826010BD826822F07002CB
:103370000A4342F0070181607047000030B5026ADD
:1033800022F001020262036A4268846924F0730534
:103390000C682C4323F002058B682B430C4DA8428C
:1033A00006D123F00805CB6843EA050323F00403A4
:1033B00007D14D6922F4407245EA02058A6942EA62
:1033C00005024260846149684163036230BD0000C8
:1033D000002C014030B5026A22F010020262026A3B
:1033E000436884690D6824F4E64444EA05248D6842
:1033F00022F0200242EA05120C4DA84206D1CD6807
:1034000022F0800242EA051222F0400207D14D6903
:1034100023F4406343EA85038D6943EA85034360EF
:10342000846149688163026230BD0000002C014064
:1034300030B5026A22F480720262036A4268C4698B
:1034400023F4007324F073050C682C438D6843EA61
:1034500005230C4DA84206D1CD6823F4006343EA4E
:10346000052323F4806307D14D6922F4405242EAD8
:1034700005128D6942EA05124260C4614968C16360
:10348000036230BD002C014030B5026A22F4805244
:103490000262036A4268C4690D6824F4E64444EA9F
:1034A00005248D6823F4005343EA0533064DA842F2
:1034B00004D14D6922F4804242EA85124260C4611F
:1034C00049680164036230BD002C014010B5046AF4
:1034D000036A23F001030362836923F0F00343EAE4
:1034E000021324F00A020A438361026210BD10B580
:1034F000036A23F0100303628469036A24F47044AE
:1035000044EA023223F0A00343EA0111826101621E
:1035100010BD10B5406A0021C185C184FFF7DDF8F8
:1035200010BD0168CA6822F49072CA6001684A69D5
:1035300022F001024A61202180F83A10704710B54C
:1035400090F83A10222901D0022010BD81684FF472
:103550008053994201D1026922B1826A99421BD0FB
:1035600049B10AE00268816A5268C2F308020A801F
:10357000816A891C08E0016971B10168496801F03C
:103580007F011170816A491C8162C18D491E090445
:10359000090CC18503D016E001684968F1E70168AC
:1035A000CA6822F02002CA600168CA6822F48072E8
:1035B000CA6001684A6922F001024A61202180F84C
:1035C0003A10FFF705FA002010BD000070B5044660
:1035D00000680169E26821F4405111430161A1686A
:1035E00020690143606901432068C26841F20C63AD
:1035F0009A430A43C26020684169A26921F440717C
:10360000114341611E492068884202D1FEF7DEF96C
:1036100001E0FEF7CBF900EBC00101EB001160689F
:1036200064228000B1FBF0F3B3FBF2F36FF01806F5
:103630007343B1FBF0F5B1FBF0F605EB83053223E4
:1036400003EB0515B5FBF2F5B6FBF2F605F0F00558
:1036500005EB0615B1FBF0F6B1FBF0F0B0FBF2F0B4
:103660006FF01801484306EB800003EB0010B0FB3D
:10367000F2F0216800F00F002844886070BD00005F
:10368000003801402DE9F0411E46174688460446A1
:10369000069D1CE0681C1AD025B1FEF737F8801B88
:1036A000A84214D92068C16821F4D071C160206893
:1036B000416921F001014161202084F8390084F83A
:1036C0003A00002084F838000320BDE8F08120682B
:1036D000016838EA010004D00020B842DAD00020A6
:1036E000F3E70120F9E700000B4810B50068016816
:1036F00001F0080209494A70406808700121074832
:1037000000F02CFA4FF400510548FDF7F1FFBDE839
:1037100010400148FEF7E2BFA80100200000002091
:10372000001001400148FEF7D9BF0000E801002069
:103730000148FEF7D3BF000028020020FEE7490041
:1037400050EAC12018BF04204A0D18BF40F0010004
:1037500040F2FF72B2EB515F08BF40F00200012857
:1037600008BF052070470907090E002804DB00F197
:10377000E02080F80014704700F00F0000F1E02016
:1037800080F8141D704730380A2801D20120704794
:103790000020704703E011F8013B1844C0B2521EEC
:1037A000D2B2F8D27047002800DC4042704710B512
:1037B00041F6583302685C429A4201DD036002E040
:1037C000A24200DA04600868984201DD0B6010BD77
:1037D000A042FCDA0C6010BD2DE9F0410E461B4CF6
:1037E000051E4FF400514FF4805705DD002220469E
:1037F000FDF786FF012204E001222046FDF780FF4D
:10380000002239462046FDF77BFF2846FFF7CBFF15
:103810000F4D296808644FF480414F00002E05DDEC
:1038200000222046FDF76CFF012204E00122204621
:10383000FDF766FF002239462046FDF761FF30465E
:10384000FFF7B1FF29684863BDE8F081000C014033
:103850008800002038B50C48C068009000F08EFF4A
:1038600001460A4800F032F804460948844202DC66
:103870000848844200D9044601236A4619460220BA
:1038800000F002FB204638BD180000202807002069
:1038900000002043000020C3084810B5006900F074
:1038A0006DFF0146064800F011F80649884202DC27
:1038B0000549884200D9084610BD000018000020C4
:1038C0004807002000002043000020C32DE9F041FC
:1038D0000446006801F036F80546A0602946E06914
:1038E00000F0CEFEE06107462846E16801F02AF8C4
:1038F000A16900F05BFF06463946606900F056FF9B
:1039000007462946206900F051FF394600F0B8FE0D
:10391000314600F0B5FEE5606060BDE8F081000072
:10392000134810B50078012803D012480078012808
:103930001CD1114C2078401CC0B22070022807D343
:1039400000202070FFF786FFA061FFF7A5FF20622F
:103950000A48A16900F0FAFA0948216A00F0F6FA6B
:1039600000F0F6FA606100F019FBE06110BD0000A4
:10397000140000201500002018000020E806002098
:103980000807002008B5FDF7CFFEFFF75FFCFFF743
:10399000D9F8FFF747F9FFF79DF9FFF705FAFFF7A9
:1039A000CFF9FFF737FAFFF751FAFFF76BFA3C212F
:1039B0003848FEF7DBFB3C213748FEF7D7FB35489C
:1039C000FEF796FA3448FEF793FA00F0A3FA00F0F7
:1039D000ADFA0C213148FEF795FD00212F48FEF786
:1039E00091FD2F48FEF784FA00F080F82D4800681A
:1039F000C16841F02001C16000F0B8F9FFF7AEFAEC
:103A00000020FFF773FA0020FFF77BFA264D012410
:103A1000264E274FDFF89C8000F0BAF926A12948EE
:103A20002A68FCF7E1FB00210823264A0846009497
:103A3000FFF7A4FB306800F0F7FD02460B4622A119
:103A40002048FCF7D1FB08231E4A194600200094A9
:103A5000FFF794FB1FA11B483A68FCF7C5FB08233E
:103A6000184A102100200094FFF788FBD8F80000C6
:103A700000F0DAFD02460B4619A11248FCF7B4FB30
:103A80000823104A182100200094FFF777FBFFF766
:103A9000D5FAC1E7D0000020600100208800002096
:103AA00018010020A801002024000020440000206C
:103AB00028000020480000206D6F746F72313A2595
:103AC00064000000540000206A6F7572313A252EA0
:103AD000326600006D6F746F72323A256400000028
:103AE0006A6F7572323A252E326600001549002041
:103AF000154A086048608860C860C861C1E9042050
:103B000088614039114A086048608860C8600A616D
:103B10000F4BC861C1E9053060310E4B0860486049
:103B20008860C860C861C1E90430886140390860B4
:103B300048608860C8600A61C861074AC1E9052019
:103B400070470000280700209A99993E0000C04065
:103B50000000104152B89E3E000008412DE9F0419E
:103B6000DFF84C80064640460C46B8F80610C3887D
:103B700000680A19D8F800701844802A0AD9C1F1DF
:103B800080018DB22A463146FCF705FC621B711993
:103B9000384601E022463146FCF7FDFB98F8061056
:103BA000214401F07F01A8F80610BDE8F081000073
:103BB000740700202DE9F34F81B06A4D002000907A
:103BC0004FF0FF0AEB88AA882889802100F04EF97F
:103BD00084B2092C6ED36889A94690BBB9F80460F9
:103BE00080210020B346DFF880E1E71ED9F80020ED
:103BF0002AE03318B3FBF1F501FB153512F805C0C7
:103C00005D1CB5FBF1F801FB1855555D4CEA052C20
:103C10009D1CB5FBF1F801FB1855DB1CB3FBF1F85B
:103C200001FB1833555DD35C2D0445EA03634CEA70
:103C3000030CF44506D13044B0FBF1F201FB120055
:103C400006E017E0401C80B2B842D2DB4FF0FF30F4
:103C500000B2002813DB0122A9F80A2082B2A9F8D9
:103C60000420B9F80630B9F80800802100F0FEF809
:103C700009281FDBB9F808004D4660B11DE0E41EBD
:103C80000BEB0400C21700EB526222F07F02801A95
:103C9000A9F804000EE028792968421D801D02F071
:103CA0007F0200F07F008A5C085C42EA00202881E5
:103CB000A04202D95046BDE8FE8F82B2A8881118F2
:103CC000491E8029296801440CDDC0F18000C2B280
:103CD0000098FFF75FFD297A2A7911448139CAB229
:103CE000296802E0521ED2B20098FFF753FDA9885E
:103CF0002A892E688C18631EDF1703EB576727F09D
:103D00007F07DB1B9B5D834227D1802C0DD9C1F13E
:103D1000800084B2314422460198FCF73CFB28899C
:103D20002968021B0198204401E031440198FCF706
:103D300032FB0298298901802879296800F109025B
:103D400002F07F0211F802A0297A084400F07F00F7
:103D5000A880002028816881ACE7491C01F07F0021
:103D6000F6E7000074070020535A48590448002120
:103D7000016141611830A0F10C010860002070471A
:103D8000680700200168486A002200B24A62704752
:103D900030B5A1B00020ADF88000441E20A96846CF
:103DA000FFF708FF132856D006DC10280BD0112887
:103DB00037D0122804D14BE014284FD01528EDD06D
:103DC00021B0204630BD9DF80A009DF80D109DF8E9
:103DD0000B2040EA01619DF80C009DF80F300004B3
:103DE00040EA022001439DF80E009DF811209DF845
:103DF000135040EA02629DF81000000440EA0320DC
:103E000002439DF812009DF8153040EA03639DF8C7
:103E10001400000440EA05200343124800F092F821
:103E2000BCE79DF80A009DF80D109DF80B2040EAB4
:103E300001609DF80C10090441EA0221084300F0DA
:103E40009DFC094908600146064800F07FF8A5E797
:103E500000F060F8A2E700F051F89FE7FDF7F8FCEA
:103E60009CE70000280700205000002010B5044601
:103E70009A4201D8981A01E0881A184480B2844204
:103E800000D9002010BD0000F8B50E4600211546EF
:103E90008DF800109906164A0C0E1449116004F1B1
:103EA0000B01C2F80510167150720A221049002049
:103EB000FFF770FC8DF8000022462946FFF76AFCE8
:103EC0000C4E8DF8000033460A2209490A48FEF7D5
:103ED00080FD3346224629460748FEF77AFD3346E1
:103EE000012269460448FEF774FDF8BD535A48594B
:103EF00068070020FFFF0F00A801002003490020F1
:103F000008700C210248FEF74DBB00001400002091
:103F1000880000200349012008700C210248FEF7A8
:103F2000F1BA00001400002088000020034901209D
:103F3000487000210248FEF7E5BA00001400002096
:103F400088000020103080E80E0070470160704744
:103F50000D4810B5B0F9060000F051FA00220B4BE5
:103F600000F064FA00220A4B00F060FA0022094BCC
:103F700000F0BEF800F014FA00F000FC0146BDE8C5
:103F80001040054800F030B81800002000408F4075
:103F900000004E400044E140E80600200D4810B506
:103FA000B0F9080000F02BFA00220B4B00F03EFAAB
:103FB00000220A4B00F03AFA0022094B00F098F870
:103FC00000F0EEF900F0DAFB0146BDE810400548CC
:103FD00000F00AB81800002000408F4000004E405A
:103FE0000044E140080700202DE9F0410446006844
:103FF00000F0A8FCA060B0F17C5F04DAB0F13F4FA4
:1040000001D20020A060E26905460146104600F09A
:1040100037FB1149E061884202DA1049884200D931
:10402000E1612846E16800F08DFCA16900F0BEFB6B
:104030000646E169606900F0B9FB07462946206938
:1040400000F0B4FB394600F01BFB314600F018FBD2
:10405000E5606060BDE8F08100007A4400007AC449
:1040600010B500290AD00878002807D00548784400
:10407000FCF7E6FD002801D0002010BD024878447E
:1040800010BD0000A22800009A28000021F0004284
:10409000A2F16052B2F5801F01F0004328BFD2F1B7
:1040A0007F6C0BD95FEA001C43EAC20242EB5070FE
:1040B00018BF704728BF20F001007047B2F5801F7D
:1040C000BCBF184670474FEA410C1CF5001F02D2D6
:1040D000084600F032BC70B500F052FA00000089CA
:1040E000FFF7F6BF4FF00040A0F5800070470000DA
:1040F0002DE9C04130B4DFF8A0C23CEA111418BF6A
:104100003CEA131400F0EC8081EA03051CEA111468
:1041100044EAD57418BF1CEA131500F0C780A4EB5D
:1041200005044FF0004545EAC12145EAC32341EAB1
:10413000505143EA525304F17F74994204F500341C
:104140004FEAC0204FEAC22208BF904200F09C8094
:104150004FEA13650FF24016765D4FEA134506FBF2
:1041600005F7C7F1807706FB07F74FEAD737A7FBBC
:1041700003687642C8F58038A7FB06CE38BFA8F1A1
:10418000010807FB08E64FF0000EA6FB028CE6FBD9
:1041900003CEDCF1000CCEF1004E38BFAEF1010EC3
:1041A000A6FB0C584FF000074FF00005E6FB0E870A
:1041B000A1FB08C6A0FB07CE16EB0E0645F10005D5
:1041C000E1FB076515F1E04E7EBFA4F580345FEAA0
:1041D00046066D4116F1800745F100054FEA1727A5
:1041E0004FEA066647EA0567A6F1DE46B6F1805F4C
:1041F0004FEA15251FD9384624F0010C05EBC47190
:10420000BCF1FE6F01EB0C1102D8F0BCBDE80081DF
:1042100024425CBF01F5801E9EEAC47F02D4F0BC3C
:10422000BDE80081244238D4F0BCA1F1C041BDE812
:10423000004100F0F3B94FEAD22242EA43524FEA7A
:10424000D323A7FB02864FEAD02040EA415007FB68
:1042500003661EEA0E0F4FEAD12105FB026658BF26
:10426000A6EB0056B6EB00564FEA520E4EEAC37E5E
:1042700018EB0E0E56EB530EBDD518EB02085E413F
:104280007F1C55F10005B6E74FF480154FF000078D
:104290004FF000064FF00008ADE7F0BC4FF0000013
:1042A00001F1C04101F00041BDE8008111EA0C1F9D
:1042B0000CEA131500D00CE013EA0C1F00F0258067
:1042C0004FF00000F0BC81EA030101F00041BDE8BD
:1042D0000081F0BCBDE8004181EA030100F09EB915
:1042E000F0BCBDE8004170B500F04AF9097EFC3E23
:1042F00000F007B881EA03014FF0000001F000412F
:10430000704781EA030100F089B9F0BCBDE80041C3
:104310004FF0000021497047FFFDFBF9F7F5F4F27B
:10432000F0EEEDEBE9E8E6E4E3E1E0DEDDDBDAD850
:10433000D7D5D4D3D1D0CFCDCCCBCAC8C7C6C5C4AE
:10434000C2C1C0BFBEBDBCBBBAB9B8B7B6B5B4B3C5
:10435000B2B1B0AFAEADACABAAA9A8A8A7A6A5A4B0
:10436000A3A3A2A1A09F9F9E9D9C9C9B9A99999874
:104370009797969595949393929191908F8F8E8E17
:104380008D8C8C8B8B8A89898888878786858584A4
:1043900084838382828181800000FF070000F87F90
:1043A0004FEA41034FEA5353A3F58063D3F11E0351
:1043B000C8BFD3F1210C0CDD4FF0004242EAC1220C
:1043C00042EA505232FA03FC8CEAE17CACEBE17039
:1043D0007047102BC4BF0020704703F5787CBCF1F8
:1043E000FF3F04D06FF0004282EA2100704770B5B1
:1043F00000F0C6F84992248000207047F2E710F0E0
:10440000004248BF4042B0FA80F310FA03F10AD0EC
:10441000C3F11D0303F580634FEA415002EB0352E1
:1044200002EBD12170474FF000007047DFF848C120
:1044300070B51CEA111E1EBF1CEA13159EEA0C0F74
:1044400095EA0C0F00F06F8081EA030423EA4C1315
:104450004EEAD47E21EA4C1141F4801143F48013DA
:10446000AE44A1FB024CA0FB0365AEF17F7E361982
:1044700055EB0C05A1FB034C4CF10003A0FB021C07
:1044800016EB0C06654153F10003094218BF46F0D4
:10449000010613F4007F0BD14FEA03314FEA0530D8
:1044A000340341EA155140EA16506FF003020AE066
:1044B0004FEAC3214FEAC520F40241EA555140EAD0
:1044C00056506FF0020202EB2E4201EB025585EAD4
:1044D000CE710AD05FEA440C18BF24F0004450F1BA
:1044E000000041F1000120EAD47040F2FE7C6245F8
:1044F00000D270BDA84214BF4FF080444FF040443A
:10450000002E08BF0024BEF1806FA8BFA1F1C041FA
:10451000BDE8704080F282804FF0000001F1C041A0
:1045200001F0004170479EEA0C0F0CEA131518BF0A
:1045300095EA0C0F06D04FF0000081EA030E0EF052
:10454000004170BD00F01CF88900013E00F007B882
:1045500000F009B84FEA430C5FEA5C5C08D081EADE
:10456000030100F05BB84FEA410C5FEA5C5CF6D1F6
:104570004FF00000014970470000FF070000F87F7E
:104580000EF1020E2EF0030E5EF8046B364205D4D7
:10459000012A43EB030515F5001F12D8012841EB52
:1045A000010C1CF5001F0CD80ED14FEAD17C15F57B
:1045B000001F0CEB4C0C0CF1020C08BF4CEBD37C35
:1045C00004E04FF0080C01E04FEAD37C0CEB4C0503
:1045D00026FA05F606F00706B6F1040C06D20EEB35
:1045E000860CBDE870404CF0010C6047DFE80CF031
:1045F000090B02024FF000414FF00000A1F500212D
:1046000070BD19461046012851EB010418BFD4F5BE
:10461000001484BF002001F0004170BD0808A0F51F
:1046200000114FEA3101704743004FEAD30C4FEAC3
:104630003C0C43401FBF40070CF1605113F0FE4F8C
:1046400070471CF0006F03D100200CF00041704750
:104650000CF0004343EA507010B540EACC0000F083
:1046600026F900BF000000924FEA0001FFF7D6BF15
:104670004FF000414FF00000A1F50021704700000D
:1046800090EA010F48BF81F0004100F16281421AB7
:104690003CBF801A89184FEAD0524FF07F4C1CEA79
:1046A000410FA2EBD15318BF9CEA026F00F03B8090
:1046B0004FF0004C4CEA00204CEA012121FA03FCA7
:1046C00010EB0C0C1ED202F1FF325FEA1C2040EB13
:1046D000C25038BF70471CF07F0F4FEA400C18BF24
:1046E000BCF17F4F38BF7047C3F12003994008BF2A
:1046F00020F00100BCF17F4F38BF7047A0F1C040EF
:1047000000F01BB94FEA3C00000A40EBC25028BF42
:104710001CF0FF0F4FEA400CE6D018BFBCF17F4FF2
:1047200038BF7047EAE79CEA026F05D010EA5C0FD9
:1047300008BF00F00040704710B500F0B8F800BFA7
:1047400064FBBE3E41000B0ED3F19E0208D950F42B
:1047500000034FEA032323FA02F048BF40427047A8
:1047600010B500F0A4F800BF4992248000207047E3
:104770006FF0004282EA20007047000010F0004114
:1047800048BF4042B0FA80F310FA03F2C3F19D0330
:104790000BD051EAC35101EB1220530638BF7047CA
:1047A00000F1010008BF20F0010070474FF47F0CBA
:1047B0001CEAD0121EBF1CEAD11392EA0C0F93EA36
:1047C0000C0F00F0478090EA010F48BF42F480725E
:1047D0004FF0004C4CEA00204CEA012102EB0302AE
:1047E000A0FB0113A2F50002002918BF43F001034A
:1047F0005B0028BF4FEA330342EB22425FEA132CEF
:104800004CEBC2502EBFBCEB436FB2F57C0F704730
:104810004FEA036CBCF1004F08BF20F00100B2F575
:104820007C0F38BF70470BD582F0FF0212F5803F36
:10483000C8BF704700F1C040D8BF00F000407047CB
:1048400000F5000C5FEA4C0C48BF7047B0F1C04067
:1048500000F073B890EA010F0CEAD11348BF42F49C
:104860008072624538BF634504D280EA010000F0DF
:104870000040704710B500F01AF800BF8900013EF3
:1048800000F007B800F009B85FEA410C5FEA1C6C61
:1048900008D080EA010000F050B85FEA400C5FEAFF
:1048A0001C6CF6D14FF00040A0F5800070470EF16F
:1048B000020E2EF0030E5EF8044B244204D44FEA9D
:1048C0004102B2F17F4F11D84FEA4003B3F17F4F5D
:1048D0000CD80ED14FEAD07CB2F17F4F0CEB4C0CD0
:1048E0000CF1020C08BF4CEBD17C04E04FF0080C3B
:1048F00001E04FEAD17C0CEB4C0324FA03F404F002
:104900000704B4F1040C06D20EEB840CBDE8104091
:104910004CF0010C6047DFE80CF0070802024FF092
:104920000040A0F5800010BD0846420018BFD2F13B
:10493000807288BF00F0004010BDFF2141EAD050D6
:10494000C005704790EA010F48BF81F000413FF574
:104950009EAE421A04D882F00042A0EB020011443D
:104960004FEAD0524FF07F4C1CEA410FA2EBD153DB
:1049700018BF9CEA026F4AD04FF0004C4CEA00206E
:104980004CEA012121FA03FCB0EB0C0C0FD412F01D
:10499000FE0F36D05FEA4C001DD5001240EBC2502E
:1049A00038BF70471CF03F0F18BF70470BE0A2F1F3
:1049B00001025FEA1C2040EBC25038BF70471CF078
:1049C0007F0F18BF7047C3F12003994014BF401EEA
:1049D00020F00100704780084FEA122308BF70479B
:1049E000B0FA80FCA2EB0C02CCF1280C60FA0CF0BF
:1049F00093EA122F04BF00EBC25070474FEAC37016
:104A00007047130A5FEADC1008BF7047F6E79CEABC
:104A1000026F04D010EA5C0F08BF0020704710B589
:104A2000FFF745FF40DFF63E81F000407047FBF79F
:104A300053BE00000000000000000102030406074E
:104A4000080900000000010203040000000000004B
:104A50000000002F000000000700070000147F1472
:104A60007F1400242A7F2A12006264081323003670
:104A70004955225000000503000000001C2241009F
:104A8000000041221C000014083E08140008083EE3
:104A90000808000000A060000008080808080000DE
:104AA00060600000002010080402003E5149453EAD
:104AB0000000427F400000426151494600214145CB
:104AC0004B31001814127F10002745454539003C32
:104AD0004A49493000017109050300364949493600
:104AE00000064949291E00003636000000005636EF
:104AF00000000008142241000014141414140000D3
:104B00004122140800020151090600324959513E60
:104B1000007C1211127C007F49494936003E414118
:104B20004122007F4141221C007F49494941007FC9
:104B300009090901003E4149497A007F0808087FB8
:104B40000000417F4100002040413F01007F0814E8
:104B50002241007F40404040007F020C027F007FE6
:104B60000408107F003E4141413E007F09090906CB
:104B7000003E4151215E007F0919294600464949FE
:104B800049310001017F0101003F4040403F001FCB
:104B90002040201F003F4038403F0063140814634A
:104BA00000070870080700615149454300007F4134
:104BB000410000552A552A55000041417F0000045C
:104BC0000201020400404040404000000102040095
:104BD000002054545478007F4844443800384444FA
:104BE000442000384444487F003854545418000886
:104BF0007E0901020018A4A4A47C007F08040478A4
:104C00000000447D4000004080847D00007F10282B
:104C100044000000417F4000007C04180478007CC0
:104C20000804047800384444443800FC2424241840
:104C30000018242418FC007C08040408004854547C
:104C4000542000043F444020003C4040207C001C95
:104C50002040201C003C4030403C004428102844A8
:104C6000001CA0A0A07C004464544C4414141414F0
:104C7000141400000000000000000000000000000C
:104C8000FC000000000002000000000C020C02000A
:104C900000000000000090D0BCD0BC9000030003D6
:104CA00000001824FE448C000302070201001824AF
:104CB000D8B04C80000300010201C038E438E000A5
:104CC00001020201020208060000000000000000CC
:104CD0000000000000F804020000000102040002CD
:104CE00004F800000004020100009060F8609000E9
:104CF0000000010000002020FC2020000000010036
:104D00000000000000000000080600000000202055
:104D10002020200000000000000000000000000033
:104D20000002000000000080601C0200040300007C
:104D30000000F8040404F800010202020100000867
:104D4000FC00000000020302000018844424180044
:104D500003020202020008042424D8000102020215
:104D6000010040B088FC80000000000302003C24E9
:104D70002424C400010202020100F824242CC000F3
:104D80000102020201000C04E41C04000000030004
:104D90000000D8242424D800010202020100384473
:104DA0004444F8000003020201000000100000006B
:104DB00000000200000000002000000000000600CB
:104DC00000000020508804020000000001029090C2
:104DD0009090900000000000000000020488502025
:104DE0000002010000001804C424180000000200A2
:104DF0000000F804E494F80001020202020000E05E
:104E00009CF0800002030000030204FC2424D8006C
:104E1000020302020100F80404040C000102020271
:104E2000010004FC0404F80002030202010004FC77
:104E300024740C0002030202030004FC24740C001E
:104E4000020302000000F0080444CC40000102020A
:104E5000010004FC2020FC040203000003020404FF
:104E6000FC040400020203020200000404FC040427
:104E700006040403000004FC24D00C040203020016
:104E8000030204FC04000000020302020203FC3CD3
:104E9000C03CFC0003000300030004FC30C4FC041D
:104EA000020302000300F8040404F80001020202F5
:104EB000010004FC24241800020302000000F8840E
:104EC0008404F80001020207050004FC2464980031
:104ED000020302000302182424448C00030202028D
:104EE00001000C04FC040C0000020302000004FC9E
:104EF0000000FC04000102020100047C80E01C04AC
:104F00000000030000001CE03CE01C000003000364
:104F10000000049C609C0400020300030200041CC7
:104F2000E01C04000002030200000C84641C040066
:104F30000203020203000000FE0202000000070458
:104F40000400000E30C0000000000001020000025A
:104F500002FE000000040407000000040204000038
:104F60000000000000000000000000000808080821
:104F700008080000020000000000000000000040DF
:104F8000A0A0C00000010202030204FC2020C00017
:104F900000030202010000C02020600000010202A4
:104FA000020000C02024FC0000010202030200C035
:104FB000A0A0C0000001020202000020F824240486
:104FC0000002030202000040A0A0602000070A0ABD
:104FD0000A0404FC2020C000020302000302002097
:104FE000E4000000000203020000000020E40000D2
:104FF00008080807000004FC80E0202002030200EB
:1050000003020404FC000000020203020200E0208C
:10501000E020C00003000300030020E02020C000C7
:1050200002030200030200C02020C00000010202AF
:10503000010020E02020C000080F0A02010000C08B
:105040002020E0000001020A0F0820E0402020009C
:105050000203020000000060A0A020000002020283
:1050600003000020F820000000000102020020E000
:105070000020E00000010202030220E02080602006
:105080000000030100006080E08060000003000376
:10509000000020608060200002030003020020E086
:1050A000208060200808070100000020A060200088
:1050B000000203020200000020DE020000000007E0
:1050C0000400000000FF00000000000F00000002CC
:1050D000DE200000000407000000020102040402B8
:1050E00000000000000000000000000000000000C0
:1050F000000000000000000000F8000000000000B8
:1051000000333000000000100C06100C06000000F8
:1051100000000000000040C07840C0784000043F1C
:1051200004043F040400007088FC083000000018EC
:1051300020FF211E0000F008F000E0180000002110
:105140001C031E211E0000F00888700000001E21B4
:1051500023241927211010160E0000000000000063
:10516000000000000000000000E018040200000041
:1051700000071820400000020418E0000000004072
:10518000201807000000404080F0804040000202EC
:10519000010F01020200000000F000000000010108
:1051A000011F01010100000000000000000080B0AC
:1051B000700000000000000000000000000000017E
:1051C00001010101010100000000000000000030A9
:1051D0003000000000000000000080601804006043
:1051E00018060100000000E010080810E000000FA1
:1051F000102020100F00001010F800000000002008
:10520000203F20200000007008080888700000304F
:1052100028242221300000300888884830000018F7
:10522000202020110E000000C02010F80000000710
:105230000424243F240000F8088888080800001986
:10524000212020110E0000E0108888180000000FB7
:10525000112020110E0000380808C838080000008E
:10526000003F000000000070880808887000001CE3
:10527000222121221C0000E010080810E00000009C
:10528000312222110F00000000C0C0000000000009
:10529000003030000000000000800000000000002E
:1052A0008060000000000000804020100800000125
:1052B00002040810200040404040404040000404E8
:1052C00004040404040000081020408000000020B2
:1052D000100804020100007048080808F0000000EF
:1052E000003036010000C030C828E810E000071880
:1052F000272423140B000000C038E0000000203CED
:1053000023020227382008F8888888700000203F90
:10531000202020110E00C0300808080838000718A7
:1053200020202010080008F808080810E000203F9E
:10533000202020100F0008F88888E8081000203F7F
:1053400020202320180008F88888E8081000203F53
:10535000200003000000C0300808083800000718CB
:105360002020221E020008F808000008F808203F4C
:10537000210101213F20000808F808080000002052
:10538000203F2020000000000808F8080800C08026
:1053900080807F00000008F888C028180800203F9F
:1053A00020012638200008F8080000000000203FF7
:1053B00020202020300008F8F800F8F80800203FEE
:1053C000003F003F200008F830C00008F808203FE8
:1053D000200007183F00E01008080810E0000F1038
:1053E000202020100F0008F808080808F000203FCF
:1053F000210101010000E01008080810E0000F186A
:10540000242438504F0008F8888888887000203F8E
:105410002000030C3020007088080808380000388D
:10542000202121221C00180808F808081800000094
:10543000203F2000000008F808000008F808001FBE
:10544000202020201F000878880000C838080000AD
:1054500007380E010000F80800F80008F800033CC7
:105460000700073C0300081868808068180820308F
:105470002C03032C30200838C800C838080000006E
:10548000203F2000000010080808C8380800203815
:10549000262120201800000000FE02020200000069
:1054A000007F40404000000C30C0000000000000C1
:1054B00000010638C00000020202FE0000000040A9
:1054C00040407F00000000000402020204000000CF
:1054D00000000000000000000000000000008080CC
:1054E00080808080808000020204000000000000B4
:1054F0000000000000000000808080800000001993
:10550000242222223F2008F8008080000000003F73
:10551000112020110E000000008080800000000E8D
:10552000112020201100000000808088F800000E6B
:10553000112020103F200000808080800000001F8C
:10554000222222221300008080F088888818002000
:10555000203F202000000000808080808000006BC1
:1055600094949493600008F8008080800000203FAD
:10557000210000203F2000809898000000000020BB
:10558000203F20200000000000809898000000C00C
:105590008080807F000008F8000080808000203F2D
:1055A00024022D302000000808F800000000002030
:1055B000203F202000008080808080808000203F6D
:1055C00020003F20003F8080008080800000203F3E
:1055D000210000203F200000808080800000001F0C
:1055E000202020201F00808000808000000080FF9D
:1055F000A12020110E000000008080808000000E9D
:10560000112020A0FF8080808000808080002020EA
:105610003F21200001000000808080808000003356
:10562000242424241900008080E0808000000000F1
:10563000001F202000008080000000808000001FEC
:10564000202020103F20808080000080808000018A
:105650000E300806010080800080008080800F30BE
:105660000C030C300F000080800080808000002040
:10567000312E0E312000808080000080808080816B
:105680008E701806010000808080808080000021DC
:10569000302C2221300000000000807C020200003B
:1056A0000000003F404000000000FF00000000003C
:1056B0000000FF0000000002027C800000000040AB
:1056C000403F000000000006010102020404000047
:1056D00000000000000000000000000000000000CA
:1056E00000000000000000000000000000000000BA
:1056F000000000000000000000000000000000F0BA
:10570000F0F0000000000000000000017F01000038
:10571000000000000000001C1C1C00000000000035
:105720008060301C8C60301C0C0000000000000009
:105730000000000000000000000000000000000069
:105740000000000000E00000000000E00000008613
:10575000E69F86868686E69F860000011F0101017E
:1057600001011F010100000080C06020F820E0C09E
:105770000000000003070C18FF70E181000000002A
:10578000070F10107F100F0700008060206080005E
:105790000000E02000000F3020309F70DC37103018
:1057A000C0000000100E03000718101807000000CA
:1057B000C02020E0C0000000000080E01F38E88723
:1057C00003C43C040000070F1810100B070D101045
:1057D000080000808C4C3800000000000000000031
:1057E00000000000000000000000000000000000B9
:1057F00000000000000000000000000080E0300811
:1058000004000000000000FEFF0100000000000096
:1058100000000000030F1820400000040830E08062
:105820000000000000000000000001FFFE0000007A
:105830000000004020180F030000000000000000DE
:1058400000000000C00000000000004266663C1836
:10585000FF183C66664200000000000003000000E4
:1058600000000000000000008000000000000010A8
:1058700010101010FF101010101000000000000099
:105880000300000000000000000000000000000015
:105890000000000000000000000000000000008088
:1058A0008C4C3800000000000000000000000000E8
:1058B0000000000000000010101010101010101058
:1058C00010000000000000000000000000000000C8
:1058D00000000000000000000000000000000000C8
:1058E00000000000000000001C1C1C000000000064
:1058F00000000000000000000000E0380C00000084
:10590000000080701C03000000000060380E0100E1
:10591000000000000000000080C060202060C08007
:10592000000000FEFF010000000001FFFE0000017A
:10593000070E181010180E0701000000808080C0AC
:10594000E000000000000000000000FFFF00000079
:10595000000000001010101F1F1010100000008029
:10596000402020202060C080000000030300804011
:1059700020381F070000001C1A1918181818181FC3
:1059800000000080C020202060C0800000000003D4
:1059900003001010182FE780000000070F101010F0
:1059A00010180F070000000000000000C0E0F00029
:1059B000000000C0B088868180FFFF80800000006A
:1059C00000000010101F1F1010000000E060606059
:1059D00060606060000000003F1008080818F0E0F8
:1059E000000000070B101010101C0F030000000037
:1059F00080C040202020E0C0000000FCFF211008F3
:105A0000080818F0E0000001070C18101010080F2B
:105A100003000000C0E06060606060E060000000C3
:105A200003000000E0180700000000000000001F55
:105A30001F00000000000080C0602020202060C007
:105A400080000087EF2C1818303068CF83000007E3
:105A50000F0810101010180F07000000C0C0202001
:105A60002020C0800000001F3F604040402010FF09
:105A7000FE0000000C1C101010080F0300000000B6
:105A80000000000000000000000000000000000E08
:105A90000E0E0000000000000000001C1C1C000096
:105AA00000000000000000000000000000000000F6
:105AB0000000000C0C000000000000000000005876
:105AC00038000000000000000000000000804020BE
:105AD00010000000102844820100000000000000B7
