:020000040800F2
:10000000080D002091010008E71C0008B118000845
:10001000E51C00088F040008D1240008000000003F
:10002000000000000000000000000000192000088F
:10003000910400080000000017200008712000084B
:10004000AB010008AB010008AB010008AB010008E0
:10005000AB010008AB010008AB010008AB010008D0
:10006000AB010008AB010008AB010008AB010008C0
:10007000AB010008AB010008AB010008AB010008B0
:10008000AB010008AB010008AB010008AB010008A0
:10009000AB010008AB010008AB010008AB01000890
:1000A000AB010008AB010008AB010008AB01000880
:1000B000D5200008E1200008ED200008AB01000871
:1000C000AB010008AB010008AB010008AB01000860
:1000D000AB010008AD240008B9240008C5240008BD
:1000E000AB010008AB010008AB01000800F002F80A
:1000F00000F03FF80AA090E8000C82448344AAF183
:100100000107DA4501D100F034F8AFF2090EBAE880
:100110000F0013F0010F18BFFB1A43F0010318473B
:1001200088430000A8430000103A24BF78C878C173
:10013000FAD8520724BF30C830C144BF04680C60ED
:10014000704700000023002400250026103A28BF35
:1001500078C1FBD8520728BF30C148BF0B60704739
:10016000642900F07D80002070471FB51FBD10B5C9
:1001700010BD00F052F91146FFF7F7FF02F0FCF94D
:1001800000F070F903B4FFF7F2FF03BC00F078F958
:100190000948804709480047FEE7FEE7FEE7FEE71B
:1001A000FEE7FEE7FEE7FEE7FEE7FEE70448054957
:1001B000054A064B70470000D1200008ED000008FA
:1001C00008070020080D0020080900200809002069
:1001D0000FB41CB5074B06AA7B44694600900598EE
:1001E00000F003F90020694600F012F91CBC5DF82C
:1001F00014FB0000350200002DE9F0410E460446D4
:10020000002020622046E168884730B3252805D0C9
:10021000D4E901219047206A401CF2E7E1682046BA
:1002200000278847050018D0A5F14100192802D8F9
:1002300020354FF400673246294620462760FFF7F5
:100240008FFF40B1012804D0F61D26F007060836BE
:10025000D8E7361DD6E72846DAE7206ABDE8F08100
:100260002DE9F0410646002410687529314616A58F
:1002700010D0AFF30080002802DA404213A507E057
:1002800031688A0701D512A502E0490704D511A5F6
:10029000012401E0AFF3008000210A2206F12407C7
:1002A00009E0B0FBF2FCB0FBF2F302FB1C003030C3
:1002B00078541846491C0028F3D123462A46304674
:1002C000BDE8F04100F032B8000000002D00000051
:1002D0002B000000200000004FF0000200B5134684
:1002E00094469646203922BFA0E80C50A0E80C5056
:1002F000B1F12001BFF4F7AF090728BFA0E80C5007
:1003000048BF0CC05DF804EB890028BF40F8042BFF
:1003100008BF704748BF20F8022B11F0804F18BF6C
:1003200000F8012B70477047704770472DE9F04780
:100330000D4699469246044600F124080168880655
:1003400004D5E06921F01001216000E00120A842FD
:1003500001DD471B00E00027A1697A1902EB0900C3
:10036000081AA0612078C00602D42046AFF30080AE
:10037000002608E0D4E901211AF806009047206A17
:10038000401C761C20624E45F4DB2078C0060AD55E
:100390002046AFF3008006E0D4E9012130209047E9
:1003A000206A401C2062381EA7F10107F4DC07E038
:1003B000D4E9012118F805009047206A401C20620A
:1003C000281EA5F10105F3DC2046AFF3008020785C
:1003D000000602D50220BDE8F0870120FBE70000FF
:1003E00001694A1C02610878704700B58FB0CDE9F9
:1003F00001310021059105497944CDE903101146E9
:100400006846FFF7F9FE0FB000BD0000E5FFFFFFF3
:100410000A6802F8010B0A607047754600F02CF874
:10042000AE4605006946534620F00700854618B0E1
:1004300020B5FFF7BBFEBDE820404FF000064FF0AF
:1004400000074FF000084FF0000B21F00701AC4609
:10045000ACE8C009ACE8C009ACE8C009ACE8C00928
:100460008D46704710B50446AFF300802046BDE8C6
:100470001040FFF787BE000000487047A406002028
:1004800001491820ABBEFEE7260002007047FEE7D8
:10049000704772B6FEE7000010B590F821100024F6
:1004A000022903D00421816301243DE001680A6828
:1004B00022F00E020A6001680A6822F001020A6056
:1004C0001A4A0168914201D1012121E0174A1432F0
:1004D000914201D110211BE0144A2832914201D1EE
:1004E000891515E0114A3C32914201D189140FE07F
:1004F0000E4A5032914202D14FF4803108E00B4A4B
:100500006432914202D14FF4801101E04FF08071CA
:10051000064A083A5160012180F82110002180F834
:100520002010416B01B18847204610BD08000240F1
:1005300070B5044600F002F90546601C02D004487C
:100540000078044400F0FAF8401BA042FAD370BDD2
:10055000000000202DE9F84FDFF8A491002409F1F4
:10056000040A0AF1040B23464FF00F080BF1040EA6
:10057000BEE00127A7403A40BA4272D1DFF884C1F9
:100580004D68A5EB0C0665452BD00DDC032D34D052
:1005900005DC35B3012D19D0022D2FD11BE0112D13
:1005A00016D0122D2AD119E0B6F5881F19D006DC15
:1005B000B6F5803F15D0B6F5801F1FD111E0B6F516
:1005C000001F0ED0B6F5041F18D10AE0CB6815E065
:1005D000CB681B1D12E0CB6808330FE0CB680C33EF
:1005E0000CE08B682BB1012B4FF0080303D047615F
:1005F00004E0042302E0076100E00023FF2A01D8A1
:10060000064601E000F104064FEA840501D9A5F190
:100610002005376808FA05FC27EA0C0703FA05F5F8
:1006200047EA050737604D68ED0060D5364DAE6985
:1006300046F00106AE61AD6924F0030605F0010540
:100640000095324D7719BE68A5072D0F08FA05FCF5
:1006500026EA0C06DFF8B8C0604503D14FF0000C65
:1006600017E044E0DFF8ACC0604502D14FF0010C68
:100670000FE0DFF8A4C0604502D14FF0020C08E0A3
:10068000DFF898C0604502D14FF0030C01E04FF055
:10069000040C0CFA05FC4CEA060CC7F808C04D68BF
:1006A000D9F80060ED034D4601D5164300E09643AE
:1006B0002E604D68DAF80060AD03554601D516434B
:1006C00000E096432E604D68DBF80060ED025D4669
:1006D00001D5164300E096432E604D68DEF80060B9
:1006E000AD02754601D5164300E096432E60641CAA
:1006F0000A6832FA04F57FF43CAFBDE8F88F0000D9
:1007000000040140000011100010024000000140F0
:1007100000080140000C014000100140001401409D
:10072000C26821EA02030A4043EA024101617047BC
:100730000AB1016170470904FBE7000001488068C5
:1007400070470000000000200248816802781144D0
:100750008160704700000020074810B5016841F033
:1007600010010160032000F079F8002000F006F885
:1007700000F024F8002010BD0020024070B50D4D9F
:1007800004464FF47A712878B1FBF0F00A49096801
:10079000B1FBF0F000F0F2FA48B9102C07D20022B9
:1007A0002146501E00F03AF800206C6070BD012018
:1007B00070BD0000000000200C0000200E4808B5AD
:1007C000816941F001018161816901F001010091BC
:1007D000C16941F08051C161C06900F08050009052
:1007E000052000F03BF80549486820F0E06040F043
:1007F0000070486008BD0000001002400000014089
:10080000002809DB00F01F0201219140400980000F
:1008100000F1E020C0F8001170470000F0B40E4B6A
:100820001B68C3F30223C3F10704042C00D904247A
:100830001D1D072D01D2002300E0DB1E012606FA54
:1008400004F56D1E0D409D409E40761E164045EA03
:100850000601F0BC01F03DBE0CED00E0064A00F0E0
:10086000070110684FF6FF03184040EA01200349D2
:1008700008431060704700000CED00E00000FA052E
:100880002DE9F0470D46040067D0DFF81881D8F84D
:10089000000000F00700A8420CD2D8F8001021F0A8
:1008A00007012943C8F80010D8F8000000F007003D
:1008B000A84252D120683C4E810712D5400703D58B
:1008C000706840F4E06070602078000703D57068BD
:1008D00040F4605070607068A16820F0F000084338
:1008E00070602078C00727D06068012810D0316878
:1008F000022810D0890700292FDA716821F003013E
:1009000001437160FFF71AFF074641F288390CE096
:1009100031688903EFE78901EDE7FFF70FFFC11B9E
:10092000494502D90320BDE8F0877068616800F08E
:100930000C00B0EB810FF0D1D8F80010404601F068
:100940000701A9420BD9016821F007012943016081
:10095000006800F00700A84201D00120E3E72078FA
:10096000400705D57068E16820F4E06008437060D6
:100970002078000706D57068216920F4605040EAAD
:10098000C100706000F038F87168084AC1F30311C3
:10099000515CC8400649086006480068FFF7EEFE53
:1009A0000020C0E70020024000100240802600081E
:1009B0000C00002004000020044805490068496834
:1009C000044AC1F30221515CC84070470C0000206A
:1009D0000010024090260008044805490068496854
:1009E000044AC1F3C221515CC84070470C0000208A
:1009F000001002409026000812A085B00FC88DE8B4
:100A00000F0014A0144B006804905968134801F0BB
:100A10000C02042A10D0082A0ED1C1F38342C90364
:100A20001DF802000AD5596804AAC1F34041515C7F
:100A30000A4A5043B0FBF1F005B0704708494843FB
:100A4000FAE7000002030405060708090A0B0C0D6B
:100A50000E0F1010010200000010024000127A0078
:100A600000093D002DE9F84F04006FD02078BE4DFD
:100A7000C00747D06868C0F38100012807D06868C4
:100A8000C0F38100022809D16868C00306D5286830
:100A9000800337D560680028E7D033E06068B0F5A0
:100AA000803F0BD010B1B0F5A02F11D0286820F4F2
:100AB00080302860286820F4802002E0286840F414
:100AC00080302860606888B1FFF738FE064609E08C
:100AD000286840F480202860F0E7FFF72FFE801B95
:100AE000642873D828688003F7D50BE0FFF726FE4B
:100AF000064604E0FFF722FE801B6428F1D8286830
:100B00008003F7D42078DFF8648280074FF0010A71
:100B10004FF0000939D5686810F00C0F07D06868ED
:100B2000C0F38100022809D16868C00306D4286890
:100B3000800714D52069012808D110E02069B0B1E0
:100B4000C8F800A0FFF7FAFD064605E007E1FFF749
:100B5000F5FD801B0228C4D828688007F7D52868CF
:100B6000616920F0F80040EAC10028600DE0C8F893
:100B70000090FFF7E3FD064604E0FFF7DFFD801B72
:100B8000022823D828688007F7D4207800072CD5BE
:100B90007748A169D9B1C0F800A0FFF7CFFD06469C
:100BA00004E0FFF7CBFD801B02280FD8686A80079E
:100BB000F7D570484FF4FA510068B0FBF1F000909F
:100BC00000BF0098411E0091FAD20EE07CE0C0F810
:100BD0000090FFF7B3FD064604E0FFF7AFFD801B72
:100BE000022871D8686A8007F7D4207840075BD55F
:100BF000E8690027C00008D4E86940F08050E86147
:100C0000E869012700F0805000905B480168C90541
:100C100011D40168834641F480710160FFF78EFDB5
:100C2000064604E0FFF78AFD801B64284CD8DBF8F9
:100C30000000C005F6D5E06801280AD008B10528F3
:100C400013D0286A20F001002862286A20F00400EE
:100C500002E0286A40F001002862E06841F2883B27
:100C600088B1FFF76BFD064609E0286A40F00400F2
:100C70002862EEE7FFF762FD811B59455BD8286AC1
:100C80008007F7D50BE0FFF759FD064604E0FFF7B4
:100C900055FD811B59454ED8286A8007F7D41FB1EE
:100CA000E86920F08050E861E069A8B36968C1F3A1
:100CB0008101022946D00228484606D0C8F86000C3
:100CC000FFF73CFD044639E035E04746C8F86000D0
:100CD000FFF734FD064604E0FFF730FD801B0228D5
:100CE00029D828688001F7D4206AB0F5803F05D163
:100CF0006868A16820F4003008436860D4E90801FE
:100D00000843696821F4741108436860C7F860A05B
:100D1000FFF714FD044605E023E0FFF70FFD001B7D
:100D2000022808D828688001F7D51AE0FFF706FDE9
:100D3000001B022802D90320BDE8F88F2868800133
:100D4000F4D40EE00128F7D06868226A00F48031FC
:100D5000914204D1616A00F47010884201D00120F0
:100D6000EAE70020E8E700000010024000004242ED
:100D7000800442420C0000200070004010B5401E6C
:100D8000B0F1807F01D3012010BD4FF0E0246061FD
:100D90000F21601701F09DFB0020A061072020615A
:100DA000002010BD7047704710B590F83C20012A14
:100DB00022D0012280F83C20CA688C6822F440725C
:100DC00022434C6822F4806222430C6822F40062C1
:100DD00022430C6922F4805222434C6922F40052CF
:100DE0002243C969002322F480420A4301684A640D
:100DF00080F83C30002010BD022010BD70B590F886
:100E00003C20012A26D0012580F83C50022280F89F
:100E10003D2002685368946823F070060B683343E2
:100E200053600D4B02689A4208D0B2F1804F05D052
:100E30000A4B9A4202D00A4B9A4204D1496824F0E4
:100E400080031943916080F83D50002180F83C10E8
:100E5000084670BD022070BD002C01400004004017
:100E60000008004010B5040003D094F83D0010B114
:100E700007E0012010BD002084F83C00204600F06F
:100E80001FF8022084F83D00211D206801F034F98C
:100E9000012084F8460084F83E0084F83F0084F87E
:100EA000400084F8410084F8420084F8430084F84C
:100EB000440084F8450084F83D00002010BD000087
:100EC00008B500680B49884212D10B48C16941F04E
:100ED0000201C161C069002200F0020000900121FE
:100EE0001D20FFF79BFCBDE808401D20FFF788BCD4
:100EF00008BD0000000400400010024090F83D10C2
:100F0000012901D001207047022180F83D100168BD
:100F1000CA6842F00102CA6000680B49884208D0E2
:100F2000B0F1804F05D00949884202D00849884273
:100F300004D1816801F00701062903D0016841F05E
:100F40000101016000207047002C014000040040B6
:100F50000008004070B5044690F83C00012817D006
:100F6000012584F83C50022084F83D002068826806
:100F700022F0770222F47F4282600868502830D045
:100F80000DDC20284DD005DC98B310283BD148E07B
:100F9000022070BD302844D0402834D139E0602888
:100FA00028D0702806D0B0F5805F2CD0B0F5005F57
:100FB00029D10AE0CB68D1E90121206801F0DFF8EE
:100FC0002068816841F0770109E0CB68D1E901210F
:100FD000206801F0D4F82068816841F48041816084
:100FE00011E0CA684968206801F084F9502120683E
:100FF00007E016E0CA684968206801F08CF96021B2
:10100000206801F0C6F884F83D50002084F83C00C8
:1010100070BDCA684968206801F06CF940212068F9
:10102000EFE7226801461046EBE72DE9F0410D4657
:10103000040003D094F83D0018B108E00120BDE899
:10104000F081002084F83C00204600F041F80220A6
:1010500084F83D002068816844F207029143816072
:10106000211D206801F048F8206881688269066ABD
:101070002B68AF690B4340F203318A4342EA0722EF
:10108000A968EF6911434FF6FC429143EA6841EACF
:1010900007210A4329692F6A090141EA07311143EF
:1010A0006A686D6926F0220646EA05152A438360C0
:1010B0002068816154F8460B0262012004F81F0980
:1010C000E0752076E0762077A0750020B7E7000075
:1010D00000B585B000210091019102910391016852
:1010E0002148B1F1804F22D0204A91421DD1C169DF
:1010F00041F00401C161C16901F0040104918169F9
:1011000041F0080181618069694600F0080004909F
:10111000C02000901648FFF71DFA002203211E2070
:10112000FFF77CFB1E20FFF76BFB05B000BDC1691C
:1011300041F00101C161C16901F0010104918169BE
:1011400041F0040181618069694600F00400049067
:10115000032000900748FFF7FDF9002203211C201F
:10116000FFF75CFB1C20DEE7001002400008004097
:10117000000C01400008014070B590F83E50044654
:1011800090F83F3090F8422090F84300022621B1B9
:1011900004290BD0012D16D10FE0012D13D1012A06
:1011A00011D184F83E6084F8426016E0012B0AD128
:1011B000012808D184F83F600DE0012B03D1012AFA
:1011C00001D1012801D0012070BD84F83E6084F86F
:1011D0003F6084F8426084F8436091B1042904D0F0
:1011E00001220021206800F0BDFF012204212068B7
:1011F00000F0B8FF2068016841F0010101600020A3
:1012000070BD012200212068F2E7704770B50446E6
:10121000006801694FF00005C943890715D4C1680A
:10122000C943890711D4E91E016101202077206894
:1012300080698007204602D0FFF7E7FF04E000F056
:10124000BFF8204600F062F9257720680169C9439C
:10125000490717D4C168C943490713D46FF0040183
:101260000161022020772068806910F4407F2046C9
:1012700002D0FFF7CAFF04E000F0A2F8204600F019
:1012800045F9257720680169C943090716D4C16863
:10129000C943090712D46FF00801016104202077C7
:1012A0002068C0698007204602D0FFF7AEFF04E047
:1012B00000F086F8204600F029F9257720680169BA
:1012C000C943C90617D4C168C943C90613D46FF00E
:1012D00010010161082020772068C06910F4407F68
:1012E000204602D0FFF791FF04E000F069F82046A5
:1012F00000F00CF9257720680169C943C90708D1B6
:10130000C168C943C90704D1891E0161204600F0A4
:101310004FF920680169C943090609D4C168C94366
:10132000090605D46FF0800101612046FFF73AFD00
:1013300020680169C943490609D4C168C9434906FF
:1013400005D46FF040010161204600F032F92068B9
:101350000169C94389060BD4C168C943890607D40A
:101360006FF0200101612046BDE87040FFF71BBD12
:1013700070BD000000B585B000210091019102917F
:10138000039100680B49884212D10B48816941F0F2
:10139000040181618069694600F0040004904FF403
:1013A000106000900220019003900448FFF7D2F8EB
:1013B00005B000BD002C01400010024000080140B3
:1013C000704770B5044690F83C000D4601280AD0DD
:1013D000012084F83C0042B1042A18D0082A2AD0FF
:1013E0000C2A4DD139E0022070BD206800F0DAFEF1
:1013F0002068816941F0080181612068816921F0DC
:1014000004018161206881692A69114311E0206823
:1014100000F0F4FE2068816941F400618161206878
:10142000816921F480618161206881692A6941EACA
:101430000221816124E0206800F00EFF2068C1696C
:1014400041F00801C1612068C16921F00401C16156
:101450002068C1692A69114311E0206800F028FF63
:101460002068C16941F40061C1612068C16921F44B
:101470008061C1612068C1692A6941EA0221C161B4
:10148000002084F83C0070BD10B5040003D094F82F
:101490003D0010B107E0012010BD002084F83C00A1
:1014A000204600F01FF8022084F83D00211D20682E
:1014B00000F022FE012084F8460084F83E0084F803
:1014C0003F0084F8400084F8410084F8420084F82A
:1014D000430084F8440084F8450084F83D0000206F
:1014E00010BD000008B500680649884208D10648CA
:1014F000816941F400618161806900F400600090BD
:1015000008BD0000002C01400010024070470000A0
:1015100010B5044649B104290AD008290BD094F823
:10152000410001280AD0012010BD94F83E00F8E7E0
:1015300094F83F00F5E794F84000F2E7022041B349
:10154000042929D008292AD084F8410001222068E2
:1015500000F008FE13492068884203D1426C42F42F
:10156000004242642068884208D0B0F1804F05D024
:101570000D49884202D00D49884204D1816801F0AA
:101580000701062903D0016841F001010160002034
:1015900010BD84F83E00D9E784F83F00D6E784F810
:1015A0004000D3E7002C0140000400400008004048
:1015B000704770477047000070B5026804461068B5
:1015C000D168536910F00F0F52D003F0010501F4F8
:1015D00090762E435FD0C20705D0CA0503D5E26BD3
:1015E00042F00102E263420705D5DA0703D0E26B5D
:1015F00042F00202E263820705D5DA0703D0E26B0C
:1016000042F00402E263020707D501F020022A43F8
:1016100003D0E26B42F00802E263E26B002A33D0AF
:10162000800604D5880602D5204600F09CFE20687E
:101630004069E16BC0F38010090700D428B320464D
:1016400000F083FE2068416949061AD5416921F0FE
:1016500040014161606BA0B12D494163606BFEF7B1
:101660001BFF002810D0606B416BBDE8704008473D
:10167000830610D58B060ED52046BDE8704000F0DD
:1016800072BE2046FFF796FF70BD2046FFF792FF1F
:101690000020E06370BD03062BD50B0629D594F816
:1016A00039002128F6D1A068B0F5805F01D120690A
:1016B000B0B1206A411C2162216800784860E08C4A
:1016C000401E0004000CE084E4D12068C16821F0D1
:1016D0008001C1602068C16841F04001C16070BDF7
:1016E000206A0088C0F308005060206A801C2062D5
:1016F000E5E74006F3D54806F1D5D168204621F04C
:101700004001D160202184F8391000F0D0F870BD7C
:101710003B23000870B5040004D094F8390000257C
:1017200010B106E0012070BD84F83850204600F06A
:1017300023F8242084F839002068C16821F400517E
:10174000C160204600F056FE2068016921F49041F6
:1017500001612068416921F02A0141612068C16866
:1017600041F40051C160E563202084F8390084F819
:101770003A00002070BD0000F0B585B00024009450
:1017800001940294039444490068424F02220323C7
:10179000424D0E15B84225D1886940F480408861D9
:1017A000886900F480400490886940F004008861F2
:1017B0008869039300F0040004904815CDE9000205
:1017C00069462846FEF7C6FECDE90064694628460C
:1017D0000294FEF7BFFE002202212520FFF71EF82B
:1017E000252028E02E4FB84229D1C86940F40030A6
:1017F000C861C86900F400300490886940F00400B2
:1018000088618869694600F0040004900420CDE9ED
:10181000000203932846FEF79DFE0820CDE9000450
:10182000694628460294FEF795FE002202212620F2
:10183000FEF7F4FF2620FEF7E3FF05B0F0BD194DDB
:10184000A842FAD1C86940F48020C861C86900F490
:1018500080200490886940F0080088618869124DF2
:1018600000F00800CDE90330CDE900626946284662
:10187000FEF770FEE814CDE900046946284602949C
:10188000FEF768FE002202212720FEF7C7FF27206F
:10189000D1E700000038014000100240000801407C
:1018A0000044004000480040000C01407047704771
:1018B000FEE7000070B501220E4D54022146284675
:1018C000FEF736FF0122160231462846FEF730FFAA
:1018D00000F048F8002221462846FEF729FF00F0D4
:1018E00041F8002231462846FEF722FFBDE870404D
:1018F00000F038B8000C014070B50B4D4FF4007487
:10190000002221462846FEF713FF01221102284635
:10191000FEF70EFF00F026F821462846BDE870408D
:101920000122FEF705BF0000000C014070B50C4C11
:10193000012251022046FEF7FBFE00F013F80122BF
:10194000150229462046FEF7F3FE00F00BF80022B0
:1019500029462046FEF7ECFEBDE8704000F002B8D4
:10196000000C01400320401EC0B2FCD270470000B2
:101970002DE9F04186B0002432480094019402948D
:101980000394816941F010018161816901F01001C6
:101990000491816941F020018161816901F0200198
:1019A0000491816941F004018161816901F00401C0
:1019B0000491816941F0080181618069012200F090
:1019C0000800214F5503049029463846FEF7B0FE23
:1019D000DFF8788000224FF473414046FEF7A8FEFE
:1019E0000095022601250396CDE901546946384643
:1019F000FEF7B0FD0327009769464046CDE9014553
:101A0000FEF7A8FD4FF47040CDE90005CDE9024690
:101A100069464046FEF79EFD28021125CDE90005E6
:101A2000CDE9024769464046FEF794FD3002CDE914
:101A30000005CDE9024669464046FEF78BFD06B03B
:101A4000BDE8F0810010024000100140000C014090
:101A500010B592B000240F941C2168461094FEF734
:101A60003BFC202107A8FEF737FC24482249C0E9A7
:101A7000001441F61F41C0E9024180210461C0E920
:101A80000541FFF701FD08B1FEF703FD0F940FA913
:101A90001A481094FFF7B2F908B1FEF7FAFC60207B
:101AA000CDE900040294039404940594002269464D
:101AB00012480694FFF785FC08B1FEF7EAFC0C22F9
:101AC00069460E48FFF77DFC08B1FEF7E2FC07947B
:101AD000089409944FF400500A94CDE90B4007A9EB
:101AE00006480E94FFF760F908B1FEF7D2FC0348F0
:101AF000FFF740FC12B010BD002C01404400002054
:101B000010B58CB024216846FEF7E6FB002415488A
:101B100009944FF080410A94C0E900144FF6FF7118
:101B2000C0E90241046184610320CDE90004012081
:101B3000CDE902040494CDE90540079469460948BB
:101B40000894FFF772FA08B1FEF7A3FC099409A9FB
:101B500004480A94FFF752F9002801D0FEF799FCD7
:101B60000CB010BD8C00002010B586B000241748C2
:101B70000094019402940394049413490594016021
:101B800041F61F41C0E90114C721C0E90314846173
:101B9000FFF768F908B1FEF77CFC4FF48050009025
:101BA00069460A48FFF7D6F908B1FEF772FC0494BB
:101BB00004A906480594FFF721F9002801D0FEF793
:101BC00068FC06B010BD000000040040D4000020F6
:101BD00010B58CB024216846FEF77EFB0024164821
:101BE000099414490A94C0E900144FF6FF71C0E942
:101BF0000241046184610320CDE900040120CDE9A4
:101C000002040494CDE90540079469460A48089403
:101C1000FFF70BFA08B1FEF73CFC099409A9064846
:101C20000A94FFF7EBF8002801D0FEF732FC0CB065
:101C300010BD0000000800401C0100200C4810B539
:101C40000A4901604FF4E1314160002181600C22BA
:101C5000C160C0E904128161C161FFF75BFD00282A
:101C600003D0BDE81040FEF714BC10BD00380140A1
:101C7000640100200C4810B50A4901604FF4E131BD
:101C80004160002181600C22C160C0E904128161C1
:101C9000C161FFF73FFD002803D0BDE81040FEF70B
:101CA000F8BB10BD00440040A40100200C4810B552
:101CB0000A4901604FF4E1314160002181600C224A
:101CC000C160C0E904128161C161FFF723FD0028F2
:101CD00003D0BDE81040FEF7DCBB10BD004800405B
:101CE000E4010020FEE7FEE730B40021084B0A467D
:101CF000002003EBC004401CC0B262548028F8D31B
:101D0000491CC9B20829F3D330BC00F0ABB80000BD
:101D10002402002028B1012806D10021A72000F0CC
:101D20005FB90021A620FAE7704710B558B1012825
:101D300010D10021C02000F053F90021A020BDE8FF
:101D4000104000F04DB90021C82000F049F90021F1
:101D5000A120F4E710BD000030B5CC0801F0070366
:101D600001259D40EBB2064D05EBC005C808285C77
:101D70000AB1184302E063EA0000C043285530BDB1
:101D80002402002010B5C820FEF7D2FB0021AE20AF
:101D900000F026F90021084600F022F90021102069
:101DA00000F01EF90021402000F01AF900218120E6
:101DB00000F016F90021CF2000F012F90021A12037
:101DC00000F00EF90021C82000F00AF90021A62039
:101DD00000F006F90021A82000F002F900213F20C0
:101DE00000F0FEF80021D32000F0FAF800210846A8
:101DF00000F0F6F80021D52000F0F2F80021802054
:101E000000F0EEF80021D92000F0EAF80021F120DE
:101E100000F0E6F80021DA2000F0E2F800211220BC
:101E200000F0DEF80021DB2000F0DAF8002130209D
:101E300000F0D6F80021202000F0D2F80021022086
:101E400000F0CEF800218D2000F0CAF80021142007
:101E500000F0C6F8FFF748FF0021BDE81040AF20B2
:101E600000F0BEB870B5174E002505F1B000C0B245
:101E7000002100F0B5F80021084600F0B1F800217B
:101E8000102000F0ADF8FFF715FD782000F0C6F83F
:101E9000FFF74CFD402000F0C1F8FFF747FD00249C
:101EA00006EBC400405D00F0B9F8FFF73FFD641C8D
:101EB000E4B2802CF4D3FFF71FFD6D1CEDB2082DAA
:101EC000D3D370BD240200202DE9FC4F1D46884667
:101ED00081468B460090082B0DD0680700D001206A
:101EE00000EBD50069084843C0B2203A02F0FF0A6F
:101EF0000026019046E00620F7E7082D10D00C2DB3
:101F000014D0102D16D0182D3FD122490AEBCA004B
:101F100001EB80000027845DE0070FD00B9A10E0F2
:101F20001D490AEB4A0001EB4000F3E70AEB4A00C7
:101F30001A49EDE71A4901EB0A10EBE70B9830B3A9
:101F4000002241464846FFF707FF7F1C640808F15E
:101F50000100FFB200F0FF08082FDDD309F10100F6
:101F600000F0FF09082D0AD00099A9EB0100B0EBA1
:101F7000550F04D10BF10800894600F0FF0B761CC9
:101F8000D846F6B201988642B7D3BDE8FC8F01224D
:101F9000D7E700002433000898260008C02800086E
:101FA000342D00082DE9F8411E46154688460446A2
:101FB000079F0BE03346414620460097FFF784FF1A
:101FC000082E0AD004EB5600C4B26D1C2A78A2F188
:101FD00020005E28EED9BDE8F881A41DE4B2F4E744
:101FE00070B50C460546FFF765FC782000F016F842
:101FF000FFF79CFC0CB1402000E0002000F00EF840
:10200000FFF794FC284600F009F8FFF78FFCBDE8C5
:102010007040FFF771BC7047704700002DE9F04138
:10202000124F002405464FF40078BE15280601D54E
:10203000012200E0002241463846FEF779FBFFF717
:1020400091FC012231463846FEF772FBFFF78AFC0D
:10205000002231463846FEF76BFB6806641C050E0D
:10206000E4B2082CE2D3BDE8F0810000000C01408E
:10207000FEF76ABB30B58FB028216846FEF72CF911
:1020800014210AA8FEF728F90120010400248DE894
:10209000130004904FF4E010CDE9081002250795D5
:1020A0006846FEF7DFFC08B172B6FEE70F20CDE907
:1020B0000A054FF48060CDE90C4002210AA80E9475
:1020C000FEF7DEFB002801D072B6FEE70FB030BD90
:1020D000704700000148FFF799B800008C0000200D
:1020E0000148FFF793B80000D40000200148FFF733
:1020F0008DB800001C010020F0B50268164C174D89
:10210000174E4FF08047A04205D0B84203D0A842F6
:1021100001D0B04203D122F070034A681A43A042B2
:1021200005D0B84203D0A84201D0B04203D122F476
:102130004073CA681A434B6922F080021A43026056
:102140008A68C2620A688262A04201D10969016399
:1021500001214161F0BD0000002C0140000400405D
:102160000008004010B501F01F010123046A8B40F4
:102170009C430462036A8A401343036210BD10B596
:10218000846842EA032224F47F440A4322438260A3
:1021900010BD826822F070020A4342F0070181609C
:1021A0007047000030B5026A22F001020262036A41
:1021B0004268846924F073050C682C4323F00205FF
:1021C0008B682B430C4DA84206D123F00805CB6841
:1021D00043EA050323F0040307D14D6922F440725A
:1021E00045EA02058A6942EA05024260846149685B
:1021F0004163036230BD0000002C014030B5026A2B
:1022000022F010020262026A436884690D6824F4B5
:10221000E64444EA05248D6822F0200242EA0512D1
:102220000C4DA84206D1CD6822F0800242EA051288
:1022300022F0400207D14D6923F4406343EA85034D
:102240008D6943EA85034360846149688163026262
:1022500030BD0000002C014030B5026A22F48072CB
:102260000262036A4268C46923F4007324F07305B0
:102270000C682C438D6843EA05230C4DA84206D117
:10228000CD6823F4006343EA052323F4806307D178
:102290004D6922F4405242EA05128D6942EA051264
:1022A0004260C4614968C163036230BD002C0140D3
:1022B00030B5026A22F480520262036A4268C4693D
:1022C0000D6824F4E64444EA05248D6823F40053A1
:1022D00043EA0533064DA84204D14D6922F48042F9
:1022E00042EA85124260C46149680164036230BDFC
:1022F000002C014010B5046A036A23F00103036255
:10230000836923F0F00343EA021324F00A020A432C
:102310008361026210BD10B5036A23F010030362EB
:102320008469036A24F4704444EA023223F0A0036F
:1023300043EA01118261016210BD10B5406A0021BB
:10234000C185C184FFF736F910BD0168CA6822F45F
:102350009072CA6001684A6922F001024A61202134
:1023600080F83A10704710B590F83A10222901D041
:10237000022010BD81684FF48053994201D1026957
:1023800022B1826A99421BD049B10AE00268816A8F
:102390005268C2F308020A80816A891C08E0016958
:1023A00071B10168496801F07F011170816A491CAF
:1023B0008162C18D491E0904090CC18503D016E054
:1023C00001684968F1E70168CA6822F02002CA6022
:1023D0000168CA6822F48072CA6001684A6922F002
:1023E00001024A61202180F83A10FFF75FFA0020CD
:1023F00010BD000070B5044600680169E26821F470
:10240000405111430161A1682069014360690143A2
:102410002068C26841F20C639A430A43C260206894
:102420004169A26921F44071114341611E4920684C
:10243000884202D1FEF7D0FA01E0FEF7BDFA00EBC8
:10244000C00101EB0011606864228000B1FBF0F371
:10245000B3FBF2F36FF018067343B1FBF0F5B1FB79
:10246000F0F605EB8305322303EB0515B5FBF2F51A
:10247000B6FBF2F605F0F00505EB0615B1FBF0F63C
:10248000B1FBF0F0B0FBF2F06FF01801484306EB3F
:10249000800003EB0010B0FBF2F0216800F00F00A9
:1024A0002844886070BD0000003801400148FFF7F3
:1024B00083B80000640100200148FFF77DB80000E8
:1024C000A40100200148FFF777B80000E4010020D4
:1024D000FEE70907090E002804DB00F1E02080F880
:1024E0000014704700F00F0000F1E02080F8141D88
:1024F0007047002800DC4042704700002DE9F041A1
:102500000E461B4C051E4FF400514FF4805705DD5D
:1025100000222046FEF70CF9012204E001222046A9
:10252000FEF706F9002239462046FEF701F9284653
:10253000FFF7DFFF0F4D296808644FF480414F001B
:10254000002E05DD00222046FEF7F2F8012204E00D
:1025500001222046FEF7ECF8002239462046FEF71D
:10256000E7F83046FFF7C5FF29684863BDE8F0810A
:10257000000C01404400002008B5FEF7EDF8FFF71D
:1025800079FDFFF7F5F9FFF763FAFFF7B9FAFFF7FF
:102590001FFBFFF7E9FAFFF751FBFFF76BFBFFF7B4
:1025A00085FB3C212748FEF7E7FD3C212648FEF746
:1025B000E3FD2448FEF7A2FC2348FEF79FFC0C2114
:1025C0002248FEF7A5FF00212048FEF7A1FF204882
:1025D000FEF794FCFFF7D6FB0020FFF79BFB0020E3
:1025E000FFF7A3FB40F6B8300146FFF787FF012451
:1025F000184E6503134800F03DF8024616A119482D
:10260000FDF7E6FD00210823164A08460094FFF76F
:10261000C9FC0D4800F02EF8424213A11148FDF705
:10262000D7FD08230F4A194600200094FFF7BAFC93
:10263000FFF718FC1420FDF77BFF29463046FEF714
:102640006FF8D7E78C0000201C0100204400002018
:10265000D4000020001001406D6F746F72313A2574
:1026600064000000100000206D6F746F72323A2514
:10267000640000000168486A002200B24A627047A4
:102680000000000000000000010203040607080922
:102690000000000001020304000000000000000030
:1026A000002F000000000700070000147F147F14B3
:1026B00000242A7F2A120062640813230036495539
:1026C000225000000503000000001C224100000011
:1026D00041221C000014083E08140008083E0808A7
:1026E000000000A060000008080808080000606002
:1026F0000000002010080402003E5149453E000041
:10270000427F4000004261514946002141454B3122
:10271000001814127F10002745454539003C4A49EE
:102720004930000171090503003649494936000660
:102730004949291E000036360000000056360000C8
:102740000008142241000014141414140000412243
:10275000140800020151090600324959513E007C1B
:102760001211127C007F49494936003E4141412205
:10277000007F4141221C007F49494941007F0909EE
:102780000901003E4149497A007F0808087F00009E
:10279000417F4100002040413F01007F0814224159
:1027A000007F40404040007F020C027F007F040811
:1027B000107F003E4141413E007F09090906003E6D
:1027C0004151215E007F0919294600464949493196
:1027D0000001017F0101003F4040403F001F2040B9
:1027E000201F003F4038403F006314081463000777
:1027F0000870080700615149454300007F414100CE
:1028000000552A552A55000041417F00000402016D
:10281000020400404040404000000102040000204B
:1028200054545478007F4844443800384444442089
:1028300000384444487F00385454541800087E0936
:1028400001020018A4A4A47C007F080404780000FE
:10285000447D4000004080847D00007F10284400BB
:102860000000417F4000007C04180478007C0804CC
:10287000047800384444443800FC24242418001808
:10288000242418FC007C08040408004854545420F4
:1028900000043F444020003C4040207C001C20407D
:1028A000201C003C4030403C004428102844001CC0
:1028B000A0A0A07C004464544C44141414141414B8
:1028C0000000000000000000000000000000FC000C
:1028D0000000000002000000000C020C02000000DA
:1028E0000000000090D0BCD0BC90000300030000AA
:1028F0001824FE448C000302070201001824D8B0FB
:102900004C80000300010201C038E438E0000102FD
:1029100002010202080600000000000000000000A2
:10292000000000F80402000000010204000204F8A4
:1029300000000004020100009060F86090000000B8
:10294000010000002020FC20200000000100000009
:1029500000000000000008060000000020202020E9
:102960002000000000000000000000000000000245
:10297000000000000080601C020004030000000052
:10298000F8040404F8000102020201000008FC003F
:10299000000000020302000018844424180003020F
:1029A0000202020008042424D800010202020100ED
:1029B00040B088FC80000000000302003C24242476
:1029C000C400010202020100F824242CC00001020C
:1029D000020201000C04E41C0400000003000000DB
:1029E000D8242424D80001020202010038444444BF
:1029F000F8000003020201000000100000000000C7
:102A0000020000000000200000000000060000009E
:102A10000020508804020000000001029090909075
:102A20009000000000000000000204885020000216
:102A3000010000001804C424180000000200000077
:102A4000F804E494F80001020202020000E09CF0A5
:102A5000800002030000030204FC2424D8000203C7
:102A600002020100F80404040C0001020202010049
:102A700004FC0404F80002030202010004FC2474B4
:102A80000C0002030202030004FC24740C00020385
:102A900002000000F0080444CC40000102020100E2
:102AA00004FC2020FC040203000003020404FC04D4
:102AB0000400020203020200000404FC04040604F1
:102AC0000403000004FC24D00C04020302000302EF
:102AD00004FC04000000020302020203FC3CC03CB0
:102AE000FC0003000300030004FC30C4FC040203E8
:102AF00002000300F8040404F800010202020100CD
:102B000004FC24241800020302000000F88484045A
:102B1000F80001020207050004FC24649800020387
:102B200002000302182424448C0003020202010064
:102B30000C04FC040C0000020302000004FC000072
:102B4000FC04000102020100047C80E01C0400007F
:102B5000030000001CE03CE01C0000030003000038
:102B6000049C609C0400020300030200041CE01C9F
:102B700004000002030200000C84641C0400020331
:102B8000020203000000FE0202000000070404002D
:102B9000000E30C00000000000010200000202FE32
:102BA000000000040407000000040204000000000C
:102BB00000000000000000000000080808080808E5
:102BC0000000020000000000000000000040A0A083
:102BD000C00000010202030204FC2020C000000328
:102BE0000202010000C02020600000010202020079
:102BF00000C02024FC0000010202030200C0A0A0CB
:102C0000C0000001020202000020F8242404000297
:102C1000030202000040A0A0602000070A0A0A0484
:102C200004FC2020C0000203020003020020E40094
:102C30000000000203020000000020E40000080879
:102C40000807000004FC80E02020020302000302C9
:102C50000404FC000000020203020200E020E02065
:102C6000C00003000300030020E02020C000020396
:102C70000200030200C02020C00000010202010087
:102C800020E02020C000080F0A02010000C0202020
:102C9000E0000001020A0F0820E0402020000203AB
:102CA000020000000060A0A0200000020202030059
:102CB0000020F820000000000102020020E00020B7
:102CC000E00000010202030220E0208060200000FA
:102CD000030100006080E08060000003000300004A
:102CE00020608060200002030003020020E02080BA
:102CF00060200808070100000020A06020000002FA
:102D000003020200000020DE0200000000070400B1
:102D1000000000FF00000000000F00000002DE20A5
:102D20000000000407000000020102040402000089
:102D30000000000000000000000000000000000093
:102D400000000000000000F8000000000000003358
:102D50003000000000100C06100C060000000000FF
:102D60000000000040C07840C0784000043F0404E8
:102D70003F040400007088FC08300000001820FFA9
:102D8000211E0000F008F000E018000000211C03E4
:102D90001E211E0000F00888700000001E21232460
:102DA0001927211010160E0000000000000000007E
:102DB00000000000000000E018040200000000070E
:102DC0001820400000020418E00000000040201815
:102DD00007000000404080F0804040000202010FE8
:102DE00001020200000000F0000000000101011FCC
:102DF00001010100000000000000000080B0700030
:102E000000000000000000000000000000010101BF
:102E1000010101010000000000000000003030004E
:102E20000000000000000000806018040060180628
:102E30000100000000E010080810E000000F102062
:102E400020100F00001010F8000000000020203FAC
:102E50002020000000700808088870000030282436
:102E600022213000003008888848300000182020D7
:102E700020110E000000C02010F8000000070424FC
:102E8000243F240000F80888880808000019212041
:102E900020110E0000E0108888180000000F11209B
:102EA00020110E0000380808C83808000000003F54
:102EB000000000000070880808887000001C2221B3
:102EC00021221C0000E010080810E0000000312260
:102ED00022110F00000000C0C00000000000003000
:102EE0003000000000000080000000000000806052
:102EF00000000000000080402010080000010204D3
:102F000008102000404040404040400004040404B9
:102F10000404040000081020408000000020100875
:102F200004020100007048080808F00000000030AA
:102F300036010000C030C828E810E0000718272438
:102F400023140B000000C038E0000000203C2302E6
:102F50000227382008F8888888700000203F202049
:102F600020110E00C030080808083800071820207B
:102F70002010080008F808080810E000203F202072
:102F800020100F0008F88888E8081000203F202053
:102F90002320180008F88888E8081000203F200047
:102FA00003000000C030080808380000071820207F
:102FB000221E020008F808000008F808203F21013E
:102FC00001213F20000808F8080800000020203FE9
:102FD0002020000000000808F8080800C080808059
:102FE0007F00000008F888C028180800203F200152
:102FF0002638200008F8080000000000203F2020AC
:103000002020300008F8F800F8F80800203F003FC2
:10301000003F200008F830C00008F808203F2000DA
:1030200007183F00E01008080810E0000F102020EB
:1030300020100F0008F808080808F000203F2101C0
:1030400001010000E01008080810E0000F18242417
:1030500038504F0008F8888888887000203F20008A
:10306000030C302000708808080838000038202140
:1030700021221C00180808F8080818000000203F4A
:103080002000000008F808000008F808001F2020B1
:1030900020201F000878880000C838080000073882
:1030A0000E010000F80800F80008F800033C0700D3
:1030B000073C0300081868808068180820302C033B
:1030C000032C30200838C800C83808000000203F12
:1030D0002000000010080808C83808002038262101
:1030E00020201800000000FE020202000000007F05
:1030F00040404000000C30C0000000000000000113
:103100000638C00000020202FE00000000404040FD
:103110007F00000000000402020204000000000022
:10312000000000000000000000000000808080809F
:103130008080808000020204000000000000000087
:103140000000000000008080808000000019242220
:1031500022223F2008F8008080000000003F11205C
:1031600020110E000000008080800000000E112061
:1031700020201100000000808088F800000E11203F
:1031800020103F200000808080800000001F22224D
:1031900022221300008080F0888888180020203FB9
:1031A000202000000000808080808000006B9494CC
:1031B0009493600008F8008080800000203F210088
:1031C00000203F2000809898000000000020203F51
:1031D00020200000000000809898000000C080803F
:1031E000807F000008F8000080808000203F2402DB
:1031F0002D302000000808F8000000000020203FCB
:10320000202000008080808080808000203F20007F
:103210003F20003F8080008080800000203F210010
:1032200000203F200000808080800000001F2020C0
:1032300020201F00808000808000000080FFA120EF
:1032400020110E000000008080808000000E112000
:1032500020A0FF80808080008080800020203F218F
:103260002000010000008080808080000033242442
:1032700024241900008080E0808000000000001FEE
:10328000202000008080000000808000001F20209F
:1032900020103F20808080000080808000010E3060
:1032A0000806010080800080008080800F300C03C1
:1032B0000C300F0000808000808080000020312EC4
:1032C0000E312000808080000080808080818E70A0
:1032D0001806010000808080808080000021302C52
:1032E0002221300000000000807C0202000000006B
:1032F000003F404000000000FF0000000000000010
:10330000FF0000000002027C800000000040403FFF
:103310000000000000060101020204040000000099
:10332000000000000000000000000000000000009D
:10333000000000000000000000000000000000008D
:1033400000000000000000000000000000F0F0F0AD
:10335000000000000000000000017F0100000000EC
:1033600000000000001C1C1C000000000000806029
:10337000301C8C60301C0C000000000000000000BD
:10338000000000000000000000000000000000003D
:10339000000000E00000000000E000000086E69F62
:1033A00086868686E69F860000011F0101010101D5
:1033B0001F010100000080C06020F820E0C0000074
:1033C000000003070C18FF70E18100000000070FE8
:1033D00010107F100F070000806020608000000048
:1033E000E02000000F3020309F70DC371030C0002C
:1033F0000000100E03000718101807000000C0207E
:1034000020E0C0000000000080E01F38E88703C40F
:103410003C040000070F1810100B070D10100800D7
:1034200000808C4C3800000000000000000000000C
:10343000000000000000000000000000000000008C
:103440000000000000000000000080E030080400E0
:103450000000000000FEFF0100000000000000006E
:103460000000030F1820400000040830E080000036
:10347000000000000000000001FFFE00000000004E
:10348000004020180F0300000000000000000000B2
:103490000000C00000000000004266663C18FF18F3
:1034A0003C666642000000000000030000000000CF
:1034B000000000000000800000000000001010105C
:1034C0001010FF101010101000000000000003008A
:1034D00000000000000000000000000000000000EC
:1034E00000000000000000000000000000808C4C84
:1034F0003800000000000000000000000000000094
:10350000000000000010101010101010101010001B
:1035100000000000000000000000000000000000AB
:10352000000000000000000000000000000000009B
:103530000000000000001C1C1C0000000000000037
:103540000000000000000000E0380C000000000057
:1035500080701C03000000000060380E01000000B5
:1035600000000000000080C060202060C0800000DB
:1035700000FEFF010000000001FFFE000001070E39
:10358000181010180E0701000000808080C0E000B5
:10359000000000000000000000FFFF00000000002D
:1035A00000001010101F1F1010100000008040209D
:1035B00020202060C08000000003030080402038ED
:1035C0001F070000001C1A1918181818181F0000EF
:1035D0000080C020202060C08000000000030300A5
:1035E0001010182FE780000000070F10101010189F
:1035F0000F070000000000000000C0E0F000000025
:1036000000C0B088868180FFFF808000000000003D
:103610000010101F1F1010000000E060606060606C
:103620006060000000003F1008080818F0E000008B
:1036300000070B101010101C0F030000000080C0CA
:1036400040202020E0C0000000FCFF2110080808F6
:1036500018F0E0000001070C18101010080F03000C
:103660000000C0E06060606060E060000000030097
:103670000000E0180700000000000000001F1F000D
:10368000000000000080C0602020202060C080007A
:103690000087EF2C1818303068CF830000070F0820
:1036A00010101010180F07000000C0C020202020AC
:1036B000C0800000001F3F604040402010FFFE001F
:1036C00000000C1C101010080F0300000000000088
:1036D000000000000000000000000000000E0E0EC0
:1036E0000000000000000000001C1C1C0000000086
:1036F00000000000000000000000000000000000CA
:10370000000C0C0000000000000000000058380011
:1037100000000000000000000000008040201000B9
:10372000000010284482010000000000000000009A
:10373000000001020408100000000000000000006A
:103740000000000000848484848484848484840051
:103750000000000000000000000000000000102039
:103760004080000000000000000000000000018216
:1037700044281000000010080402010000000000AE
:1037800000C020201010101030E0C0000003030023
:1037900000F010080C070300000000001C1C1C00B7
:1037A00000000000000000C0406020202040C00059
:1037B00000FCFF01F00E03C1FE03807F0001070E35
:1037C00008111110110904020000000080E0E0005F
:1037D000000000000000807C4340477FF88000002C
:1037E00010181F1000000000131F1C1020E0E02024
:1037F00020202060C080000000FFFF101010101873
:103800002FE78000101F1F1010101010180F070056
:10381000000080C0402020202060E00000FCFF016C
:1038200000000000000001000001070E1810101039
:103830000804030020E0E02020202040C080000099
:1038400000FFFF000000000001FFFE00101F1F101E
:10385000101018080E07010020E0E0202020202092
:103860002060800000FFFF101010107C000000009E
:10387000101F1F10101010101018060020E0E0207C
:10388000202020206060800000FFFF101010107CBE
:1038900000000100101F1F100000000000000000C9
:1038A000000080C06020202040E0000000FCFF01FC
:1038B00000004040C0C140400001070E1810101029
:1038C0000F0F000020E0E0200000000020E0E020DA
:1038D00000FFFF101010101010FFFF00101F1F102E
:1038E00000000000101F1F100000202020E0E0203A
:1038F000202000000000000000FFFF00000000008A
:1039000000001010101F1F10101000000000000019
:10391000202020E0E020202000000000000000FF28
:10392000FF0000000060E0808080C07F3F0000005A
:1039300020E0E020000020A06020200000FFFF30F9
:10394000187CE3C000000000101F1F1000000113CE
:103950001F1C181020E0E020000000000000000004
:1039600000FFFF000000000000000000101F1F10FB
:10397000101010101018060020E0E0E00000000019
:10398000E0E0E02000FF013FFEC0E01E01FFFF007D
:10399000101F1000031F0300101F1F1020E0E0C0C5
:1039A000000000000020E02000FF0003071C78E07A
:1039B0008000FF00101F100000000000030F1F0018
:1039C000000080C060202060C080000000FEFF0179
:1039D0000000000000FFFE000001070E1810101884
:1039E0000C07010020E0E0202020202060C08000A3
:1039F00000FFFF2020202020301F0F00101F1F106D
:103A00000000000000000000000080C06020206076
:103A1000C080000000FEFF010000000000FFFE006B
:103A20000001070E1111133C7C67210020E0E0200B
:103A30002020202060C0800000FFFF101030F0D058
:103A4000080F0700101F1F10000000030F1C1010AC
:103A50000080C060202020204040E00000070F0CC4
:103A60001818303060E08100001F0C081010101092
:103A7000180F07008060202020E0E02020206080D8
:103A80000100000000FFFF00000000010000000036
:103A9000101F1F100000000020E0E02000000000C8
:103AA0000020E02000FFFF00000000000000FF00F9
:103AB00000070F1810101010100807002060E0E039
:103AC0002000000020E060200000077FF8800080D8
:103AD0007C03000000000000071F1C07000000001E
:103AE00020E0E02000E0E0200020E0200007FFF8D8
:103AF000E01FFFFCE01F00000000031F0300011F88
:103B000003000000002060E0A0000020E060200032
:103B1000000000038F7CF8C6010000000010181E92
:103B2000130001171F1810002060E0E020000000C3
:103B300020E06020000001073EF8E01807000000C8
:103B400000000010101F1F101000000000806020F7
:103B5000202020A0E0E0200000000000C0F03E0F88
:103B60000300000000101C1F171010101018060092
:103B70000000000000FC0404040404000000000035
:103B800000FF00000000000000000000007F404037
:103B900040404000000010E0000000000000000075
:103BA00000000000031C6080000000000000000016
:103BB000000000030C70800000000404040404FCF6
:103BC0000000000000000000000000FF00000000F6
:103BD000000040404040407F000000000000001016
:103BE000080C040C08100000000000000000000099
:103BF00000000000000000000000000000000000C5
:103C000000000000000000000000000000000000B4
:103C100000000000000000008080808080808080A4
:103C2000808080800000000404080800000000007C
:103C30000000000000000000000000000000000084
:103C40000000000000000000000000000000000074
:103C500000000000000098D844642424FCF8000010
:103C6000000F1F18101010081F1F10180020E0F080
:103C700000000000000000000000FFFF180804041E
:103C80000CF8F00000001F0F18101010180F0300A0
:103C900000000000000000000000000000E0F81834
:103CA0000404043C3800000000030F0C1010101036
:103CB000080600000000000000000020E0F0000006
:103CC00000E0F81C04040408FFFF000000030F18C4
:103CD000101010081F0F0800000000000000000076
:103CE000000000000000E0F8484444444C787000B4
:103CF0000000030F0C181010100804000000000052
:103D000080C0602020E0C00000040404FFFF040421
:103D100004040000000010101F1F1010100000000D
:103D2000000000000000000000000000000070F82B
:103D30008C04048CF874040C007076CF8D8D8D8902
:103D4000C87870000020E0F00000000000000000D3
:103D50000000FFFF08040404FCF8000000101F1F0F
:103D6000100000101F1F1000000000000060600025
:103D7000000000000000040404FCFC00000000003F
:103D800000001010101F1F10101000000000000095
:103D9000000000606000000000000000040404FC5B
:103DA000FC0000000000C0C08080C07F3F00000019
:103DB0000020E0F000000000000000000000FFFF15
:103DC00080C0F41C0404000000101F1F1100031F1A
:103DD0001C1010000000202020E0F0000000000077
:103DE0000000000000FFFF000000000000001010B5
:103DF000101F1F1010100000000000000000000045
:103E00000000000004FCFC0804FCFC0804FCFC00AE
:103E1000101F1F10001F1F10001F1F1000000000A8
:103E200000000000000000000004FCFC080804047E
:103E3000FCF8000000101F1F100000101F1F1000D2
:103E400000000000000000000000000000E0F0188A
:103E50000C04040C18F0E00000030F0C10101010FC
:103E60000C0F030000000000000000000000000034
:103E70000004FCFC080404040CF8F0000080FFFFC0
:103E8000889010101C0F03000000000000000000CC
:103E90000000000000E0F81C04040408F8FC000026
:103EA00000030F1810109088FFFF80000000000032
:103EB0000000000000000000040404FCFC100804E2
:103EC000040C0C001010101F1F1010100000000038
:103ED000000000000000000000000000000030783A
:103EE000CCC48484840C1C0000001E181010101117
:103EF000190F06000000000000C0000000000000D4
:103F000000040404FFFF040404000000000000009B
:103F10000F1F1010100C0000000000000000000037
:103F2000000000000004FCFE00000004FCFE000095
:103F300000000F1F181010081F0F080000000000DD
:103F4000000000000000000000040C3CFCC4000065
:103F5000C43C0C0400000000010F1E0E0100000014
:103F6000000000000000000000000000043CFCC451
:103F700000E47CFC84807C040000071F070000072D
:103F80001F0700000000000000000000000000000B
:103F90000004041C7CE4C0341C0404000010101C49
:103FA0001601131F1C181000000000000000000084
:103FB0000000000000040C3CFCC400C43C040400ED
:103FC0000000C080C1370E010000000000000000AA
:103FD000000000000000000000001C0404C4F47C89
:103FE0001C0400000000101C1F17111010180E00F8
:103FF00000000000000000F80C04000000000000B9
:10400000001028EF00000000000000000000003F4A
:1040100060400000000000000000FF000000000001
:10402000000000000000FF00000000000000000091
:104030000000FF00000000000000040CF800000079
:104040000000000000000000EF2810000000000049
:10405000000040603F000000000000000018060261
:1040600002040810202030080000000000000000BA
:104070000000000000000000000000000000000040
:104080000000F010101010FF10101010F0000000D1
:1040900000000F04040404FF040404040F000000E3
:1040A0004040405F555555755555555F404040005F
:1040B0000040200F094989790909090F20400000B3
:1040C00000FE02424ACA4A4ACA4A4A4202FE000066
:1040D00000FF40504C4340404F50505C40FF0000B8
:1040E0000000F888888888FF88888888F8000000A1
:1040F00000001F080808087F888888889F80F000D3
:1041000080828282828282E2A2928A86828080007B
:10411000000000000040807F000000000000000060
:10412000101010FF109008888888FF888888080081
:104130000444827F01808040432C10284681800007
:104140000010101010D030FF30D0121C10100000E2
:1041500010080402010000FF000001020408100022
:1041600004040484E43C2724242424E404040400F8
:1041700004020100FF0909090949897F00000000C4
:1041800000FE225A8600FE9292929292FE00000059
:1041900000FF04080700FF4020030C1422414000E8
:1041A0000080402018068000071820408000000092
:1041B0000100207028262120202438600001010001
:1041C000001012929292929292121202FE0000003D
:1041D0000000003F101010103F0040807F000000E2
:1041E000000000C080808080808080FC848080808F
:1041F000808080C0C0000000000000FF7F40404081
:10420000404040FF40404040404040FF7F000000B1
:1042100000000000000000000000007F70000000AF
:10422000000000000000000000000000000000008E
:1042300000000000000000FCF8000000000000008A
:10424000000000000000000000000000FFFE02026D
:1042500002020202020202FFFF0202020202020244
:104260000202FF0300000000000000001F1F040402
:1042700004040404040404FFFF0404040404040408
:1042800004041F0000000000000000000000000007
:10429000000000000000007F3F0000000000000060
:1042A000000000000000000000000000000000000E
:1042B00000000000000000000000000000000000FE
:1042C0000000000000F8F8F0F0702000000000008E
:1042D00000000000000000000000000000000000DE
:1042E00000000000000000000000000000000000CE
:1042F000800000000000000000000000000000003E
:104300000000000000FFFFFFFF00000000000000B1
:10431000000000000000000000000000808000009D
:10432000000000000000000000000000000000008D
:1043300000FFFFFE06060606060606060606060639
:104340000606060606FFFFFFFF0606060606060629
:104350000606060606060606060606FFFFFFFF0718
:10436000020000000000000000000000000000004B
:1043700000FFFFFF00000000000000000000000040
:104380000000000000FFFFFFFF0000000000000031
:104390000000000000000000000000FFFFFFFF0021
:1043A000000000000000000000000000000000000D
:1043B00000FFFFFF181818181818181818181818E0
:1043C0001818181818FFFFFFFF18181818181818D1
:1043D0001818181818181818181818FFFFFFFF00D9
:1043E00000000000000000000000000000000000CD
:1043F00002010100000000000000000000000000B9
:104400000000000000FFFFFFFF00000000000000B0
:10441000000000000000000000000001010000009A
:10442000000000000000000000000000000000008C
:10443000000000000000000000000000000000007C
:104440000000000000FFFFFFFF0000000000000070
:10445000000000000000000000000000000000005C
:10446000000000000000000000000000000000004C
:10447000000000000000000000000000000000003C
:1044800000000000001F1F0F0F00000000000000D0
:10449000000000000000000000000000000000001C
:1044A0000000000000000000C844000800000020D8
:1044B0001000000028010008D84400081000002067
:1044C000F80C00004401000801000000100000008A
:0844D000000000000024F400CC
:04000005080000ED02
:00000001FF
